:020000044000BA
:10000000130101FE232E8100130401022326A4FE06
:100010008327C4FE23A007008327C4FE23A4070070
:10002000130000000324C1011301010267800000D6
:10003000130101FE232E8100130401022326A4FED6
:10004000130000000324C1011301010267800000B6
:10005000130101FE232E8100130401022326A4FEB6
:100060008327C4FE23A207008327C4FE1307F0FFE3
:1000700023A0E700130000000324C10113010102C3
:1000800067800000130101FE232E8100130401028A
:100090002326A4FE8327C4FE83A7470093D7070126
:1000A00093F7F70F138507000324C1011301010221
:1000B00067800000130101FE232E8100130401025A
:1000C0002326A4FE8327C4FE83A7470093D7870176
:1000D000138507000324C10113010102678000009A
:1000E000130101FE232E1100232C810013040102B1
:1000F0002326A4FE2324B4FE130000000325C4FE1F
:10010000EFF05FF893070500E38A07FE8327C4FE3C
:10011000032784FE23A0E700130000008320C10111
:10012000032481011301010267800000130101FE15
:10013000232E8100130401022326A4FE2324B4FEEF
:10014000832784FE03A7C7008327C4FE23A4E700F8
:10015000832784FE83A707001387F7FF832784FE86
:1001600083A74700939787003367F700832784FEB0
:1001700083A78700939707013367F7008327C4FE9F
:1001800023A6E700130000000324C10113010102AC
:1001900067800000130101FE232E81001304010279
:1001A0002326A4FE8327C4FE83A7070093F7270016
:1001B000B337F00093F7F70F138507000324C1014D
:1001C0001301010267800000130101FE232E81004C
:1001D000130401022326A4FE8327C4FE1307100084
:1001E00023A0E700130000000324C1011301010252
:1001F00067800000130101FE232E1100232C8100D3
:10020000130401022326A4FE8327C4FE23A00700B3
:10021000130000000325C4FEEFF0DFF7930705008D
:10022000E39A07FE13000000130000008320C101C1
:10023000032481011301010267800000130101FD05
:100240002326810213040103232EA4FC232CB4FCD7
:10025000B72700F00327C4FD23A0E700B72700F06D
:10026000032784FD23A2E700B72700F0130710003F
:1002700023A8E700232604FEB72700F083A7C700C2
:100280002326F4FE8327C4FEE38807FEB72700F089
:1002900083A78700138507000324C102130101030C
:1002A00067800000130101FE232E81001304010268
:1002B0002326A4FE2324B4FEB72700F0938707402B
:1002C000032784FE23A6E700B72700F093870740A3
:1002D0001307100023A4E700B72700F09387074017
:1002E00023A20700B72700F0938707400327C4FE27
:1002F00023A8E700B72700F09387074013071000F3
:1003000023A0E700B72700F09387074023A007004A
:10031000130000000324C1011301010267800000E3
:10032000130101FD2326810213040103232EA4FCE3
:10033000B72700F0938707400327C4FD23A6E700F3
:10034000B72700F09387074023A40700B72700F0E2
:10035000938707401307100023A2E700B72700F098
:10036000938707401307100023A0E700B72700F08A
:100370009387074083A747012326F4FEB72700F0A1
:100380009387074023A007008327C4FE1385070037
:100390000324C1021301010367800000130101FE61
:1003A000232E1100232C8100130401022326A4FE16
:1003B0006F0000028327C4FE138717002326E4FE84
:1003C00083C7070093850700370501F0EFF05FD181
:1003D0008327C4FE83C70700E39E07FC13000000C9
:1003E000130000008320C1010324810113010102D5
:1003F00067800000130101FD2326110223248102DE
:100400001304010393078000232CF4FC232E04FC27
:10041000232004FE930750032322F4FE930784FD58
:1004200093850700370501F0EFF05FD0B707004074
:100430001385076EEFF09FF6232604FE93058000D8
:1004400013050001EFF09FDF2326A4FEB7C70100CC
:100450009385A764B7170700138507C8EFF01FDE61
:100460002326A4FE9305A048B7170700138507C8E5
:10047000EFF0DFDC2326A4FEB7370000938577D6A4
:10048000B7170700138507C8EFF05FDB2326A4FE2C
:10049000232404FE9305000013055003EFF09FE0B2
:1004A0009305300013059006EFF0DFDF9305200081
:1004B00013056045EFF01FDF93051000130580075B
:1004C000EFF05FDE13053000EFF09FE52324A4FE7C
:1004D00013052000EFF0DFE42324A4FE1305100031
:1004E000EFF01FE42324A4FE13050000EFF05FE308
:1004F0002324A4FEB72700F09387074023A6070014
:10050000B72700F0938707401307100023A4E700E4
:10051000B72700F09387074023A20700B72700F012
:10052000938707401307500423A8E700B72700F07C
:10053000938707401307100023A0E700B72700F0B8
:100540009387074023A00700B72700F09387074051
:100550001307100023A6E700B72700F09387074092
:100560001307100023A4E700B72700F09387074084
:1005700023A20700B72700F0938707401307000660
:1005800023A8E700B72700F0938707401307100060
:1005900023A0E700B72700F09387074023A00700B8
:1005A000B72700F09387074023A60700B72700F07E
:1005B0009387074023A40700B72700F093870740DD
:1005C0001307100023A2E700B72700F09387074026
:1005D0001307100023A0E700B72700F09387074018
:1005E00083A747012324F4FEB72700F09387074031
:1005F00023A00700B72700F09387074013071000D8
:1006000023A6E700B72700F09387074023A407003D
:10061000B72700F0938707401307100023A2E700D5
:10062000B72700F0938707401307100023A0E700C7
:10063000B72700F09387074083A747012324F4FEE0
:10064000B72700F09387074023A007009307000017
:10065000138507008320C1020324810213010103D3
:1006600067800000130101FF2326810013040101AC
:10067000130000000324C100130101016780000082
:10068000600000002003000070000000F002000085
:10069000020000000D0200000C000000EC01000050
:1006A00008000000460000001000000040000000AC
:1006B00002000000300000000800000028000000D8
:1006C00008000000B800000010000000B0000000AA
:1006D0000200000082000000060000007E00000012
:1006E00041646420474344205065726970686572B4
:1006F000616C20746F2042726965792D536F430DD0
:020700000A00ED
:0407040000000000F1
:0200000480007A
:100000006F00400B130000001300000013000000FD
:100010001300000013000000130000001300000094
:10002000232E11FE232C51FE232A61FE232871FE6C
:100030002326A1FE2324B1FE2322C1FE2320D1FECC
:10004000232EE1FC232CF1FC232A01FD232811FDA2
:100050002326C1FD2324D1FD2322E1FD2320F1FD30
:10006000130101FC970000C0E78000608320C103FA
:100070008322810303234103832301030325C10258
:100080008325810203264102832601020327C10141
:10009000832781010328410183280101032EC10028
:1000A000832E8100032F4100832F010013010104DF
:1000B00073002030971100C0938141E517110000B3
:1000C00013014188170500C013054564938581809D
:1000D0006308B50023200500130545006FF05FFF9E
:1000E000170500C0130545621301C1FF970500C045
:1000F00093858561630EB5008326050013054500D1
:100100002320A100E7800600032501006FF01FFEF9
:1001100013014100371500001305058873104530A1
:10012000372500001305858073100530970000C047
:08013000E780802C6F00000045
:040000058000000077
:00000001FF
