:020000044000BA
:10000000130101FE232E8100130401022326A4FE06
:100010008327C4FE23A007008327C4FE23A4070070
:10002000130000000324C1011301010267800000D6
:10003000130101FE232E8100130401022326A4FED6
:10004000130000000324C1011301010267800000B6
:10005000130101FE232E8100130401022326A4FEB6
:100060008327C4FE23A207008327C4FE1307F0FFE3
:1000700023A0E700130000000324C10113010102C3
:1000800067800000130101FE232E8100130401028A
:100090002326A4FE8327C4FE83A7470093D7070126
:1000A00093F7F70F138507000324C1011301010221
:1000B00067800000130101FE232E8100130401025A
:1000C0002326A4FE8327C4FE83A7470093D7870176
:1000D000138507000324C10113010102678000009A
:1000E000130101FE232E1100232C810013040102B1
:1000F0002326A4FE2324B4FE130000000325C4FE1F
:10010000EFF05FF893070500E38A07FE8327C4FE3C
:10011000032784FE23A0E700130000008320C10111
:10012000032481011301010267800000130101FE15
:10013000232E8100130401022326A4FE2324B4FEEF
:10014000832784FE03A7C7008327C4FE23A4E700F8
:10015000832784FE83A707001387F7FF832784FE86
:1001600083A74700939787003367F700832784FEB0
:1001700083A78700939707013367F7008327C4FE9F
:1001800023A6E700130000000324C10113010102AC
:1001900067800000130101FE232E81001304010279
:1001A0002326A4FE8327C4FE83A7070093F7270016
:1001B000B337F00093F7F70F138507000324C1014D
:1001C0001301010267800000130101FE232E81004C
:1001D000130401022326A4FE8327C4FE1307100084
:1001E00023A0E700130000000324C1011301010252
:1001F00067800000130101FE232E1100232C8100D3
:10020000130401022326A4FE8327C4FE23A00700B3
:10021000130000000325C4FEEFF0DFF7930705008D
:10022000E39A07FE13000000130000008320C101C1
:10023000032481011301010267800000130101FE04
:10024000232E8100130401022326A4FE2324B4FEDE
:10025000B73700F0938707C0032784FE23A4E70085
:10026000B73700F0938707C01307100023A2E700F9
:10027000B73700F0938707C00327C4FE23A6E70023
:10028000B73700F0938707C01307100023A0E700DB
:10029000B73700F0938707C023A0070013000000C2
:1002A0000324C1011301010267800000130101FD55
:1002B0002326810213040103232EA4FCB73700F088
:1002C000938707C00327C4FD23A4E700B73700F0D6
:1002D000938707C023A20700B73700F0938707C0B2
:1002E0001307100023A0E700B73700F0938707C07B
:1002F00083A707012326F4FEB73700F0938707C0D2
:1003000023A007008327C4FE138507000324C1022E
:100310001301010367800000130101FD2326110270
:100320002324810223229102130401039307050071
:100330002324B4FE2322C4FE2320D4FE232EE4FC77
:10034000A307F4FEB737004013854705EF1090531D
:10035000B73700401385470BEF10D052832544FE7A
:10036000B73700401385870BEF105078832784FE42
:100370009387C70183A70700930500011385070032
:10038000EFF0DFEB832784FE9387870183A70700C5
:100390009305100113850700EFF05FEA832784FEC1
:1003A0009387470183A70700930520011385070062
:1003B000EFF0DFE8832784FE9387070183A7070018
:1003C0009305300113850700EFF05FE7832784FE74
:1003D0009387C70083A70700930540011385070093
:1003E000EFF0DFE5832784FE9387870083A707006C
:1003F0009305500113850700EFF05FE4832784FE27
:100400009387470083A707009305600113850700C2
:10041000EFF0DFE2832784FE83A7070093057001D6
:1004200013850700EFF09FE1832744FE9387470081
:1004300083A707009305000213850700EFF01FE074
:10044000832744FE83A70700930510021385070046
:10045000EFF0DFDE8347F4FE9305A000138507006D
:10046000EFF0DFDD9305B000032504FEEFF01FDDA4
:100470009305800013051000EFF05FDC130000000F
:1004800013059000EFF09FE293070500E38A07FE53
:100490008327C4FD9384C70313050008EFF01FE111
:1004A0009307050023A0F4008327C4FD93848703EA
:1004B00013051008EFF09FDF9307050023A0F40059
:1004C0008327C4FD9384470313052008EFF01FDE44
:1004D0009307050023A0F4008327C4FD938407033A
:1004E00013053008EFF09FDC9307050023A0F4000C
:1004F0008327C4FD9384C70213054008EFF01FDB78
:100500009307050023A0F4008327C4FD938487028A
:1005100013055008EFF09FD99307050023A0F400BE
:100520008327C4FD9384470213056008EFF01FD8AA
:100530009307050023A0F4008327C4FD93840702DA
:1005400013057008EFF09FD69307050023A0F40071
:100550008327C4FD9384C70113058008EFF01FD5DE
:100560009307050023A0F4008327C4FD938487012B
:1005700013059008EFF09FD39307050023A0F40024
:100580008327C4FD938447011305A008EFF01FD211
:100590009307050023A0F4008327C4FD938407017B
:1005A0001305B008EFF09FD09307050023A0F400D7
:1005B0008327C4FD9384C7001305C008EFF01FCF45
:1005C0009307050023A0F4008327C4FD93848700CC
:1005D0001305D008EFF09FCD9307050023A0F4008A
:1005E0008327C4FD938447001305E008EFF01FCC78
:1005F0009307050023A0F4001305F008EFF01FCBCC
:10060000130705008327C4FD23A0E700832584FE8C
:10061000B73700401385470DEF1010668325C4FDE2
:10062000B73700401385870EEF109073130000005A
:100630008320C102032481028324410213010103A8
:1006400067800000130101FE232E810013040102C4
:100650002326A4FE8327C4FE23A007008327C4FE0D
:1006600023A40700130000000324C10113010102A9
:1006700067800000130101FE232E81001304010294
:100680002326A4FE130000000324C101130101026C
:1006900067800000130101FE232E81001304010274
:1006A0002326A4FE8327C4FE23A207008327C4FEBB
:1006B0001307F0FF23A0E700130000000324C1018B
:1006C0001301010267800000130101FE232E810047
:1006D000130401022326A4FE8327C4FE83A7470038
:1006E00093D7070193F7F70F138507000324C10180
:1006F0001301010267800000130101FE232E810017
:10070000130401022326A4FE8327C4FE83A7470007
:1007100093D78701138507000324C1011301010248
:1007200067800000130101FE232E1100232C81009D
:10073000130401022326A4FE2324B4FE13000000A8
:100740000325C4FEEFF05FF893070500E38A07FE78
:100750008327C4FE032784FE23A0E70013000000C4
:100760008320C1010324810113010102678000007D
:10077000130101FE232E8100130401022326A4FE8F
:100780002324B4FE832784FE03A7C7008327C4FE67
:1007900023A4E700832784FE83A707001387F7FFBE
:1007A000832784FE83A74700939787003367F7006A
:1007B000832784FE83A78700939707013367F70099
:1007C0008327C4FE23A6E700130000000324C10111
:1007D0001301010267800000130101FE232E810036
:1007E000130401022326A4FE8327C4FE83A7070067
:1007F00093F72700B337F00093F7F70F138507003F
:100800000324C1011301010267800000130101FEEE
:10081000232E8100130401022326A4FE8327C4FE95
:100820001307100023A0E700130000000324C101F8
:100830001301010267800000130101FE232E110045
:10084000232C8100130401022326A4FE8327C4FE67
:1008500023A00700130000000325C4FEEFF0DFF71C
:1008600093070500E39A07FE130000001300000041
:100870008320C1010324810113010102678000006C
:10088000130101FE232E8100130401022326A4FE7E
:100890002324B4FEB72700F0032784FE23A4E70037
:1008A000B72700F01307100023A2E700B72700F0D6
:1008B0000327C4FE23A6E700B72700F013071000A4
:1008C00023A0E700B72700F023A0070013000000D3
:1008D0000324C1011301010267800000130101FD1F
:1008E0002326810213040103232EA4FCB72700F062
:1008F0000327C4FD23A4E700B72700F023A20700C5
:10090000B72700F01307100023A0E700B72700F077
:1009100083A707012326F4FEB72700F023A00700D2
:100920008327C4FE138507000324C10213010103BA
:1009300067800000130101FE232E1100232C81008B
:10094000232A9100130401022326A4FE2324B4FECB
:100950002322C4FE2320D4FE9305A0000325C4FE59
:10096000EFF01FF2832744FE9387470083A7070019
:100970009305100213850700EFF09FF0832744FED4
:1009800083A707009305000213850700EFF05FEFD0
:10099000832784FE9387C70083A707009305300150
:1009A00013850700EFF0DFED832784FE9387870030
:1009B00083A707009305200113850700EFF05FEC84
:1009C000832784FE9387470083A7070093051001C0
:1009D00013850700EFF0DFEA832784FE83A7070073
:1009E0009305000113850700EFF09FE99305800050
:1009F00013051000EFF0DFE813000000130590006E
:100A0000EFF0DFED93070500E38A07FE832704FE7E
:100A10009384470013051003EFF05FEC9307050084
:100A200023A0F40013050003EFF05FEB13070500AC
:100A3000832704FE23A0E7000327C4FE93071000CA
:100A4000631AF700B73700401385C715EF108063AE
:100A50006F000001B73700401385071BEF1080625D
:100A6000B737004013854720EF10C061832544FE4F
:100A7000B737004013858720EF105007832584FE89
:100A8000B737004013850722EF10500D832504FE71
:100A9000B737004013854723EF10500513000000BF
:100AA0008320C10103248101832441011301010238
:100AB00067800000130101FE232E81001304010250
:100AC0002326A4FE8327C4FE23A007008327C4FE99
:100AD00023A40700130000000324C1011301010235
:100AE00067800000130101FE232E81001304010220
:100AF0002326A4FE130000000324C10113010102F8
:100B000067800000130101FE232E810013040102FF
:100B10002326A4FE8327C4FE23A207008327C4FE46
:100B20001307F0FF23A0E700130000000324C10116
:100B30001301010267800000130101FE232E8100D2
:100B4000130401022326A4FE8327C4FE83A74700C3
:100B500093D7070193F7F70F138507000324C1010B
:100B60001301010267800000130101FE232E8100A2
:100B7000130401022326A4FE8327C4FE83A7470093
:100B800093D78701138507000324C10113010102D4
:100B900067800000130101FE232E1100232C810029
:100BA000130401022326A4FE2324B4FE1300000034
:100BB0000325C4FEEFF05FF893070500E38A07FE04
:100BC0008327C4FE032784FE23A0E7001300000050
:100BD0008320C10103248101130101026780000009
:100BE000130101FE232E8100130401022326A4FE1B
:100BF0002324B4FE832784FE03A7C7008327C4FEF3
:100C000023A4E700832784FE83A707001387F7FF49
:100C1000832784FE83A74700939787003367F700F5
:100C2000832784FE83A78700939707013367F70024
:100C30008327C4FE23A6E700130000000324C1019C
:100C40001301010267800000130101FE232E8100C1
:100C5000130401022326A4FE8327C4FE83A70700F2
:100C600093F72700B337F00093F7F70F13850700CA
:100C70000324C1011301010267800000130101FE7A
:100C8000232E8100130401022326A4FE8327C4FE21
:100C90001307100023A0E700130000000324C10184
:100CA0001301010267800000130101FE232E1100D1
:100CB000232C8100130401022326A4FE8327C4FEF3
:100CC00023A00700130000000325C4FEEFF0DFF7A8
:100CD00093070500E39A07FE1300000013000000CD
:100CE0008320C101032481011301010267800000F8
:100CF000130101FE232E8100130401022326A4FE0A
:100D00008327C4FE9387470023A007008327C4FEE0
:100D100023A00700130000000324C10113010102F6
:100D200067800000130101EE232E1110232C811087
:100D300013040112930780002320F4FE232204FEF3
:100D4000232404FE930750032326F4FE930704FE96
:100D500093850700370501F0EFF09FE8B7370040B3
:100D60001385872AEF100032B73700401385C72A52
:100D7000EF104031232004FC232204FC232404FC34
:100D8000232604FC232804FC232A04FC232C04FC33
:100D9000232E04FC232804FA232A04FA232C04FA21
:100DA000232E04FA232004FA232204FA232404FA2B
:100DB000232604FAB73700401385C730EF10802C84
:100DC000B7C7D685938787E7232EF4FCB7775557A7
:100DD000938737D3232CF4FCB757447F9387E72FAF
:100DE000232AF4FCB707D5429387876A2328F4FCAB
:100DF000B78703019387A7082326F4FCB7B70DFB39
:100E00009387D72F2324F4FCB7F7BF4A9387F76A59
:100E10002322F4FCB7F749419387B7512320F4FC10
:100E2000930604FA130704FB930704FC1306070058
:100E30009385070013050000EF105065B737004099
:100E40001385C736EF100024B7070031232EF4FABC
:100E5000930604FA130704FB930704FC1306070028
:100E60009385070013051000EF105062B73700405C
:100E70001385C73CEF100021EF10106AB737004010
:100E80001385C742EF100020EF204005B737004020
:100E90001385872AEF10001FB73700401385C74816
:100EA000EF10401E232004F8232204F8232404F822
:100EB000232604F8232804F8232A04F8232C04F812
:100EC000232E04F8232C04F6232E04F6232E04F2FA
:100ED000232004F4232204F4232404F4232604F41A
:100EE000232804F4232A04F4232C04F4232E04F4EA
:100EF000232004F6232204F6232404F6232604F6F2
:100F0000232804F6232A04F6B73700401385C73098
:100F1000EF104017B73700401385C74EEF1080160B
:100F20001307C4F3130684F7930704F893068000AD
:100F30009385070013050000EFF00FBEB7370040A0
:100F400013854751EF100014930784F713850700AA
:100F5000EFF01FDA1307C4F3130684F7930704F8BE
:100F60009306C0009385070013050000EFF0CFBA89
:100F7000B737004013850754EF10C010930784F76C
:100F800013850700EFF0DFD61307C4F3130684F7C9
:100F9000930704F8930640019385070013050000AA
:100FA000EFF08FB7B73700401385C756EF10800DAD
:100FB000930784F713850700EFF09FD31307C4F35B
:100FC000130684F7930704F89306800093850700BF
:100FD00013051000EFF04FB4B737004013854759A1
:100FE000EF10400A930784F713850700EFF05FD0F6
:100FF0001307C4F3130684F7930704F89306C0009D
:101000009385070013051000EFF00FB1B7370040CC
:101010001385075CEF100007930784F7138507001B
:10102000EFF01FCD1307C4F3130684F7930704F8FA
:10103000930640019385070013051000EFF0CFAD34
:10104000B73700401385C736EF10C003B7370040ED
:101050001385C75EEF100003B7371E0F9387C7D302
:10106000232EF4F6B777594B93877787232CF4F622
:10107000B727110093873723232EF4F8B767554419
:1010800093877767232CF4F8B7B799889387B7AB22
:10109000232AF4F8B7F7DDCC9387F7EF2328F4F889
:1010A000B7E7EEFF9387C7DC2326F4F8B7A7AABB00
:1010B000938787982324F4F8B75766779387475424
:1010C0002322F4F8B7172233938707102320F4F86C
:1010D0001307C4F3130684F7930704F893068000FC
:1010E0009385070013051000EFF00FA3B7370040FA
:1010F0001385C73CEF001079B73700401385C760F0
:10110000EF0050789307F0FF232EF4F69307F0FFDB
:10111000232CF4F69307F0FF232EF4F89307F0FF47
:10112000232CF4F89307F0FF232AF4F89307F0FF39
:101130002328F4F89307F0FF2326F4F89307F0FF31
:101140002324F4F89307F0FF2322F4F89307F0FF29
:101150002320F4F81307C4F3130684F7930704F865
:10116000930680009385070013050000EFF0CF9AE7
:10117000B73700401385C742EF00D070B7371E0F56
:101180009387C7D3232EF4F6B777594B9387778786
:10119000232CF4F6B727110093873723232EF4F876
:1011A000B767554493877767232CF4F8B7B79988C6
:1011B0009387B7AB232AF4F8B7F7DDCC9387F7EF23
:1011C0002328F4F8232604F8232404F8232204F81F
:1011D000232004F81307C4F3130684F7930704F8D5
:1011E000930680009385070013050000EFF0CF926F
:1011F000B73700401385C764EF00D068232604F298
:10120000232804F2232A04F2232C04F2232204F2DA
:10121000232404F2232E04F0232004F2B7370040E5
:101220001385076AEF001066B7E7C4699387870DD7
:101230002324F4F2B7077B6A938707432322F4F24F
:10124000B7B7CDD893870778232CF4F2B7C7B4701B
:101250009387A755232AF4F2B76786819387A75A05
:101260002328F4F2B7E7020D9387A7FD2326F4F2B3
:101270009306C4F1130744F29307C4F21306070060
:101280009385070013051000EFF0CFEAB737004051
:101290001385476FEF00105FB7B7C6439387672585
:1012A0002324F4F2B7E79DD79387877E2322F4F2B5
:1012B0009306C4F1130744F29307C4F21306070020
:1012C0009385070013050000EFF0CFE6B737004025
:1012D0001385872AEF00105BB737004013858774AA
:1012E000EF00505A232804F0232A04F0232C04F0A2
:1012F000232404F0232604F0232004F0232204F006
:10130000B73700401385C779EF00D057B777744CD3
:10131000938777E62326F4F0B76779759387E756C6
:101320002324F4F0B777654693875746232CF4F0CF
:10133000B767486C9387D736232AF4F0B777000055
:10134000938737572328F4F0930604F0130784F0AB
:10135000930704F1130607009385070013050000A7
:10136000EF00804FB73700401385077FEF009051A3
:10137000B7071D0E9387470D2326F4F0B7B76BE42C
:101380009387C7992324F4F0930604F0130784F09D
:10139000930704F113060700938507001305100057
:1013A000EF00804BB73700401385872AEF00904D40
:1013B000B747004013854784EF00D04C232A04EE42
:1013C000232C04EE232E04EE232604EE232804EE21
:1013D000232204EE232404EEB73700401385C77997
:1013E000EF00504AB777744C938777E62328F4EEE2
:1013F000B76779759387E7562326F4EEB777654686
:1014000093875746232EF4EEB767486C9387D736F9
:10141000232CF4EEB777000093873757232AF4EE96
:10142000930644EE1307C4EE930744EF13860600B9
:101430009305070013850700EF00500DB7370040F4
:101440001385077FEF001044B777654693875746AB
:101450002328F4EEB7575F6C938737552326F4EEB5
:10146000232E04EE232C04EE93071000232AF4EE1F
:10147000930644EE1307C4EE930744EF1386060069
:101480009305070013850700EF005008B747004099
:1014900013858789EF00103FB737383193870723CB
:1014A0002328F4EEB7473130938737832326F4EEB1
:1014B000B737383193870723232EF4EEB7473130FF
:1014C00093873783232CF4EEB75700009387375563
:1014D000232AF4EE930644EE1307C4EE930744EF79
:1014E000138606009305070013850700EF0010021E
:1014F00093070000138507008320C1110324811185
:101500001301011267800000130101FF23268100EF
:1015100013040101130000000324C10013010101A1
:1015200067800000130101FE232E810013040102D5
:101530002326A4FE8327C4FE23A007008327C4FE1E
:1015400023A40700130000000324C10113010102BA
:1015500067800000130101FE232E810013040102A5
:101560002326A4FE130000000324C101130101027D
:1015700067800000130101FE232E81001304010285
:101580002326A4FE8327C4FE23A207008327C4FECC
:101590001307F0FF23A0E700130000000324C1019C
:1015A0001301010267800000130101FE232E810058
:1015B000130401022326A4FE8327C4FE83A7470049
:1015C00093D7070193F7F70F138507000324C10191
:1015D0001301010267800000130101FE232E810028
:1015E000130401022326A4FE8327C4FE83A7470019
:1015F00093D78701138507000324C101130101025A
:1016000067800000130101FE232E1100232C8100AE
:10161000130401022326A4FE2324B4FE13000000B9
:101620000325C4FEEFF05FF893070500E38A07FE89
:101630008327C4FE032784FE23A0E70013000000D5
:101640008320C1010324810113010102678000008E
:10165000130101FE232E8100130401022326A4FEA0
:101660002324B4FE832784FE03A7C7008327C4FE78
:1016700023A4E700832784FE83A707001387F7FFCF
:10168000832784FE83A74700939787003367F7007B
:10169000832784FE83A78700939707013367F700AA
:1016A0008327C4FE23A6E700130000000324C10122
:1016B0001301010267800000130101FE232E810047
:1016C000130401022326A4FE8327C4FE83A7070078
:1016D00093F72700B337F00093F7F70F1385070050
:1016E0000324C1011301010267800000130101FE00
:1016F000232E8100130401022326A4FE8327C4FEA7
:101700001307100023A0E700130000000324C10109
:101710001301010267800000130101FE232E110056
:10172000232C8100130401022326A4FE8327C4FE78
:1017300023A00700130000000325C4FEEFF0DFF72D
:1017400093070500E39A07FE130000001300000052
:101750008320C1010324810113010102678000007D
:10176000130101FE232E8100130401022326A4FE8F
:101770002324B4FEB72700F093870740032784FE95
:1017800023A6E700B72700F09387074023A20700AE
:10179000B72700F0938707401307100023A4E70042
:1017A000B72700F0938707400327C4FE23A8E7006C
:1017B000B72700F09387074023A00700B72700F062
:1017C000938707401307100023A0E70013000000D1
:1017D0000324C1011301010267800000130101FD10
:1017E0002326810213040103232EA4FCB72700F053
:1017F000938707400327C4FD23A6E700B72700F01F
:101800009387074023A40700B72700F0938707407A
:101810001307100023A2E700B72700F093870740C3
:1018200023A00700B72700F09387074083A747014D
:101830002326F4FEB72700F0938707401307100014
:1018400023A0E7008327C4FE138507000324C102F9
:101850001301010367800000130101FE232E110014
:10186000232C8100232A9100130401029307050011
:101870002324B4FE2322C4FE2320D4FEA307F4FEB7
:101880008347F4FE639A0700930580001305000068
:10189000EFF01FED6F0000019305800013051000AD
:1018A000EFF01FEC832744FE9387470083A70700D0
:1018B0009305500013850700EFF09FEA832744FE4D
:1018C00083A707009305400013850700EFF05FE949
:1018D000832784FE9387870083A707009305300042
:1018E00013850700EFF0DFE7832784FE9387470027
:1018F00083A707009305200013850700EFF05FE63C
:10190000832784FE83A70700930510001385070033
:10191000EFF01FE59305000013051000EFF05FE402
:101920001300000013056000EFF05FEB9307050064
:10193000E38A07FE832704FE9384470013057000A3
:10194000EFF0DFE99307050023A0F4001305600022
:10195000EFF0DFE813070500832704FE23A0E7006C
:101960008347F4FE639A0700B74700401385C79486
:10197000EF0040716F000001B74700401385079AE0
:10198000EF004070B74700401385479FEF00806F1E
:10199000832544FEB74700401385879FEF0010154D
:1019A000832584FEB7470040138547A1EF009024AC
:1019B000832504FEB7470040138547A2EF001013AC
:1019C000130000008320C10103248101832441010D
:1019D0001301010267800000130101FE232E810024
:1019E000130401022326A4FE8327C4FE23A00700BC
:1019F0008327C4FE23A40700130000000324C101B1
:101A00001301010267800000130101FE232E8100F3
:101A1000130401022326A4FE130000000324C101C5
:101A20001301010267800000130101FE232E8100D3
:101A3000130401022326A4FE8327C4FE23A2070069
:101A40008327C4FE1307F0FF23A0E7001300000064
:101A50000324C1011301010267800000130101FE8C
:101A6000232E8100130401022326A4FE8327C4FE33
:101A700083A7470093D7070193F7F70F1385070054
:101A80000324C1011301010267800000130101FE5C
:101A9000232E8100130401022326A4FE8327C4FE03
:101AA00083A7470093D78701138507000324C1014B
:101AB0001301010267800000130101FE232E1100B3
:101AC000232C8100130401022326A4FE2324B4FE48
:101AD000130000000325C4FEEFF05FF89307050034
:101AE000E38A07FE8327C4FE032784FE23A0E700C2
:101AF000130000008320C1010324810113010102AE
:101B000067800000130101FE232E810013040102EF
:101B10002326A4FE2324B4FE832784FE03A7C70044
:101B20008327C4FE23A4E700832784FE83A707003E
:101B30001387F7FF832784FE83A7470093978700C7
:101B40003367F700832784FE83A7870093970701F5
:101B50003367F7008327C4FE23A6E70013000000C5
:101B60000324C1011301010267800000130101FE7B
:101B7000232E8100130401022326A4FE8327C4FE22
:101B800083A7070093F72700B337F00093F7F70F09
:101B9000138507000324C1011301010267800000BF
:101BA000130101FE232E8100130401022326A4FE4B
:101BB0008327C4FE1307100023A0E70013000000D2
:101BC0000324C1011301010267800000130101FE1B
:101BD000232E1100232C8100130401022326A4FECE
:101BE0008327C4FE23A00700130000000325C4FEC2
:101BF000EFF0DFF793070500E39A07FE13000000FC
:101C0000130000008320C10103248101130101029C
:101C100067800000130101FE232E810013040102DE
:101C20002326A4FE2324B4FEB73700F09387078051
:101C3000032784FE23A6E700B73700F093870780C9
:101C400023A20700B73700F093870780130710001F
:101C500023A4E700B73700F0938707800327C4FE6B
:101C600023A8E700B73700F09387078023A0070079
:101C7000B73700F0938707801307100023A0E70011
:101C8000130000000324C10113010102678000005A
:101C9000130101FD2326810213040103232EA4FC5A
:101CA000B73700F0938707800327C4FD23A6E7001A
:101CB000B73700F09387078023A40700B73700F0F9
:101CC000938707801307100023A2E700B73700F0BF
:101CD0009387078023A00700B73700F0938707801A
:101CE00083A747012326F4FEB73700F093870780C8
:101CF0001307100023A0E7008327C4FE1385070005
:101D00000324C1021301010367800000130101FED7
:101D1000232E1100232C8100232A91001304010299
:101D20002326A4FE2324B4FE2322C4FE832784FE9C
:101D30009387470083A7070093055000138507008A
:101D4000EFF05FED832784FE83A707009305400033
:101D500013850700EFF01FEC8327C4FE93878700ED
:101D600083A707009305300013850700EFF09FEA73
:101D70008327C4FE9387470083A7070093052000AD
:101D800013850700EFF01FE98327C4FE83A7070030
:101D90009305100013850700EFF0DFE793050000BF
:101DA00013051000EFF01FE713000000130560009B
:101DB000EFF01FEE93070500E38A07FE832744FE3A
:101DC0009384470013057000EFF09FEC9307050024
:101DD00023A0F40013056000EFF09FEB130705004C
:101DE000832744FE23A0E700B7470040138587A957
:101DF000EF004029B74700401385C7AEEF008028A9
:101E0000832584FEB7470040138507AFEF00004EDF
:101E10008325C4FEB74700401385C7B0EF00805D3F
:101E2000832544FEB74700401385C7B1EF00004C3F
:101E3000130000008320C101032481018324410198
:101E40001301010267800000130101FE232E8100AF
:101E5000130401022326A4FE8327C4FE23A0070047
:101E60008327C4FE23A40700130000000324C1013C
:101E70001301010267800000130101FE232E81007F
:101E8000130401022326A4FE130000000324C10151
:101E90001301010267800000130101FE232E81005F
:101EA000130401022326A4FE8327C4FE23A20700F5
:101EB0008327C4FE1307F0FF23A0E70013000000F0
:101EC0000324C1011301010267800000130101FE18
:101ED000232E8100130401022326A4FE8327C4FEBF
:101EE00083A7470093D7070193F7F70F13850700E0
:101EF0000324C1011301010267800000130101FEE8
:101F0000232E8100130401022326A4FE8327C4FE8E
:101F100083A7470093D78701138507000324C101D6
:101F20001301010267800000130101FE232E11003E
:101F3000232C8100130401022326A4FE2324B4FED3
:101F4000130000000325C4FEEFF05FF893070500BF
:101F5000E38A07FE8327C4FE032784FE23A0E7004D
:101F6000130000008320C101032481011301010239
:101F700067800000130101FE232E8100130401027B
:101F80002326A4FE2324B4FE832784FE03A7C700D0
:101F90008327C4FE23A4E700832784FE83A70700CA
:101FA0001387F7FF832784FE83A747009397870053
:101FB0003367F700832784FE83A787009397070181
:101FC0003367F7008327C4FE23A6E7001300000051
:101FD0000324C1011301010267800000130101FE07
:101FE000232E8100130401022326A4FE8327C4FEAE
:101FF00083A7070093F72700B337F00093F7F70F95
:10200000138507000324C10113010102678000004A
:10201000130101FE232E8100130401022326A4FED6
:102020008327C4FE1307100023A0E700130000005D
:102030000324C1011301010267800000130101FEA6
:10204000232E1100232C8100130401022326A4FE59
:102050008327C4FE23A00700130000000325C4FE4D
:10206000EFF0DFF793070500E39A07FE1300000087
:10207000130000008320C101032481011301010228
:1020800067800000130101FE232E1100232C810024
:10209000130401022326A4FE6F0000028327C4FE5E
:1020A000138717002326E4FE83C7070093850700E4
:1020B000370501F0EFF05FE78327C4FE83C7070011
:1020C000E39E07FC13000000130000008320C10101
:1020D000032481011301010267800000130101FC48
:1020E000232E1102232C8102130401042326A4FCB5
:1020F000232604FE232E04FC232004FE8327C4FC95
:1021000093F7F70037470040130747B9B307F700C5
:1021100003C707008327C4FE930604FFB387F600B6
:102120002386E7FE8327C4FE938717002326F4FE49
:102130008327C4FC93D747002326F4FC8327C4FCE1
:10214000E39E07FA0327C4FE9307700063CEE702FD
:10215000930770002324F4FE6F004002130700036E
:10216000832784FE930604FFB387F6002386E7FEE9
:10217000832784FE9387F7FF2324F4FE032784FE3E
:102180008327C4FEE35CF7FC930730002322F4FEB0
:102190006F00C002832744FE130704FFB307F70054
:1021A00083C7C7FE93850700370501F0EFF0DFD73F
:1021B000832744FE9387F7FF2322F4FE832744FE00
:1021C000E3DA07FCB7470040138507B9EFF09FEB50
:1021D000130000008320C1030324810313010104C1
:1021E00067800000130101FC232E1102232C8102C1
:1021F000130401042326A4FC232604FE232E04FC3E
:10220000232004FE8327C4FC93F7F70037470040E0
:10221000130747B9B307F70003C707008327C4FEB6
:10222000930604FFB387F6002386E7FE8327C4FEE8
:10223000938717002326F4FE8327C4FC93D7470017
:102240002326F4FC8327C4FCE39E07FA0327C4FE7D
:102250009307700063CEE702930770002324F4FE17
:102260006F00400213070003832784FE930604FFD8
:10227000B387F6002386E7FE832784FE9387F7FF64
:102280002324F4FE032784FE8327C4FEE35CF7FCCB
:10229000930770002322F4FE6F00C002832744FEE0
:1022A000130704FFB307F70083C7C7FE9385070032
:1022B000370501F0EFF05FC7832744FE9387F7FFF0
:1022C0002322F4FE832744FEE3DA07FCB7470040ED
:1022D000138507B9EFF01FDB130000008320C10353
:1022E000032481031301010467800000130101FE30
:1022F000232E1100232C8100130401022326A4FEA7
:102300002324B4FEB7470040138587BAEFF09FD768
:102310000325C4FEEFF01FD7832784FE9387470071
:1023200083A7070013850700EFF0DFEB832784FE08
:1023300083A7070013850700EFF0DFEAB7470040E7
:102340001385C7BAEFF01FD4130000008320C1012A
:10235000032481011301010267800000130101FEC3
:10236000232E1100232C8100130401022326A4FE36
:102370002324B4FEB7470040138587BAEFF09FD0FF
:102380000325C4FEEFF01FD0832784FE9387C70088
:1023900083A7070013850700EFF0DFE4832784FE9F
:1023A0009387870083A7070013850700EFF09FE35B
:1023B000832784FE9387470083A7070013850700C0
:1023C000EFF05FE2832784FE83A7070013850700F1
:1023D000EFF05FE1B74700401385C7BAEFF09FCA3F
:1023E000130000008320C1010324810113010102B5
:1023F00067800000130101FE232E1100232C8100B1
:10240000130401022326A4FE2324B4FEB747004090
:10241000138587BAEFF01FC70325C4FEEFF09FC6F0
:10242000832784FE9387870083A70700138507000F
:10243000EFF05FDB832784FE9387470083A70700C5
:1024400013850700EFF01FDA832784FE83A70700B8
:1024500013850700EFF09FC8B74700401385C7BA40
:10246000EFF05FC2130000008320C101032481014B
:102470001301010267800000130101FE232E1100E9
:10248000232C8100130401022326A4FE2324B4FE7E
:10249000B7470040138587BAEFF0DFBE0325C4FEBF
:1024A000EFF05FBE832784FE9387C70183A70700F1
:1024B00013850700EFF01FD3832784FE93878701DE
:1024C00083A7070013850700EFF0DFD1832784FE81
:1024D0009387470183A7070013850700EFF09FD07C
:1024E000832784FE9387070183A7070013850700CE
:1024F000EFF05FCF832784FE9387C70083A7070091
:1025000013850700EFF01FCE832784FE9387870093
:1025100083A7070013850700EFF0DFCC832784FE35
:102520009387470083A7070013850700EFF09FCB31
:10253000832784FE83A7070013850700EFF09FCA57
:10254000B74700401385C7BAEFF0DFB313000000B0
:102550008320C1010324810113010102678000006F
:10256000130101FE232E1100232C8100130401020C
:102570002326A4FE2324B4FEB7470040138587BA60
:10258000EFF05FB00325C4FEEFF0DFAF832784FEDA
:102590009387C70383A7070013850700EFF09FC445
:1025A000832784FE9387870383A70700138507008B
:1025B000EFF05FC3832784FE9387470383A7070059
:1025C00013850700EFF01FC2832784FE938707035C
:1025D00083A7070013850700EFF0DFC0832784FE81
:1025E0009387C70283A7070013850700EFF09FBFFB
:1025F000832784FE9387870283A70700138507003C
:10260000EFF05FBE832784FE9387470283A707000E
:1026100013850700EFF01FBD832784FE9387070211
:1026200083A7070013850700EFF0DFBBB747004023
:102630001385C7BAEFF01FA5B7470040138507BB46
:10264000EFF05FA4832784FE9387C70183A7070069
:1026500013850700EFF01FB9832784FE9387870156
:1026600083A7070013850700EFF0DFB7832784FEF9
:102670009387470183A7070013850700EFF09FB6F4
:10268000832784FE9387070183A70700138507002C
:10269000EFF05FB5832784FE9387C70083A7070009
:1026A00013850700EFF01FB4832784FE938787000C
:1026B00083A7070013850700EFF0DFB2832784FEAE
:1026C0009387470083A7070013850700EFF09FB1AA
:1026D000832784FE83A7070013850700EFF09FB0D0
:1026E000B74700401385C7BAEFF0DF991300000029
:1026F0008320C101032481011301010267800000CE
:10270000130101FE232E8100130401022326A4FEDF
:102710008327C4FE23A007008327C4FE23A4070049
:10272000130000000324C1011301010267800000AF
:10273000130101FE232E8100130401022326A4FEAF
:10274000130000000324C10113010102678000008F
:10275000130101FE232E8100130401022326A4FE8F
:102760008327C4FE23A207008327C4FE1307F0FFBC
:1027700023A0E700130000000324C101130101029C
:1027800067800000130101FE232E81001304010263
:102790002326A4FE8327C4FE83A7470093D70701FF
:1027A00093F7F70F138507000324C10113010102FA
:1027B00067800000130101FE232E81001304010233
:1027C0002326A4FE8327C4FE83A7470093D787014F
:1027D000138507000324C101130101026780000073
:1027E000130101FE232E1100232C8100130401028A
:1027F0002326A4FE2324B4FE130000000325C4FEF8
:10280000EFF05FF893070500E38A07FE8327C4FE15
:10281000032784FE23A0E700130000008320C101EA
:10282000032481011301010267800000130101FEEE
:10283000232E8100130401022326A4FE2324B4FEC8
:10284000832784FE03A7C7008327C4FE23A4E700D1
:10285000832784FE83A707001387F7FF832784FE5F
:1028600083A74700939787003367F700832784FE89
:1028700083A78700939707013367F7008327C4FE78
:1028800023A6E700130000000324C1011301010285
:1028900067800000130101FE232E81001304010252
:1028A0002326A4FE8327C4FE83A7070093F72700EF
:1028B000B337F00093F7F70F138507000324C10126
:1028C0001301010267800000130101FE232E810025
:1028D000130401022326A4FE8327C4FE130710005D
:1028E00023A0E700130000000324C101130101022B
:1028F00067800000130101FE232E1100232C8100AC
:10290000130401022326A4FE8327C4FE23A007008C
:10291000130000000325C4FEEFF0DFF79307050066
:10292000E39A07FE13000000130000008320C1019A
:10293000032481011301010267800000130101FEDD
:10294000232E8100130401022326A4FE2324B4FEB7
:10295000B73700F0032784FE23A4E700B73700F061
:102960001307100023A2E700B73700F00327C4FEC7
:1029700023A6E700B73700F01307100023A0E700F5
:10298000B73700F023A00700130000000324C101A3
:102990001301010267800000130101FD232681025B
:1029A00013040103232EA4FCB73700F00327C4FD52
:1029B00023A4E700B73700F023A20700B73700F0E1
:1029C0001307100023A0E700B73700F083A7070123
:1029D0002326F4FEB73700F023A007008327C4FEA8
:1029E000138507000324C10213010103678000005F
:1029F000130101FE232E1100232C81001304010278
:102A00002326A4FE8327C4FE9387C70183A707005C
:102A10009305000113850700EFF05FF28327C4FEE2
:102A20009387870183A7070093051001138507008B
:102A3000EFF0DFF08327C4FE9387470183A70700E9
:102A40009305200113850700EFF05FEF8327C4FE95
:102A50009387070183A707009305300113850700BB
:102A6000EFF0DFED8327C4FE9387C70083A707003D
:102A70009305400113850700EFF05FEC8327C4FE48
:102A80009387870083A707009305500113850700EC
:102A9000EFF0DFEA8327C4FE9387470083A7070090
:102AA0009305600113850700EFF05FE98327C4FEFB
:102AB00083A707009305700113850700EFF01FE857
:102AC0009305000213050000EFF05FE79305100285
:102AD00013050000EFF09FE69305200213050000A8
:102AE000EFF0DFE59305300213050000EFF01FE57E
:102AF0009305800013051000EFF05FE41300000061
:102B000013059000EFF05FE993070500E38A07FEE5
:102B100013000000130000008320C1010324810181
:102B20001301010267800000130101FE232E110032
:102B3000232C8100130401022326A4FE2324B4FEC7
:102B4000832784FE9387C70083A7070093050002AD
:102B500013850700EFF09FDE832784FE93878700AD
:102B600083A707009305100213850700EFF01FDD10
:102B7000832784FE9387470083A7070093052002DD
:102B800013850700EFF09FDB832784FE83A70700F0
:102B90009305300213850700EFF05FDA9305A0007C
:102BA0000325C4FEEFF09FD9930580001305200094
:102BB000EFF0DFD81300000013059000EFF0DFDD29
:102BC00093070500E38A07FE1300000013000000CE
:102BD0008320C101032481011301010267800000E9
:102BE000130101FE232E1100232C8100232A9100C2
:102BF000130401022326A4FE930580001305400060
:102C0000EFF0DFD31300000013059000EFF0DFD8E2
:102C100093070500E38A07FE8327C4FE9384C70059
:102C200013050003EFF05FD79307050023A0F4001E
:102C30008327C4FE9384870013051003EFF0DFD5CC
:102C40009307050023A0F4008327C4FE9384470064
:102C500013052003EFF05FD49307050023A0F400D1
:102C600013053003EFF05FD3130705008327C4FE7D
:102C700023A0E700130000008320C1010324810189
:102C8000832441011301010267800000130101FE4A
:102C9000232E1100232C8100130401022326A4FEFD
:102CA0002324B4FE2322C4FE2320D4FE032584FE65
:102CB000EFF01FD4832544FE0325C4FEEFF0DFE6CA
:102CC000032504FEEFF0DFF1B7470040138587C20C
:102CD000EFF04FBB832544FEB74700401385C7C2C2
:102CE000EFF0CFE7832584FEB7470040138587C404
:102CF000EFF08FF8832504FEB7470040138587C5A2
:102D0000EFF0CFE5130000008320C101032481010F
:102D10001301010267800000130101F92326110647
:102D20002324810613040107B7C7D685938787E755
:102D30002326F4FEB7775557938737D32324F4FE21
:102D4000B757447F9387E72F2322F4FEB707D54276
:102D50009387876A2320F4FEB78703019387A70828
:102D6000232EF4FCB7B70DFB9387D72F232CF4FC4D
:102D7000B7F7BF4A9387F76A232AF4FCB7F74941AC
:102D80009387B7512328F4FCB7877243938707973B
:102D90002326F4FCB7676F74938727772324F4FC0A
:102DA000B7777061938797862322F4FCB747206337
:102DB0009387F7662320F4FCB7777572938707D261
:102DC000232EF4FAB777655293875736232CF4FAFB
:102DD000B767726193878736232AF4FAB77747205B
:102DE0009387F7262328F4FAB70770752326F4FA99
:102DF000232404FA232204FA232004FA232804F8C3
:102E0000232A04F8232C04F8232E04F8930704FD46
:102E100013850700EFF0DFBD930704FC93850700DF
:102E200013050001EFF05FD0930704FB93850700C3
:102E300013050001EFF05FCF930704FA93850700B5
:102E400013052000EFF05FCE930704F91385070008
:102E5000EFF01FD9930704FC93850700B7470040A4
:102E60001385C7C6EFF08FCF930704FB9385070048
:102E7000B7470040138587C8EFF04FCEB7470040F3
:102E8000138587C8EFF00FA0B777000013850757A9
:102E9000EFF0CFA4B7470040138587C2EFF08F9EB5
:102EA000930704FD93850700B7470040138587C447
:102EB000EFF08FDC930704F993850700B7470040D4
:102EC000138587C5EFF08FC9130000008320C1066A
:102ED000032481061301010767800000130101F933
:102EE000232611062324810613040107232E04F848
:102EF000232004FA232204FA232404FAB70700F358
:102F00002324F4FE232204FE232004FE9307F0036F
:102F1000232EF4FCB707003F232CF4FC232A04FCE7
:102F2000232804FC9307300F2326F4FC9307F0FFBB
:102F30002324F4FC9307F0FF2322F4FC9307F0FF13
:102F40002320F4FC9307F0FF232EF4FAB7070001C7
:102F5000232CF4FA232A04FA232804FA232604FA59
:102F60009307C4FC13850700EFF09FA8232604FEF7
:102F70006F0000029307C4FB93850700130500014F
:102F8000EFF09FBA8327C4FE938717002326F4FE31
:102F90000327C4FE9307F003E3DEE7FC9307C4FABC
:102FA0009385070013051000EFF01FB89307C4F9CD
:102FB00013850700EFF0DFC29307C4FC9385070079
:102FC000B7470040138547CAEFF00FCB9307C4F90A
:102FD00093850700B7470040138587C5EFF00FB80A
:102FE000130000008320C10603248106130101079A
:042FF00067800000F6
:102FF400600000002003000070000000F0020000E8
:10300400020000000D0200000C000000EC010000B2
:10301400080000004600000010000000400000000E
:10302400020000003000000008000000280000003A
:1030340008000000B800000010000000B00000000C
:103044000200000082000000060000007E00000074
:103054000D093D3D3D3D3D3D3D3D3D3D3D3D3D3D00
:103064003D3D3D3D3D3D3D3D3D3D3D3D3D3D3D3D8C
:103074003D3D3D3D43484143484132302043495062
:103084004845523D3D3D3D3D3D3D3D3D3D3D3D3D44
:103094003D3D3D3D3D3D3D3D3D3D3D3D3D3D3D3D5C
:1030A4003D3D3D3D3D3D3D3D3D3D3D3D0D0A000029
:1030B4000D0A00000D09504C41494E5F54455854C7
:1030C400202836342D62697429203A20000000003B
:1030D4004B455920283132382F3235362D626974E8
:1030E400293A2000524553554C5420283531322D6D
:1030F40062697429203A2000600000002003000067
:1031040070000000F0020000020000000D02000048
:103114000C000000EC010000080000004600000064
:103124001000000040000000020000003000000019
:10313400080000002800000008000000B80000009B
:1031440010000000B0000000020000008200000037
:10315400060000007E0000000D093D3D3D3D3D3D63
:103164003D3D3D3D3D3D3D3D3D3D3D3D3D3D3D3D8B
:103174003D3D3D3D3D3D3D5052494E434520454E2C
:10318400435259505454494F4E3D3D3D3D3D3D3DC4
:103194003D3D3D3D3D3D3D3D3D3D3D3D3D3D3D3D5B
:1031A4003D3D3D3D3D3D0D0A000000000D093D3D06
:1031B4003D3D3D3D3D3D3D3D3D3D3D3D3D3D3D3D3B
:1031C4003D3D3D3D3D3D3D3D3D3D3D5052494E43E0
:1031D40045204445435259505454494F4E3D3D3D7A
:1031E4003D3D3D3D3D3D3D3D3D3D3D3D3D3D3D3D0B
:1031F4003D3D3D3D3D3D3D3D3D3D0D0A0000000052
:103204000D0A0000504C41494E5F54455854202843
:1032140036342D62697429203A2000004B45592028
:10322400283132382D62697429203A2000000000C8
:10323400524553554C54202836342D626974292044
:103244003A2000006000000020030000700000002D
:10325400F0020000020000000D0200000C0000005B
:10326400EC0100000800000046000000100000000F
:1032740040000000020000003000000008000000D0
:103284002800000008000000B80000001000000042
:10329400B0000000020000008200000006000000F0
:1032A4007E0000000D0A00000D092A2A2A2A2A2A73
:1032B4002A2A2A2A2A2A2A2A2A2A2A2A2A2A2A2A6A
:1032C4002A2A2A2A2A2A2A2A2A2A2A2A2A2A2A2A5A
:1032D4002A2A2A504F4C59313330352054455354FF
:1032E4002A2A2A2A2A2A2A2A2A2A2A2A2A2A2A2A3A
:1032F4002A2A2A2A2A2A2A2A2A2A2A2A2A2A2A2A2A
:103304002A2A2A2A0D0A00000D0A093D3D3D3D3DA9
:103314003D3D3D3D3D3D3D3D3D3D3D3D3D3D3D3DD9
:103324003D3D3D3D3D3D3D3D3D3D3D3D3D3D3D3DC9
:103334003D3D3D3D3D5445535420313D3D3D3D3D96
:103344003D3D3D3D3D3D3D3D3D3D3D3D3D3D3D3DA9
:103354003D3D3D3D3D3D3D3D3D3D3D3D3D3D3D3D99
:103364003D3D3D3D3D0D0A000D0A093D3D3D3D3DC0
:103374003D3D3D3D3D3D3D3D3D3D3D3D3D3D3D3D79
:103384003D3D3D3D3D3D3D3D3D3D3D3D3D3D3D3D69
:103394003D3D3D3D3D5445535420323D3D3D3D3D35
:1033A4003D3D3D3D3D3D3D3D3D3D3D3D3D3D3D3D49
:1033B4003D3D3D3D3D3D3D3D3D3D3D3D3D3D3D3D39
:1033C4003D3D3D3D3D0D0A000D0A093D3D3D3D3D60
:1033D4003D3D3D3D3D3D3D3D3D3D3D3D3D3D3D3D19
:1033E4003D3D3D3D3D3D3D3D3D3D3D3D3D3D3D3D09
:1033F4003D3D3D3D3D5445535420333D3D3D3D3DD4
:103404003D3D3D3D3D3D3D3D3D3D3D3D3D3D3D3DE8
:103414003D3D3D3D3D3D3D3D3D3D3D3D3D3D3D3DD8
:103424003D3D3D3D3D0D0A000D0A093D3D3D3D3DFF
:103434003D3D3D3D3D3D3D3D3D3D3D3D3D3D3D3DB8
:103444003D3D3D3D3D3D3D3D3D3D3D3D3D3D3D3DA8
:103454003D3D3D3D3D5445535420343D3D3D3D3D72
:103464003D3D3D3D3D3D3D3D3D3D3D3D3D3D3D3D88
:103474003D3D3D3D3D3D3D3D3D3D3D3D3D3D3D3D78
:103484003D3D3D3D3D0D0A000D092A2A2A2A2A2ADE
:103494002A2A2A2A2A2A2A2A2A2A2A2A2A2A2A2A88
:1034A4002A2A2A2A2A2A2A2A2A2A2A2A2A2A2A2A78
:1034B4002A2A2A43484143484120544553542A2A3E
:1034C4002A2A2A2A2A2A2A2A2A2A2A2A2A2A2A2A58
:1034D4002A2A2A2A2A2A2A2A2A2A2A2A2A2A2A2A48
:1034E4002A2A2A2A0D0A00000D0A095B416C6C2065
:1034F4007A65726F732C203132382D626974206BB7
:1035040065792C203820726F756E64735D0D0A0026
:103514000D0A095B416C6C207A65726F732C203143
:1035240032382D626974206B65792C203132207217
:103534006F756E64735D0D0A000000000D0A095B6F
:10354400416C6C207A65726F732C203132382D6295
:103554006974206B65792C20323020726F756E642B
:10356400735D0D0A000000000D0A095B416C6C20BC
:103574007A65726F732C203235362D626974206B34
:1035840065792C203820726F756E64735D0D0A00A6
:103594000D0A095B416C6C207A65726F732C2032C2
:1035A40035362D626974206B65792C203132207296
:1035B4006F756E64735D0D0A000000000D0A095BEF
:1035C400416C6C207A65726F732C203235362D6213
:1035D4006974206B65792C20323020726F756E64AB
:1035E400735D0D0A000000000D0A095B3235362DAB
:1035F400626974206B65792C203820726F756E6453
:10360400735D0D0A000000000D0A095B416C6C201B
:103614006269747320696E206B657920616E642021
:10362400495620617265207365742E20313238202A
:10363400626974206B65792C203820726F756E6412
:10364400735D0D0A000000000D092A2A2A2A2A2A7D
:103654002A2A2A2A2A2A2A2A2A2A2A2A2A2A2A2AC6
:103664002A2A2A2A2A2A2A2A2A2A2A2A5052494E25
:10367400434520544553542A2A2A2A2A2A2A2A2AE4
:103684002A2A2A2A2A2A2A2A2A2A2A2A2A2A2A2A96
:103694002A2A2A2A2A2A0D0A000000000D0A093DB6
:1036A4003D3D3D3D3D3D3D3D3D3D3D3D3D3D3D3D46
:1036B4003D3D3D3D3D3D3D3D3D3D3D3D3D3D3D3D36
:1036C4003D3D5445535420313D3D3D3D3D3D3D3D03
:1036D4003D3D3D3D3D3D3D3D3D3D3D3D3D3D3D3D16
:1036E4003D3D3D3D3D3D3D3D3D3D3D0D0A00000020
:1036F4000D0A093D3D3D3D3D3D3D3D3D3D3D3D3D8D
:103704003D3D3D3D3D3D3D3D3D3D3D3D3D3D3D3DE5
:103714003D3D3D3D3D3D5445535420323D3D3D3DB1
:103724003D3D3D3D3D3D3D3D3D3D3D3D3D3D3D3DC5
:103734003D3D3D3D3D3D3D3D3D3D3D3D3D3D3D0DE5
:103744000A0000000D092A2A2A2A2A2A2A2A2A2AB1
:103754002A2A2A2A2A2A2A2A2A2A2A2A2A2A2A2AC5
:103764002A2A2A2A50524553454E5420544553542C
:103774002A2A2A2A2A2A2A2A2A2A2A2A2A2A2A2AA5
:103784002A2A2A2A2A2A2A2A2A2A2A2A2A2A2A2A95
:103794002A2A0D0A000000000D0A093D3D3D3D3D69
:1037A4003D3D3D3D3D3D3D3D3D3D3D3D3D3D3D3D45
:1037B4003D3D3D3D3D3D3D3D3D3D3D3D3D54455300
:1037C4005420313D3D3D3D3D3D3D3D3D3D3D3D3D37
:1037D4003D3D3D3D3D3D3D3D3D3D3D3D3D3D3D3D15
:1037E4003D3D3D3D3D3D3D0D0A0000000D0A093DB6
:1037F4003D3D3D3D3D3D3D3D3D3D3D3D3D3D3D3DF5
:103804003D3D3D3D3D3D3D3D3D3D3D3D3D3D3D3DE4
:103814003D5445535420323D3D3D3D3D3D3D3D3DB0
:103824003D3D3D3D3D3D3D3D3D3D3D3D3D3D3D3DC4
:103834003D3D3D3D3D3D3D3D3D3D3D0D0A000000CE
:103844000D092A2A2A2A2A2A2A2A2A2A2A2A2A2A12
:103854002A2A2A2A2A2A2A2A2A2A2A2A2A444D5F52
:1038640050524553454E5420544553542A2A2A2A2B
:103874002A2A2A2A2A2A2A2A2A2A2A2A2A2A2A2AA4
:103884002A2A2A2A2A2A2A2A2A2A2A2A2A2A0D0AD1
:10389400000000000D0A093D3D3D3D3D3D3D3D3DDF
:1038A4003D3D3D3D3D3D3D3D3D3D3D3D3D3D3D3D44
:1038B4003D3D3D3D3D3D3D3D3D5445535420333D0F
:1038C4003D3D3D3D3D3D3D3D3D3D3D3D3D3D3D3D24
:1038D4003D3D3D3D3D3D3D3D3D3D3D3D3D3D3D3D14
:1038E4003D3D3D0D0A000000600000002003000083
:1038F40070000000F0020000020000000D02000051
:103904000C000000EC01000008000000460000006C
:103914001000000040000000020000003000000021
:10392400080000002800000008000000B8000000A3
:1039340010000000B000000002000000820000003F
:10394400060000007E0000000D093D3D3D3D3D3D6B
:103954003D3D3D3D3D3D3D3D3D3D3D3D3D3D3D3D93
:103964003D3D3D3D3D50524553454E5420454E430B
:103974005259505454494F4E3D3D3D3D3D3D3D3DD2
:103984003D3D3D3D3D3D3D3D3D3D3D3D3D3D3D3D63
:103994003D3D3D3D3D3D0D0A000000000D093D3D0E
:1039A4003D3D3D3D3D3D3D3D3D3D3D3D3D3D3D3D43
:1039B4003D3D3D3D3D3D3D3D3D50524553454E54BD
:1039C400204445435259505454494F4E3D3D3D3D8A
:1039D4003D3D3D3D3D3D3D3D3D3D3D3D3D3D3D3D13
:1039E4003D3D3D3D3D3D3D3D3D3D0D0A000000005A
:1039F4000D0A00000D09504C41494E5F544558547E
:103A0400202836342D62697429203A2000000000F1
:103A14004B4559202838302D62697429203A2000FA
:103A2400524553554C54202836342D62697429204C
:103A34003A20000060000000200300007000000035
:103A4400F0020000020000000D0200000C00000063
:103A5400EC01000008000000460000001000000017
:103A640040000000020000003000000008000000D8
:103A74002800000008000000B8000000100000004A
:103A8400B0000000020000008200000006000000F8
:103A94007E0000000D093D3D3D3D3D3D3D3D3D3D2C
:103AA4003D3D3D3D3D3D3D3D3D3D3D3D3D3D3D3D42
:103AB4003D444D5F50524553454E54204841534870
:103AC4003D3D3D3D3D3D3D3D3D3D3D3D3D3D3D3D22
:103AD4003D3D3D3D3D3D3D3D3D3D3D3D3D3D3D3D12
:103AE4003D3D0D0A000000000D0A00000D09504C78
:103AF40041494E5F54455854202836342D62697428
:103B040029203A20000000004B4559202838302D48
:103B140062697429203A2000524553554C54202898
:103B240036342D62697429203A20000060000000B8
:103B34002003000070000000F002000002000000FA
:103B44000D0200000C000000EC0100000800000061
:103B540046000000100000004000000002000000C9
:103B640030000000080000002800000008000000E9
:103B7400B800000010000000B000000002000000C7
:103B840082000000060000007E000000200000000B
:103B940030313233343536373839616263646566BF
:103BA400000000000D0900000D0A00000D0920208E
:103BB4002020202020202020202020202020202001
:103BC40020000000600000002003000070000000DE
:103BD400F0020000020000000D0200000C000000D2
:103BE400EC01000008000000460000001000000086
:103BF4004000000002000000300000000800000047
:103C04002800000008000000B800000010000000B8
:103C1400B000000002000000820000000600000066
:103C24007E0000000D0A00000D09504C41494E5F12
:103C34005445585420283132382D62697429203A69
:103C4400200000004B455920283235362D62697416
:103C5400293A2000524553554C5420283132382DEE
:103C640062697429203A20000D09504C41494E5F85
:103C74005445585420283237322D62697429203A29
:103C8400200000000D0920202020202020202020BA
:103C94002020202020202020202020202000000080
:103CA400504C41494E5F54455854202838323030E6
:103CB4002D62697429203A20307866662E2E666655
:103CC40030310D0A094B455920283235362D6269A9
:053CD40074293A2000F4
:043CDC0000000000E4
:0200000480007A
:100000006F00400B130000001300000013000000FD
:100010001300000013000000130000001300000094
:10002000232E11FE232C51FE232A61FE232871FE6C
:100030002326A1FE2324B1FE2322C1FE2320D1FECC
:10004000232EE1FC232CF1FC232A01FD232811FDA2
:100050002326C1FD2324D1FD2322E1FD2320F1FD30
:10006000130101FC971000C0E780404A8320C103C0
:100070008322810303234103832301030325C10258
:100080008325810203264102832601020327C10141
:10009000832781010328410183280101032EC10028
:1000A000832E8100032F4100832F010013010104DF
:1000B00073002030974100C09381C14217110000A6
:1000C00013014188174500C01305C5C1974500C0FD
:1000D000938545C16308B50023200500130545003D
:1000E0006FF05FFF174500C0130585BF1301C1FF07
:1000F000974500C09385C5BE630EB50083260500F5
:10010000130545002320A100E78006000325010018
:100110006FF01FFE1301410037150000130505881D
:1001200073104530372500001305858073100530A6
:0C013000971000C0E78040BF6F00000087
:040000058000000077
:00000001FF
