:020000044000BA
:10000000130101FE232E8100130401022326A4FE06
:100010008327C4FE23A007008327C4FE23A4070070
:10002000130000000324C1011301010267800000D6
:10003000130101FE232E8100130401022326A4FED6
:10004000130000000324C1011301010267800000B6
:10005000130101FE232E8100130401022326A4FEB6
:100060008327C4FE23A207008327C4FE1307F0FFE3
:1000700023A0E700130000000324C10113010102C3
:1000800067800000130101FE232E8100130401028A
:100090002326A4FE8327C4FE83A7470093D7070126
:1000A00093F7F70F138507000324C1011301010221
:1000B00067800000130101FE232E8100130401025A
:1000C0002326A4FE8327C4FE83A7470093D7870176
:1000D000138507000324C10113010102678000009A
:1000E000130101FE232E1100232C810013040102B1
:1000F0002326A4FE2324B4FE130000000325C4FE1F
:10010000EFF05FF893070500E38A07FE8327C4FE3C
:10011000032784FE23A0E700130000008320C10111
:10012000032481011301010267800000130101FE15
:10013000232E8100130401022326A4FE2324B4FEEF
:10014000832784FE03A7C7008327C4FE23A4E700F8
:10015000832784FE83A707001387F7FF832784FE86
:1001600083A74700939787003367F700832784FEB0
:1001700083A78700939707013367F7008327C4FE9F
:1001800023A6E700130000000324C10113010102AC
:1001900067800000130101FE232E81001304010279
:1001A0002326A4FE8327C4FE83A7070093F7270016
:1001B000B337F00093F7F70F138507000324C1014D
:1001C0001301010267800000130101FE232E81004C
:1001D000130401022326A4FE8327C4FE1307100084
:1001E00023A0E700130000000324C1011301010252
:1001F00067800000130101FE232E1100232C8100D3
:10020000130401022326A4FE8327C4FE23A00700B3
:10021000130000000325C4FEEFF0DFF7930705008D
:10022000E39A07FE13000000130000008320C101C1
:10023000032481011301010267800000130101FE04
:10024000232E8100130401022326A4FE2324B4FEDE
:10025000B72700F0032784FE23A4E700B72700F0A8
:100260001307100023A2E700B72700F00327C4FEFE
:1002700023A6E700B72700F01307100023A0E7002C
:10028000B72700F023A00700130000000324C101DA
:100290001301010267800000130101FD2326810282
:1002A00013040103232EA4FCB72700F00327C4FD89
:1002B00023A4E700B72700F023A20700B72700F028
:1002C0001307100023A0E700B72700F083A707015A
:1002D0002326F4FEB72700F023A007008327C4FEDF
:1002E000138507000324C102130101036780000086
:1002F000130101FE232E1100232C8100232A9100DB
:10030000130401022326A4FE2324B4FE2322C4FEE8
:100310002320D4FE9305A0000325C4FEEFF01FF2B6
:10032000832744FE9387470083A7070093051002A5
:1003300013850700EFF09FF0832744FE83A7070093
:100340009305000213850700EFF05FEF832784FE1B
:100350009387C70083A70700930530011385070023
:10036000EFF0DFED832784FE9387870083A70700E4
:100370009305200113850700EFF05FEC832784FECF
:100380009387470083A70700930510011385070093
:10039000EFF0DFEA832784FE83A7070093050001BF
:1003A00013850700EFF09FE9930580001305100007
:1003B000EFF0DFE81300000013059000EFF0DFED31
:1003C00093070500E38A07FE832704FE9384470012
:1003D00013051003EFF05FEC9307050023A0F40072
:1003E00013050003EFF05FEB13070500832704FEFE
:1003F00023A0E7000327C4FE93071000631AF70049
:10040000B7270040138507AFEF10C0356F0000011C
:10041000B7270040138507B4EF10C034B72700405A
:10042000138507B9EF100034832544FEB727004039
:10043000138547B9EF100049832584FEB727004094
:100440001385C7BAEF10404E832504FEB72700403E
:10045000138507BCEF100047B7270040138547BD41
:10046000EF104030130000008320C10103248101FC
:10047000832441011301010267800000130101FE82
:10048000232E8100130401022326A4FE8327C4FE29
:1004900023A007008327C4FE23A407001300000045
:1004A0000324C1011301010267800000130101FE52
:1004B000232E8100130401022326A4FE1300000052
:1004C0000324C1011301010267800000130101FE32
:1004D000232E8100130401022326A4FE8327C4FED9
:1004E00023A207008327C4FE1307F0FF23A0E70021
:1004F000130000000324C101130101026780000002
:10050000130101FE232E8100130401022326A4FE01
:100510008327C4FE83A7470093D7070193F7F70FFC
:10052000138507000324C101130101026780000045
:10053000130101FE232E8100130401022326A4FED1
:100540008327C4FE83A7470093D78701138507003D
:100550000324C1011301010267800000130101FEA1
:10056000232E1100232C8100130401022326A4FE54
:100570002324B4FE130000000325C4FEEFF05FF84F
:1005800093070500E38A07FE8327C4FE032784FE42
:1005900023A0E700130000008320C1010324810190
:1005A0001301010267800000130101FE232E810068
:1005B000130401022326A4FE2324B4FE832784FE11
:1005C00003A7C7008327C4FE23A4E700832784FE74
:1005D00083A707001387F7FF832784FE83A74700BD
:1005E000939787003367F700832784FE83A78700EC
:1005F000939707013367F7008327C4FE23A6E7001C
:10060000130000000324C1011301010267800000F0
:10061000130101FE232E8100130401022326A4FEF0
:100620008327C4FE83A7070093F72700B337F000A2
:1006300093F7F70F138507000324C101130101028B
:1006400067800000130101FE232E810013040102C4
:100650002326A4FE8327C4FE1307100023A0E7006F
:10066000130000000324C101130101026780000090
:10067000130101FE232E1100232C8100130401021B
:100680002326A4FE8327C4FE23A007001300000036
:100690000325C4FEEFF0DFF793070500E39A07FE9A
:1006A00013000000130000008320C1010324810116
:1006B0001301010267800000130101F723261108CE
:1006C0002324810813040109930780002320F4FEEA
:1006D000232204FE232404FE930750032326F4FE62
:1006E000930704FE93850700370501F0EFF0DFEB79
:1006F000B7270040138587C8EF10C006B727004012
:10070000138587CDEF100006B7270040138587D2E9
:10071000EF104005B7270040138587C8EF1080040D
:10072000232804FC232A04FC232C04FC232E04FC91
:10073000232404FC232604FC232004FC232204FCA1
:10074000B7270040138587D7EF10C001B7472301B3
:10075000938777562326F4FCB7D7AB899387F7DEC8
:100760002324F4FCB727110093873723232EF4FCAE
:10077000B767554493877767232CF4FCB7B79988FC
:100780009387B7AB232AF4FCB7F7DDCC9387F7EF59
:100790002328F4FC930604FC130784FC930704FD50
:1007A000130607009385070013051000EFF05FB4F0
:1007B000B72700401385C7DCEF00D07A232604FC5E
:1007C000232404FC232E04FC232C04FC232A04FCF5
:1007D000232804FC930604FC130784FC930704FD00
:1007E000130607009385070013051000EFF05FB0B4
:1007F000B7270040138507E2EF00D076B7E7C4695A
:100800009387870D2326F4FCB7077B6A93870743FA
:100810002324F4FCB7B7CDD893870778232EF4FCB4
:10082000B7C7B4709387A755232CF4FCB7678681AC
:100830009387A75A232AF4FCB7E7020D9387A7FDF5
:100840002328F4FC930604FC130784FC930704FD9F
:10085000130607009385070013051000EFF05FA94A
:10086000B7270040138547E7EF00D06FB7B7C643FF
:10087000938767252326F4FCB7E79DD79387877E68
:100880002324F4FCB7B7CDD893870778232EF4FC44
:10089000B7C7B4709387A755232CF4FCB76786813C
:1008A0009387A75A232AF4FCB7E7020D9387A7FD85
:1008B0002328F4FC930604FC130784FC930704FD2F
:1008C000130607009385070013050000EFF05FA2F1
:1008D000B7270040138587C8EF00D068B7270040CE
:1008E000138587ECEF001068B7270040138587D287
:1008F000EF005067B7270040138587C8EF00906668
:10090000232804FA232A04FA232C04FA232E04FAB7
:10091000232004FA232204FA232404FA232604FAC7
:10092000232804F8232A04F8232C04F8232E04F89F
:10093000B7270040138587F1EF00D062B737343313
:10094000938767532326F4FAB737303993872713F1
:100950002324F4FAB7373635938787732322F4FAC2
:10096000B7373231938747332320F4FAB737363716
:1009700093874753232EF4FAB747303193878793F1
:10098000232CF4FAB737343593872733232AF4FA24
:10099000B7373839938767732328F4FA930604F935
:1009A000130704FA930704FB130607009385070057
:1009B00013051000EF008067B72700401385C7F6C6
:1009C000EF00505AB7E71EFD9387476B2326F4FAD2
:1009D000B7C72FBD938757852324F4FAB737286408
:1009E0009387A7182322F4FAB7976F6E938737730C
:1009F0002320F4FAB737343393876753232EF4FA5E
:100A0000B737303993872713232CF4FAB7373635A5
:100A100093878773232AF4FAB737323193874733A2
:100A20002328F4FA930604F9130704FA930704FB46
:100A3000130607009385070013050000EF00005F11
:100A4000B7270040138507FCEF00D051B717937309
:100A50009387A7722326F4FAB7873DE9938717E1B6
:100A60002324F4FAB7A7402E938767F92322F4FAD8
:100A7000B7C7C16B938727EE2320F4FAB757CF0986
:100A80009387C7F3232EF4FAB717F7AB93878758EA
:100A9000232CF4FAB7D7AE289387672A232AF4FACF
:100AA000B7177E2B938767512328F4FA930604F92E
:100AB000130704FA930704FB130607009385070046
:100AC00013051000EF008056B7270040138547013B
:100AD000EF005049B7F76624938777F92326F4FA95
:100AE000B7D79EA8938737AF2324F4FAB7377A0D88
:100AF000938707662322F4FAB787D73A938747BBD1
:100B00002320F4FAB757CF099387C7F3232EF4FABB
:100B1000B717F7AB93878758232CF4FAB7D7AE28CB
:100B20009387672A232AF4FAB7177E2B9387675196
:100B30002328F4FA930604F9130704FA930704FB35
:100B4000130607009385070013050000EF00004E11
:100B5000B727004013858706EF00D040232804F60E
:100B6000232A04F6232C04F6232E04F6232004F86B
:100B7000232204F8232404F8232604F8B7179373D8
:100B80009387A7722326F4FAB7873DE9938717E185
:100B90002324F4FAB7A7402E938767F92322F4FAA7
:100BA000B7C7C16B938727EE2320F4FAB7E7140980
:100BB000938747FF2326F4F8B717982D9387370AB2
:100BC0002324F4F8B717613B9387778D2322F4F839
:100BD000B737351F938777C02320F4F8B7777D8523
:100BE00093871778232EF4F6B7B7732B938707EF05
:100BF000232CF4F6B777CA159387E71B232AF4F65C
:100C0000B7F73D60938707B12328F4F6930604F9FC
:100C1000130704FA930704F71306070093850700E8
:100C200013051000EF00C066B72700401385070DBD
:100C3000EF005033B787B13D9387871F2326F4FA1F
:100C4000B7674B069387E7A72324F4FAB7A7D2B573
:100C50009387C7032322F4FAB7D7EEF39387D71B02
:100C60002320F4FAB7E71409938747FF2326F4F803
:100C7000B717982D9387370A2324F4F8B717613BE9
:100C80009387778D2322F4F8B737351F938777C082
:100C90002320F4F8B7777D8593871778232EF4F611
:100CA000B7B7732B938707EF232CF4F6B777CA15E2
:100CB0009387E71B232AF4F6B7F73D60938707B1C4
:100CC0002328F4F6930604F9130704FA930704F7AC
:100CD000130607009385070013050000EF00405B33
:100CE00093070000138507008320C10803248108AF
:100CF0001301010967800000130101FF2326810011
:100D000013040101130000000324C10013010101B9
:100D100067800000130101FE232E810013040102ED
:100D20002326A4FE8327C4FE23A007008327C4FE36
:100D300023A40700130000000324C10113010102D2
:100D400067800000130101FE232E810013040102BD
:100D50002326A4FE130000000324C1011301010295
:100D600067800000130101FE232E8100130401029D
:100D70002326A4FE8327C4FE23A207008327C4FEE4
:100D80001307F0FF23A0E700130000000324C101B4
:100D90001301010267800000130101FE232E810070
:100DA000130401022326A4FE8327C4FE83A7470061
:100DB00093D7070193F7F70F138507000324C101A9
:100DC0001301010267800000130101FE232E810040
:100DD000130401022326A4FE8327C4FE83A7470031
:100DE00093D78701138507000324C1011301010272
:100DF00067800000130101FE232E1100232C8100C7
:100E0000130401022326A4FE2324B4FE13000000D1
:100E10000325C4FEEFF05FF893070500E38A07FEA1
:100E20008327C4FE032784FE23A0E70013000000ED
:100E30008320C101032481011301010267800000A6
:100E4000130101FE232E8100130401022326A4FEB8
:100E50002324B4FE832784FE03A7C7008327C4FE90
:100E600023A4E700832784FE83A707001387F7FFE7
:100E7000832784FE83A74700939787003367F70093
:100E8000832784FE83A78700939707013367F700C2
:100E90008327C4FE23A6E700130000000324C1013A
:100EA0001301010267800000130101FE232E81005F
:100EB000130401022326A4FE8327C4FE83A7070090
:100EC00093F72700B337F00093F7F70F1385070068
:100ED0000324C1011301010267800000130101FE18
:100EE000232E8100130401022326A4FE8327C4FEBF
:100EF0001307100023A0E700130000000324C10122
:100F00001301010267800000130101FE232E11006E
:100F1000232C8100130401022326A4FE8327C4FE90
:100F200023A00700130000000325C4FEEFF0DFF745
:100F300093070500E39A07FE13000000130000006A
:100F40008320C10103248101130101026780000095
:100F5000130101FE232E8100130401022326A4FEA7
:100F60002324B4FEB72700F093870740032784FEAD
:100F700023A4E700B72700F093870740130710006A
:100F800023A2E700B72700F0938707400327C4FE9A
:100F900023A6E700B72700F0938707401307100048
:100FA00023A0E700B72700F09387074023A007009E
:100FB000130000000324C101130101026780000037
:100FC000130101FD2326810213040103232EA4FC37
:100FD000B72700F0938707400327C4FD23A4E70049
:100FE000B72700F09387074023A20700B72700F038
:100FF000938707401307100023A0E700B72700F0EE
:101000009387074083A707012326F4FEB72700F044
:101010009387074023A007008327C4FE138507009A
:101020000324C1021301010367800000130101FDC5
:101030002326110223248102232291021304010397
:1010400093070500232CB4FC232AC4FC2328D4FCDA
:10105000A30FF4FC9305700113050000EFF05FEFA0
:101060009305600113050000EFF09FEE930550011A
:1010700013050000EFF0DFED9305400113050000BC
:10108000EFF01FED832784FD9387C70083A7070038
:101090009305300113850700EFF09FEB832784FD54
:1010A0009387870083A70700930520011385070016
:1010B000EFF01FEA832784FD9387470083A707008B
:1010C0009305100113850700EFF09FE8832784FD47
:1010D00083A707009305000113850700EFF05FE782
:1010E0009305A00013050000EFF09FE69305800034
:1010F00013051000EFF0DFE513000000130590006A
:10110000EFF01FEC93070500E38A07FE832744FDF9
:101110009387C70083A70700930530021385070054
:10112000EFF01FE3832744FD9387870083A7070021
:101130009305200213850700EFF09FE1832744FD0C
:101140009387470083A707009305100213850700C4
:10115000EFF01FE0832744FD83A7070093050002FB
:1011600013850700EFF0DFDEA30704FE0347F4FD5D
:10117000930710006318F70093071000A307F4FE0D
:101180006F008000A30704FE8347F4FE9305A000D0
:1011900013850700EFF0DFDB9305800013052000C7
:1011A000EFF01FDB1300000013059000EFF05FE18C
:1011B00093070500E38A07FE832704FD9384C70095
:1011C00013053003EFF0DFDF9307050023A0F400E1
:1011D000832704FD9384870013052003EFF05FDE6F
:1011E0009307050023A0F400832704FD93844700A0
:1011F00013051003EFF0DFDC9307050023A0F400D4
:1012000013050003EFF0DFDB13070500832704FD60
:1012100023A0E7000347F4FD93071000631AF700CB
:10122000B727004013858719EF00C0536F000001F6
:10123000B72700401385871EEF00C052832544FD69
:10124000B727004013858723EF00006E832584FDB8
:10125000B727004013854725EF00006D832504FD67
:10126000B727004013858726EF00006CB7270040A2
:101270001385C727EF00004F130000008320C10231
:1012800003248102832441021301010367800000CB
:10129000130101FD2326110223248102232291023E
:1012A0001304010393070500232CB4FC232AC4FC78
:1012B0002328D4FCA30FF4FC832784FD9387C70164
:1012C00083A707009305700113850700EFF05FC83F
:1012D000832784FD9387870183A707009305600117
:1012E00013850700EFF0DFC6832784FD938747014E
:1012F00083A707009305500113850700EFF05FC532
:10130000832784FD9387070183A707009305400186
:1013100013850700EFF0DFC3832784FD9387C700A1
:1013200083A707009305300113850700EFF05FC224
:10133000832784FD9387870083A7070093052001F7
:1013400013850700EFF0DFC0832784FD93874700F4
:1013500083A707009305100113850700EFF05FBF17
:10136000832784FD83A707009305000113850700E9
:10137000EFF01FBE9305A00013052000EFF05FBD46
:101380009305800013051000EFF09FBC13000000D0
:1013900013059000EFF0DFC293070500E38A07FE14
:1013A000832744FD9387C70083A707009305300276
:1013B00013850700EFF0DFB9832744FD938787008B
:1013C00083A707009305200213850700EFF05FB89D
:1013D000832744FD9387470083A7070093051002E6
:1013E00013850700EFF0DFB6832744FD83A70700CE
:1013F0009305000213850700EFF09FB5A30704FED5
:101400000347F4FD930710006318F70093073000BB
:10141000A307F4FE6F00C00093072000A307F4FEAB
:101420008347F4FE9305A00013850700EFF05FB239
:101430009305800013052000EFF09FB1130000001A
:1014400013059000EFF0DFB793070500E38A07FE6E
:10145000832704FD9384C70013053003EFF05FB6C4
:101460009307050023A0F400832704FD93848700DD
:1014700013052003EFF0DFB49307050023A0F40069
:10148000832704FD9384470013051003EFF05FB337
:101490009307050023A0F40013050003EFF05FB2EB
:1014A00013070500832704FD23A0E7000347F4FD8D
:1014B00093071000631AF700B72700401385072D24
:1014C000EF00402A6F000001B72700401385473323
:1014D000EF004029832544FDB7270040138587236B
:1014E000EF008044832584FDB727004013858739AA
:1014F000EF00404C832504FDB72700401385872665
:10150000EF008042B72700401385C73AEF008025DF
:10151000130000008320C1020324810283244102BE
:101520001301010367800000130101FE232E8100D7
:10153000130401022326A4FE8327C4FE23A0070070
:101540008327C4FE23A40700130000000324C10165
:101550001301010267800000130101FE232E8100A8
:10156000130401022326A4FE130000000324C1017A
:101570001301010267800000130101FE232E810088
:10158000130401022326A4FE8327C4FE23A207001E
:101590008327C4FE1307F0FF23A0E7001300000019
:1015A0000324C1011301010267800000130101FE41
:1015B000232E8100130401022326A4FE8327C4FEE8
:1015C00083A7470093D7070193F7F70F1385070009
:1015D0000324C1011301010267800000130101FE11
:1015E000232E8100130401022326A4FE8327C4FEB8
:1015F00083A7470093D78701138507000324C10100
:101600001301010267800000130101FE232E110067
:10161000232C8100130401022326A4FE2324B4FEFC
:10162000130000000325C4FEEFF05FF893070500E8
:10163000E38A07FE8327C4FE032784FE23A0E70076
:10164000130000008320C101032481011301010262
:1016500067800000130101FE232E810013040102A4
:101660002326A4FE2324B4FE832784FE03A7C700F9
:101670008327C4FE23A4E700832784FE83A70700F3
:101680001387F7FF832784FE83A74700939787007C
:101690003367F700832784FE83A7870093970701AA
:1016A0003367F7008327C4FE23A6E700130000007A
:1016B0000324C1011301010267800000130101FE30
:1016C000232E8100130401022326A4FE8327C4FED7
:1016D00083A7070093F72700B337F00093F7F70FBE
:1016E000138507000324C101130101026780000074
:1016F000130101FE232E8100130401022326A4FE00
:101700008327C4FE1307100023A0E7001300000086
:101710000324C1011301010267800000130101FECF
:10172000232E1100232C8100130401022326A4FE82
:101730008327C4FE23A00700130000000325C4FE76
:10174000EFF0DFF793070500E39A07FE13000000B0
:10175000130000008320C101032481011301010251
:1017600067800000130101FE232E1100232C81004D
:10177000130401022326A4FE6F0000028327C4FE87
:10178000138717002326E4FE83C70700938507000D
:10179000370501F0EFF05FE78327C4FE83C707003A
:1017A000E39E07FC13000000130000008320C1012A
:1017B000032481011301010267800000130101FC71
:1017C000232E1102232C8102130401042326A4FCDE
:1017D000232604FE232E04FC232004FE8327C4FCBE
:1017E00093F7F7003727004013078747B307F70041
:1017F00003C707008327C4FE930604FFB387F600E0
:101800002386E7FE8327C4FE938717002326F4FE72
:101810008327C4FC93D747002326F4FC8327C4FC0A
:10182000E39E07FA0327C4FE9307700063CEE70226
:10183000930770002324F4FE6F0040021307000397
:10184000832784FE930604FFB387F6002386E7FE12
:10185000832784FE9387F7FF2324F4FE032784FE67
:101860008327C4FEE35CF7FC930770002322F4FE99
:101870006F00C002832744FE130704FFB307F7007D
:1018800083C7C7FE93850700370501F0EFF0DFD768
:10189000832744FE9387F7FF2322F4FE832744FE29
:1018A000E3DA07FCB727004013854747EFF09FEBCB
:1018B000130000008320C1030324810313010104EA
:1018C00067800000130101FE232E1100232C8100EC
:1018D000130401022326A4FE2324B4FE0325C4FE20
:1018E000EFF05FE8832784FE9387470083A7070014
:1018F00013850700EFF09FEC832784FE83A7070082
:1019000013850700EFF09FEBB72700401385C7480A
:10191000EFF05FE5130000008320C1010324810183
:101920001301010267800000130101FE232E110044
:10193000232C8100130401022326A4FE2324B4FED9
:101940000325C4FEEFF01FE2832784FE9387C700C0
:1019500083A7070013850700EFF05FE6832784FE67
:101960009387870083A7070013850700EFF01FE523
:10197000832784FE9387470083A70700138507000A
:10198000EFF0DFE3832784FE83A7070013850700BA
:10199000EFF0DFE2B72700401385C748EFF09FDC88
:1019A000130000008320C1010324810113010102FF
:1019B00067800000130101FE232E1100232C8100FB
:1019C000130401022326A4FE2324B4FE0325C4FE2F
:1019D000EFF05FD9832784FE9387C70183A70700B1
:1019E00013850700EFF09FDD832784FE938787012F
:1019F00083A7070013850700EFF05FDC832784FED1
:101A00009387470183A7070013850700EFF01FDBCB
:101A1000832784FE9387070183A7070013850700A8
:101A2000EFF0DFD9832784FE9387C70083A70700E1
:101A300013850700EFF09FD8832784FE93878700E4
:101A400083A7070013850700EFF05FD7832784FE85
:101A50009387470083A7070013850700EFF01FD681
:101A6000832784FE83A7070013850700EFF01FD5A7
:101A7000B72700401385C748EFF0DFCE1300000002
:101A80008320C1010324810113010102678000004A
:101A9000600000002003000070000000F002000061
:101AA000020000000D0200000C000000EC0100002C
:101AB0000800000046000000100000004000000088
:101AC00002000000300000000800000028000000B4
:101AD00008000000B800000010000000B000000086
:101AE0000200000082000000060000007E000000EE
:101AF0003D3D3D3D3D3D3D3D3D3D3D3D3D3D3D3D16
:101B00003D3D3D3D3D3D3D3D3D3D3D3D3D505249D1
:101B10004E434520454E435259505454494F4E3D33
:101B20003D3D3D3D3D3D3D3D3D3D3D3D3D3D3D3DE5
:101B30003D3D3D3D3D3D3D3D3D3D3D3D0D0A0000B2
:101B40003D3D3D3D3D3D3D3D3D3D3D3D3D3D3D3DC5
:101B50003D3D3D3D3D3D3D3D3D3D3D3D3D50524981
:101B60004E4345204445435259505454494F4E3DED
:101B70003D3D3D3D3D3D3D3D3D3D3D3D3D3D3D3D95
:101B80003D3D3D3D3D3D3D3D3D3D3D3D0D0A000062
:101B90000D0A0000504C41494E5F544558542028CE
:101BA00036342D62697429203A2000004B455920B3
:101BB000283132382D62697429203A200000000053
:101BC000524553554C54202836342D6269742920CF
:101BD0003A2000000D0A3D3D3D3D3D3D3D3D3D3D32
:101BE0003D3D3D3D3D3D3D3D3D3D3D3D3D3D3D3D25
:101BF0003D3D3D3D3D3D3D3D3D3D3D3D3D3D3D3D15
:101C00003D3D3D3D3D3D3D3D3D3D3D3D3D3D3D3D04
:101C10003D3D3D3D3D3D3D3D3D3D3D3D3D3D3D3DF4
:101C20003D3D0D0A000000006000000020030000A0
:101C300070000000F0020000020000000D02000031
:101C40000C000000EC01000008000000460000004D
:101C50001000000040000000020000003000000002
:101C6000080000002800000008000000B800000084
:101C700010000000B0000000020000008200000020
:101C8000060000007E0000003D3D3D3D3D3D3D3DE8
:101C90003D3D3D3D3D3D3D3D3D3D3D3D3D3D3D3D74
:101CA0003D3D3D3D3D3D3D3D3D3D3D3D3D3D3D3D64
:101CB0003D3D3D3D3D3D3D3D3D3D3D3D3D3D3D3D54
:101CC0003D3D3D3D3D3D3D3D3D3D3D3D3D3D3D3D44
:101CD0003D3D3D3D0D0A00003D3D3D3D3D3D3D3D11
:101CE0003D3D3D3D3D3D3D3D3D3D3D3D3D3D3D3D24
:101CF0003D3D3D3D3D3D3D5052494E4345205445BF
:101D000053543D3D3D3D3D3D3D3D3D3D3D3D3D3DD6
:101D10003D3D3D3D3D3D3D3D3D3D3D3D3D3D3D3DF3
:101D20003D3D3D3D0D0A00003D3D3D3D3D3D3D3DC0
:101D30003D3D3D3D3D3D3D3D3D3D3D3D3D3D3D3DD3
:101D40003D4C4520445559204C494E48202D2031CA
:101D5000383230303135372D3D3D3D3D3D3D3D3D07
:101D60003D3D3D3D3D3D3D3D3D3D3D3D3D3D3D3DA3
:101D70003D3D3D3D0D0A00000D0A3D3D3D3D3D3DD3
:101D80003D3D3D3D3D3D3D3D3D3D3D3D3D3D3D3D83
:101D90003D3D3D3D3D3D3D3D3D3D3D3D3D5445533E
:101DA0005420313D3D3D3D3D3D3D3D3D3D3D3D3D75
:101DB0003D3D3D3D3D3D3D3D3D3D3D3D3D3D3D3D53
:101DC0003D3D3D3D3D3D0D0A000000000D0A3D3DFD
:101DD0003D3D3D3D3D3D3D3D3D3D3D3D3D3D3D3D33
:101DE0003D3D3D3D3D3D3D3D3D3D3D3D3D3D3D3D23
:101DF0003D5445535420323D3D3D3D3D3D3D3D3DEF
:101E00003D3D3D3D3D3D3D3D3D3D3D3D3D3D3D3D02
:101E10003D3D3D3D3D3D3D3D3D3D0D0A0000000049
:101E20000D0A3D3D3D3D3D3D3D3D3D3D3D3D3D3D45
:101E30003D3D3D3D3D3D3D3D3D3D3D3D3D3D3D3DD2
:101E40003D3D3D3D3D5445535420333D3D3D3D3D9D
:101E50003D3D3D3D3D3D3D3D3D3D3D3D3D3D3D3DB2
:101E60003D3D3D3D3D3D3D3D3D3D3D3D3D3D0D0A05
:101E7000000000000D0A3D3D3D3D3D3D3D3D3D3DE9
:101E80003D3D3D3D3D3D3D3D3D3D3D3D3D3D3D3D82
:101E90003D3D3D3D3D3D3D3D3D5445535420343D4C
:101EA0003D3D3D3D3D3D3D3D3D3D3D3D3D3D3D3D62
:101EB0003D3D3D3D3D3D3D3D3D3D3D3D3D3D3D3D52
:101EC0003D3D0D0A000000003D3D3D3D3D3D3D3D99
:101ED0003D3D3D3D3D3D3D3D3D3D3D3D3D3D3D3D32
:101EE0003D3D3D3D3D3D3D41455320544553543DD1
:101EF0003D3D3D3D3D3D3D3D3D3D3D3D3D3D3D3D12
:101F00003D3D3D3D3D3D3D3D3D3D3D3D3D3D3D3D01
:101F10003D3D3D3D0D0A00000D0A3D3D3D3D3D3D31
:101F20003D3D3D3D3D3D3D3D3D3D3D3D3D3D3D3DE1
:101F30003D3D3D3D3D3D3D3D3D3D3D5445535420A2
:101F4000313D3D3D3D3D3D3D3D3D3D3D3D3D3D3DCD
:101F50003D3D3D3D3D3D3D3D3D3D3D3D3D3D3D3DB1
:101F60003D3D3D3D3D3D0D0A000000000D0A3D3D5B
:101F70003D3D3D3D3D3D3D3D3D3D3D3D3D3D3D3D91
:101F80003D3D3D3D3D3D3D3D3D3D3D3D3D3D3D546A
:101F900045535420323D3D3D3D3D3D3D3D3D3D3D64
:101FA0003D3D3D3D3D3D3D3D3D3D3D3D3D3D3D3D61
:101FB0003D3D3D3D3D3D3D3D3D3D0D0A00000000A8
:101FC0000D0A3D3D3D3D3D3D3D3D3D3D3D3D3D3DA4
:101FD0003D3D3D3D3D3D3D3D3D3D3D3D3D3D3D3D31
:101FE0003D3D3D5445535420333D3D3D3D3D3D3DFC
:101FF0003D3D3D3D3D3D3D3D3D3D3D3D3D3D3D3D11
:102000003D3D3D3D3D3D3D3D3D3D3D3D3D3D0D0A63
:10201000000000000D0A3D3D3D3D3D3D3D3D3D3D47
:102020003D3D3D3D3D3D3D3D3D3D3D3D3D3D3D3DE0
:102030003D3D3D3D3D3D3D5445535420343D3D3DAA
:102040003D3D3D3D3D3D3D3D3D3D3D3D3D3D3D3DC0
:102050003D3D3D3D3D3D3D3D3D3D3D3D3D3D3D3DB0
:102060003D3D0D0A000000000D0A3D3D3D3D3D3D5A
:102070003D3D3D3D3D3D3D3D3D3D3D3D3D3D3D3D90
:102080003D3D3D3D3D3D3D3D3D3D3D3D3D3D3D3D80
:102090003D3D3D3D5445535420352841455332354F
:1020A00036293D3D3D3D3D3D3D3D3D3D3D3D3D3D7B
:1020B0003D3D3D3D3D3D3D3D3D3D3D3D3D3D3D3D50
:1020C0003D3D3D3D3D3D3D3D3D3D0D0A0000000097
:1020D0000D0A3D3D3D3D3D3D3D3D3D3D3D3D3D3D93
:1020E0003D3D3D3D3D3D3D3D3D3D3D3D3D3D3D3D20
:1020F0003D3D3D3D3D3D3D3D3D3D3D3D54455354C4
:10210000203628414553323536293D3D3D3D3D3D44
:102110003D3D3D3D3D3D3D3D3D3D3D3D3D3D3D3DEF
:102120003D3D3D3D3D3D3D3D3D3D3D3D3D3D3D3DDF
:102130003D3D0D0A0000000060000000200300008B
:1021400070000000F0020000020000000D0200001C
:102150000C000000EC010000080000004600000038
:1021600010000000400000000200000030000000ED
:10217000080000002800000008000000B80000006F
:1021800010000000B000000002000000820000000B
:10219000060000007E0000003D3D3D3D3D3D3D3DD3
:1021A0003D3D3D3D3D3D3D3D3D3D3D3D3D3D3D3D5F
:1021B0003D3D3D3D41455331323820454E43525916
:1021C000505454494F4E3D3D3D3D3D3D3D3D3D3DCF
:1021D0003D3D3D3D3D3D3D3D3D3D3D3D3D3D3D3D2F
:1021E0003D3D3D3D0D0A00003D3D3D3D3D3D3D3DFC
:1021F0003D3D3D3D3D3D3D3D3D3D3D3D3D3D3D3D0F
:102200003D3D3D3D414553313238204445435259CF
:10221000505454494F4E3D3D3D3D3D3D3D3D3D3D7E
:102220003D3D3D3D3D3D3D3D3D3D3D3D3D3D3D3DDE
:102230003D3D3D3D0D0A00000D0A504C41494E5FA9
:102240005445585420283132382D62697429203A77
:10225000200000004B455920283132382D62697426
:1022600029203A2000000000524553554C542028A4
:102270003132382D62697429203A20000D0A3D3D23
:102280003D3D3D3D3D3D3D3D3D3D3D3D3D3D3D3D7E
:102290003D3D3D3D3D3D3D3D3D3D3D3D3D3D3D3D6E
:1022A0003D3D3D3D3D3D3D3D3D3D3D3D3D3D3D3D5E
:1022B0003D3D3D3D3D3D3D3D3D3D3D3D3D3D3D3D4E
:1022C0003D3D3D3D3D3D3D3D3D3D0D0A0000000095
:1022D0003D3D3D3D3D3D3D3D3D3D3D3D3D3D3D3D2E
:1022E0003D3D3D3D3D3D3D3D3D3D3D3D3D3D3D3D1E
:1022F0003D3D3D3D3D3D41455332353620454E4304
:102300005259505454494F4E3D3D3D3D3D3D3D3D5C
:102310003D3D3D3D3D3D3D3D3D3D3D3D3D3D3D3DED
:102320003D3D3D3D3D3D3D3D3D3D3D3D3D3D3D3DDD
:102330000D0A00003D3D3D3D3D3D3D3D3D3D3D3DAA
:102340003D3D3D3D3D3D3D3D3D3D3D3D3D3D3D3DBD
:102350003D3D3D3D3D3D3D3D3D3D414553323536A5
:10236000204445435259505454494F4E3D3D3D3D04
:102370003D3D3D3D3D3D3D3D3D3D3D3D3D3D3D3D8D
:102380003D3D3D3D3D3D3D3D3D3D3D3D3D3D3D3D7D
:102390003D3D3D3D0D0A00004B4559202832353664
:1023A0002D62697429203A20000000000D0A3D3D8D
:1023B0003D3D3D3D3D3D3D3D3D3D3D3D3D3D3D3D4D
:1023C0003D3D3D3D3D3D3D3D3D3D3D3D3D3D3D3D3D
:1023D0003D3D3D3D3D3D3D3D3D3D3D3D3D3D3D3D2D
:1023E0003D3D3D3D3D3D3D3D3D3D3D3D3D3D3D3D1D
:1023F0003D3D3D3D3D3D3D3D3D3D3D3D3D3D3D3D0D
:102400003D3D3D3D3D3D3D3D3D3D3D3D3D3D0D0A5F
:1024100000000000600000002003000070000000C9
:10242000F0020000020000000D0200000C0000009D
:10243000EC01000008000000460000001000000051
:102440004000000002000000300000000800000012
:102450002800000008000000B80000001000000084
:10246000B000000002000000820000000600000032
:102470007E00000020000000303132333435363722
:0F2480003839616263646566000000000D0A0070
:0200000480007A
:100000006F00400B130000001300000013000000FD
:100010001300000013000000130000001300000094
:10002000232E11FE232C51FE232A61FE232871FE6C
:100030002326A1FE2324B1FE2322C1FE2320D1FECC
:10004000232EE1FC232CF1FC232A01FD232811FDA2
:100050002326C1FD2324D1FD2322E1FD2320F1FD30
:10006000130101FC971000C0E78040C98320C10341
:100070008322810303234103832301030325C10258
:100080008325810203264102832601020327C10141
:10009000832781010328410183280101032EC10028
:1000A000832E8100032F4100832F010013010104DF
:1000B00073002030973100C09381C1BD171100003B
:1000C00013014188172500C01305C53C972500C0C2
:1000D0009385453C6308B5002320050013054500C2
:1000E0006FF05FFF172500C01305C53A1301C1FF6C
:1000F000972500C09385053A630EB5008326050059
:10010000130545002320A100E78006000325010018
:100110006FF01FFE1301410037150000130505881D
:1001200073104530372500001305858073100530A6
:0C013000970000C0E78080586F000000BE
:040000058000000077
:00000001FF
