:020000044000BA
:10000000130101FE232E8100130401022326A4FE06
:100010008327C4FE23A007008327C4FE23A4070070
:10002000130000000324C1011301010267800000D6
:10003000130101FE232E8100130401022326A4FED6
:10004000130000000324C1011301010267800000B6
:10005000130101FE232E8100130401022326A4FEB6
:100060008327C4FE23A207008327C4FE1307F0FFE3
:1000700023A0E700130000000324C10113010102C3
:1000800067800000130101FE232E8100130401028A
:100090002326A4FE8327C4FE83A7470093D7070126
:1000A00093F7F70F138507000324C1011301010221
:1000B00067800000130101FE232E8100130401025A
:1000C0002326A4FE8327C4FE83A7470093D7870176
:1000D000138507000324C10113010102678000009A
:1000E000130101FE232E1100232C810013040102B1
:1000F0002326A4FE2324B4FE130000000325C4FE1F
:10010000EFF05FF893070500E38A07FE8327C4FE3C
:10011000032784FE23A0E700130000008320C10111
:10012000032481011301010267800000130101FE15
:10013000232E8100130401022326A4FE2324B4FEEF
:10014000832784FE03A7C7008327C4FE23A4E700F8
:10015000832784FE83A707001387F7FF832784FE86
:1001600083A74700939787003367F700832784FEB0
:1001700083A78700939707013367F7008327C4FE9F
:1001800023A6E700130000000324C10113010102AC
:1001900067800000130101FE232E81001304010279
:1001A0002326A4FE8327C4FE83A7070093F7270016
:1001B000B337F00093F7F70F138507000324C1014D
:1001C0001301010267800000130101FE232E81004C
:1001D000130401022326A4FE8327C4FE1307100084
:1001E00023A0E700130000000324C1011301010252
:1001F00067800000130101FE232E1100232C8100D3
:10020000130401022326A4FE8327C4FE23A00700B3
:10021000130000000325C4FEEFF0DFF7930705008D
:10022000E39A07FE13000000130000008320C101C1
:10023000032481011301010267800000130101FE04
:10024000232E8100130401022326A4FE2324B4FEDE
:10025000B73700F0938707C0032784FE23A4E70085
:10026000B73700F0938707C01307100023A2E700F9
:10027000B73700F0938707C00327C4FE23A6E70023
:10028000B73700F0938707C01307100023A0E700DB
:10029000B73700F0938707C023A0070013000000C2
:1002A0000324C1011301010267800000130101FD55
:1002B0002326810213040103232EA4FCB73700F088
:1002C000938707C00327C4FD23A4E700B73700F0D6
:1002D000938707C023A20700B73700F0938707C0B2
:1002E0001307100023A0E700B73700F0938707C07B
:1002F00083A707012326F4FEB73700F0938707C0D2
:1003000023A007008327C4FE138507000324C1022E
:100310001301010367800000130101FD2326110270
:100320002324810223229102130401039307050071
:100330002324B4FE2322C4FE2320D4FE232EE4FC77
:10034000A307F4FEB727004013850763EF10904022
:10035000B727004013850769EF10D03F832544FE7F
:10036000B727004013854769EF105065832784FE47
:100370009387C70183A70700930500011385070032
:10038000EFF0DFEB832784FE9387870183A70700C5
:100390009305100113850700EFF05FEA832784FEC1
:1003A0009387470183A70700930520011385070062
:1003B000EFF0DFE8832784FE9387070183A7070018
:1003C0009305300113850700EFF05FE7832784FE74
:1003D0009387C70083A70700930540011385070093
:1003E000EFF0DFE5832784FE9387870083A707006C
:1003F0009305500113850700EFF05FE4832784FE27
:100400009387470083A707009305600113850700C2
:10041000EFF0DFE2832784FE83A7070093057001D6
:1004200013850700EFF09FE1832744FE9387470081
:1004300083A707009305000213850700EFF01FE074
:10044000832744FE83A70700930510021385070046
:10045000EFF0DFDE8347F4FE9305A000138507006D
:10046000EFF0DFDD9305B000032504FEEFF01FDDA4
:100470009305800013051000EFF05FDC130000000F
:1004800013059000EFF09FE293070500E38A07FE53
:100490008327C4FD9384C70313050008EFF01FE111
:1004A0009307050023A0F4008327C4FD93848703EA
:1004B00013051008EFF09FDF9307050023A0F40059
:1004C0008327C4FD9384470313052008EFF01FDE44
:1004D0009307050023A0F4008327C4FD938407033A
:1004E00013053008EFF09FDC9307050023A0F4000C
:1004F0008327C4FD9384C70213054008EFF01FDB78
:100500009307050023A0F4008327C4FD938487028A
:1005100013055008EFF09FD99307050023A0F400BE
:100520008327C4FD9384470213056008EFF01FD8AA
:100530009307050023A0F4008327C4FD93840702DA
:1005400013057008EFF09FD69307050023A0F40071
:100550008327C4FD9384C70113058008EFF01FD5DE
:100560009307050023A0F4008327C4FD938487012B
:1005700013059008EFF09FD39307050023A0F40024
:100580008327C4FD938447011305A008EFF01FD211
:100590009307050023A0F4008327C4FD938407017B
:1005A0001305B008EFF09FD09307050023A0F400D7
:1005B0008327C4FD9384C7001305C008EFF01FCF45
:1005C0009307050023A0F4008327C4FD93848700CC
:1005D0001305D008EFF09FCD9307050023A0F4008A
:1005E0008327C4FD938447001305E008EFF01FCC78
:1005F0009307050023A0F4001305F008EFF01FCBCC
:10060000130705008327C4FD23A0E700832584FE8C
:10061000B72700401385076BEF1010538325C4FDE7
:10062000B72700401385476CEF109060130000005F
:100630008320C102032481028324410213010103A8
:1006400067800000130101FE232E810013040102C4
:100650002326A4FE8327C4FE23A007008327C4FE0D
:1006600023A40700130000000324C10113010102A9
:1006700067800000130101FE232E81001304010294
:100680002326A4FE130000000324C101130101026C
:1006900067800000130101FE232E81001304010274
:1006A0002326A4FE8327C4FE23A207008327C4FEBB
:1006B0001307F0FF23A0E700130000000324C1018B
:1006C0001301010267800000130101FE232E810047
:1006D000130401022326A4FE8327C4FE83A7470038
:1006E00093D7070193F7F70F138507000324C10180
:1006F0001301010267800000130101FE232E810017
:10070000130401022326A4FE8327C4FE83A7470007
:1007100093D78701138507000324C1011301010248
:1007200067800000130101FE232E1100232C81009D
:10073000130401022326A4FE2324B4FE13000000A8
:100740000325C4FEEFF05FF893070500E38A07FE78
:100750008327C4FE032784FE23A0E70013000000C4
:100760008320C1010324810113010102678000007D
:10077000130101FE232E8100130401022326A4FE8F
:100780002324B4FE832784FE03A7C7008327C4FE67
:1007900023A4E700832784FE83A707001387F7FFBE
:1007A000832784FE83A74700939787003367F7006A
:1007B000832784FE83A78700939707013367F70099
:1007C0008327C4FE23A6E700130000000324C10111
:1007D0001301010267800000130101FE232E810036
:1007E000130401022326A4FE8327C4FE83A7070067
:1007F00093F72700B337F00093F7F70F138507003F
:100800000324C1011301010267800000130101FEEE
:10081000232E8100130401022326A4FE8327C4FE95
:100820001307100023A0E700130000000324C101F8
:100830001301010267800000130101FE232E110045
:10084000232C8100130401022326A4FE8327C4FE67
:1008500023A00700130000000325C4FEEFF0DFF71C
:1008600093070500E39A07FE130000001300000041
:100870008320C1010324810113010102678000006C
:10088000130101FE232E8100130401022326A4FE7E
:100890002324B4FEB72700F0032784FE23A4E70037
:1008A000B72700F01307100023A2E700B72700F0D6
:1008B0000327C4FE23A6E700B72700F013071000A4
:1008C00023A0E700B72700F023A0070013000000D3
:1008D0000324C1011301010267800000130101FD1F
:1008E0002326810213040103232EA4FCB72700F062
:1008F0000327C4FD23A4E700B72700F023A20700C5
:10090000B72700F01307100023A0E700B72700F077
:1009100083A707012326F4FEB72700F023A00700D2
:100920008327C4FE138507000324C10213010103BA
:1009300067800000130101FE232E1100232C81008B
:10094000232A9100130401022326A4FE2324B4FECB
:100950002322C4FE2320D4FE9305A0000325C4FE59
:10096000EFF01FF2832744FE9387470083A7070019
:100970009305100213850700EFF09FF0832744FED4
:1009800083A707009305000213850700EFF05FEFD0
:10099000832784FE9387C70083A707009305300150
:1009A00013850700EFF0DFED832784FE9387870030
:1009B00083A707009305200113850700EFF05FEC84
:1009C000832784FE9387470083A7070093051001C0
:1009D00013850700EFF0DFEA832784FE83A7070073
:1009E0009305000113850700EFF09FE99305800050
:1009F00013051000EFF0DFE813000000130590006E
:100A0000EFF0DFED93070500E38A07FE832704FE7E
:100A10009384470013051003EFF05FEC9307050084
:100A200023A0F40013050003EFF05FEB13070500AC
:100A3000832704FE23A0E7000327C4FE93071000CA
:100A4000631AF700B727004013858773EF108050B3
:100A50006F000001B72700401385C778EF10804F63
:100A6000B72700401385077EEF10C04E832544FE54
:100A7000B72700401385477EEF104074832584FE1E
:100A8000B72700401385C77FEF10407A832504FE07
:100A9000B737004013850781EF1040721300000044
:100AA0008320C10103248101832441011301010238
:100AB00067800000130101FE232E81001304010250
:100AC0002326A4FE8327C4FE23A007008327C4FE99
:100AD00023A40700130000000324C1011301010235
:100AE00067800000130101FE232E81001304010220
:100AF0002326A4FE130000000324C10113010102F8
:100B000067800000130101FE232E810013040102FF
:100B10002326A4FE8327C4FE23A207008327C4FE46
:100B20001307F0FF23A0E700130000000324C10116
:100B30001301010267800000130101FE232E8100D2
:100B4000130401022326A4FE8327C4FE83A74700C3
:100B500093D7070193F7F70F138507000324C1010B
:100B60001301010267800000130101FE232E8100A2
:100B7000130401022326A4FE8327C4FE83A7470093
:100B800093D78701138507000324C10113010102D4
:100B900067800000130101FE232E1100232C810029
:100BA000130401022326A4FE2324B4FE1300000034
:100BB0000325C4FEEFF05FF893070500E38A07FE04
:100BC0008327C4FE032784FE23A0E7001300000050
:100BD0008320C10103248101130101026780000009
:100BE000130101FE232E8100130401022326A4FE1B
:100BF0002324B4FE832784FE03A7C7008327C4FEF3
:100C000023A4E700832784FE83A707001387F7FF49
:100C1000832784FE83A74700939787003367F700F5
:100C2000832784FE83A78700939707013367F70024
:100C30008327C4FE23A6E700130000000324C1019C
:100C40001301010267800000130101FE232E8100C1
:100C5000130401022326A4FE8327C4FE83A70700F2
:100C600093F72700B337F00093F7F70F13850700CA
:100C70000324C1011301010267800000130101FE7A
:100C8000232E8100130401022326A4FE8327C4FE21
:100C90001307100023A0E700130000000324C10184
:100CA0001301010267800000130101FE232E1100D1
:100CB000232C8100130401022326A4FE8327C4FEF3
:100CC00023A00700130000000325C4FEEFF0DFF7A8
:100CD00093070500E39A07FE1300000013000000CD
:100CE0008320C101032481011301010267800000F8
:100CF000130101FE232E8100130401022326A4FE0A
:100D00008327C4FE9387470023A007008327C4FEE0
:100D100023A00700130000000324C10113010102F6
:100D200067800000130101F2232E110C232C810C8B
:100D30001304010E930780002320F4FE232204FEF7
:100D4000232404FE930750032326F4FE930704FE96
:100D500093850700370501F0EFF09FE8B7370040B3
:100D600013854788EF10001FB73700401385878829
:100D7000EF10401E232004FC232204FC232404FC47
:100D8000232604FC232804FC232A04FC232C04FC33
:100D9000232E04FC232C04FA232E04FA232E04F61B
:100DA000232004F8232204F8232404F8232604F83B
:100DB000232804F8232A04F8232C04F8232E04F80B
:100DC000232004FA232204FA232404FA232604FA13
:100DD000232804FA232A04FAB73700401385878EA4
:100DE000EF104017B737004013858794EF10801637
:100DF0001307C4F7130684FB930704FC93068000D3
:100E00009385070013050000EFF00FD1B7370040BE
:100E100013850797EF100014930784FB13850700D1
:100E2000EFF01FED1307C4F7130684FB930704FCD0
:100E30009306C0009385070013050000EFF0CFCDA7
:100E4000B73700401385C799EF10C010930784FB94
:100E500013850700EFF0DFE91307C4F7130684FBDF
:100E6000930704FC930640019385070013050000D7
:100E7000EFF08FCAB73700401385879CEF10800DC5
:100E8000930784FB13850700EFF09FE61307C4F771
:100E9000130684FB930704FC9306800093850700E8
:100EA00013051000EFF04FC7B73700401385079FB9
:100EB000EF10400A930784FB13850700EFF05FE310
:100EC0001307C4F7130684FB930704FC9306C000C2
:100ED0009385070013051000EFF00FC4B7370040EB
:100EE0001385C7A1EF100007930784FB1385070044
:100EF000EFF01FE01307C4F7130684FB930704FC0D
:100F0000930640019385070013051000EFF0CFC052
:100F1000B7370040138587A4EF10C003B7370040F0
:100F2000138587AAEF100003B7371E0F9387C7D327
:100F3000232EF4FAB777594B93877787232CF4FA4B
:100F4000B727110093873723232EF4FCB767554446
:100F500093877767232CF4FCB7B799889387B7AB4F
:100F6000232AF4FCB7F7DDCC9387F7EF2328F4FCB2
:100F7000B7E7EEFF9387C7DC2326F4FCB7A7AABB2D
:100F8000938787982324F4FCB75766779387475451
:100F90002322F4FCB7172233938707102320F4FC95
:100FA0001307C4F7130684FB930704FC9306800021
:100FB0009385070013051000EFF00FB6B737004018
:100FC000138587ACEF001079B7370040138587B2DF
:100FD000EF0050789307F0FF232EF4FA9307F0FF09
:100FE000232CF4FA9307F0FF232EF4FC9307F0FF71
:100FF000232CF4FC9307F0FF232AF4FC9307F0FF63
:101000002328F4FC9307F0FF2326F4FC9307F0FF5A
:101010002324F4FC9307F0FF2322F4FC9307F0FF52
:101020002320F4FC1307C4F7130684FB930704FC86
:10103000930680009385070013050000EFF0CFAD05
:10104000B7370040138587B6EF00D070B7371E0F53
:101050009387C7D3232EF4FAB777594B93877787B3
:10106000232CF4FAB727110093873723232EF4FC9F
:10107000B767554493877767232CF4FCB7B79988F3
:101080009387B7AB232AF4FCB7F7DDCC9387F7EF50
:101090002328F4FC232604FC232404FC232204FC40
:1010A000232004FC1307C4F7130684FB930704FCF6
:1010B000930680009385070013050000EFF0CFA58D
:1010C000B7370040138587BCEF00D068232604F6AD
:1010D000232804F6232A04F6232C04F6232204F6FC
:1010E000232404F6232E04F4232004F6B73700400B
:1010F0001385C7C1EF001066B7E7C4699387870DF2
:101100002324F4F6B7077B6A938707432322F4F678
:10111000B7B7CDD893870778232CF4F6B7C7B47048
:101120009387A755232AF4F6B76786819387A75A32
:101130002328F4F6B7E7020D9387A7FD2326F4F6DC
:101140009306C4F5130744F69307C4F61306070085
:101150009385070013051000EFF0CFFDB73700406F
:10116000138507C7EF00105FB7B7C643938767259E
:101170002324F4F6B7E79DD79387877E2322F4F6DE
:101180009306C4F5130744F69307C4F61306070045
:101190009385070013050000EFF0CFF9B737004043
:1011A00013854788EF00105BB7370040138547CCA5
:1011B000EF00505A232804F4232A04F4232C04F4C7
:1011C000232404F4232604F4232004F4232204F427
:1011D000B7370040138587D1EF00D057B777744CED
:1011E000938777E62326F4F4B76779759387E756F4
:1011F0002324F4F4B777654693875746232CF4F4F9
:10120000B767486C9387D736232AF4F4B777000082
:10121000938737572328F4F4930604F4130784F4D0
:10122000930704F5130607009385070013050000D4
:10123000EF00804FB73700401385C7D6EF009051BD
:10124000B7071D0E9387470D2326F4F4B7B76BE459
:101250009387C7992324F4F4930604F4130784F4C2
:10126000930704F513060700938507001305100084
:10127000EF00804BB737004013854788EF00904D53
:10128000B7370040138507DCEF00D04C232A04F267
:10129000232C04F2232E04F2232604F2232804F242
:1012A000232204F2232404F2B7370040138587D1A8
:1012B000EF00504AB777744C938777E62328F4F20F
:1012C000B76779759387E7562326F4F2B7776546B3
:1012D00093875746232EF4F2B767486C9387D73627
:1012E000232CF4F2B777000093873757232AF4F2C0
:1012F000930644F21307C4F2930744F313860600DF
:101300009305070013850700EF00500DB737004025
:101310001385C7D6EF001044B777654693875746C5
:101320002328F4F2B7575F6C938737552326F4F2DE
:10133000232E04F2232C04F293071000232AF4F244
:10134000930644F21307C4F2930744F3138606008E
:101350009305070013850700EF005008B7370040DA
:10136000138547E1EF00103FB737383193870723E4
:101370002328F4F2B7473130938737832326F4F2DA
:10138000B737383193870723232EF4F2B74731302C
:1013900093873783232CF4F2B75700009387375590
:1013A000232AF4F2930644F21307C4F2930744F39A
:1013B000138606009305070013850700EF0010024F
:1013C00093070000138507008320C10D0324810DBE
:1013D0001301010E67800000130101FF2326810025
:1013E00013040101130000000324C10013010101D3
:1013F00067800000130101FE232E81001304010207
:101400002326A4FE8327C4FE23A007008327C4FE4F
:1014100023A40700130000000324C10113010102EB
:1014200067800000130101FE232E810013040102D6
:101430002326A4FE130000000324C10113010102AE
:1014400067800000130101FE232E810013040102B6
:101450002326A4FE8327C4FE23A207008327C4FEFD
:101460001307F0FF23A0E700130000000324C101CD
:101470001301010267800000130101FE232E810089
:10148000130401022326A4FE8327C4FE83A747007A
:1014900093D7070193F7F70F138507000324C101C2
:1014A0001301010267800000130101FE232E810059
:1014B000130401022326A4FE8327C4FE83A747004A
:1014C00093D78701138507000324C101130101028B
:1014D00067800000130101FE232E1100232C8100E0
:1014E000130401022326A4FE2324B4FE13000000EB
:1014F0000325C4FEEFF05FF893070500E38A07FEBB
:101500008327C4FE032784FE23A0E7001300000006
:101510008320C101032481011301010267800000BF
:10152000130101FE232E8100130401022326A4FED1
:101530002324B4FE832784FE03A7C7008327C4FEA9
:1015400023A4E700832784FE83A707001387F7FF00
:10155000832784FE83A74700939787003367F700AC
:10156000832784FE83A78700939707013367F700DB
:101570008327C4FE23A6E700130000000324C10153
:101580001301010267800000130101FE232E810078
:10159000130401022326A4FE8327C4FE83A70700A9
:1015A00093F72700B337F00093F7F70F1385070081
:1015B0000324C1011301010267800000130101FE31
:1015C000232E8100130401022326A4FE8327C4FED8
:1015D0001307100023A0E700130000000324C1013B
:1015E0001301010267800000130101FE232E110088
:1015F000232C8100130401022326A4FE8327C4FEAA
:1016000023A00700130000000325C4FEEFF0DFF75E
:1016100093070500E39A07FE130000001300000083
:101620008320C101032481011301010267800000AE
:10163000130101FE232E8100130401022326A4FEC0
:101640002324B4FEB72700F093870740032784FEC6
:1016500023A6E700B72700F09387074023A20700DF
:10166000B72700F0938707401307100023A4E70073
:10167000B72700F0938707400327C4FE23A8E7009D
:10168000B72700F09387074023A00700B72700F093
:10169000938707401307100023A0E7001300000002
:1016A0000324C1011301010267800000130101FD41
:1016B0002326810213040103232EA4FCB72700F084
:1016C000938707400327C4FD23A6E700B72700F050
:1016D0009387074023A40700B72700F093870740AC
:1016E0001307100023A2E700B72700F093870740F5
:1016F00023A00700B72700F09387074083A747017F
:101700002326F4FEB72700F0938707401307100045
:1017100023A0E7008327C4FE138507000324C1022A
:101720001301010367800000130101FE232E110045
:10173000232C8100232A9100130401029307050042
:101740002324B4FE2322C4FE2320D4FEA307F4FEE8
:101750008347F4FE639A0700930580001305000099
:10176000EFF01FED6F0000019305800013051000DE
:10177000EFF01FEC832744FE9387470083A7070001
:101780009305500013850700EFF09FEA832744FE7E
:1017900083A707009305400013850700EFF05FE97A
:1017A000832784FE9387870083A707009305300073
:1017B00013850700EFF0DFE7832784FE9387470058
:1017C00083A707009305200013850700EFF05FE66D
:1017D000832784FE83A70700930510001385070065
:1017E000EFF01FE59305000013051000EFF05FE434
:1017F0001300000013056000EFF05FEB9307050096
:10180000E38A07FE832704FE9384470013057000D4
:10181000EFF0DFE99307050023A0F4001305600053
:10182000EFF0DFE813070500832704FE23A0E7009D
:101830008347F4FE639A0700B7370040138587ECAF
:10184000EF0040716F000001B73700401385C7F10A
:10185000EF004070B7370040138507F7EF00806F47
:10186000832544FEB7370040138547F7EF00101576
:10187000832584FEB7370040138507F9EF009024D5
:10188000832504FEB7370040138507FAEF001013D5
:10189000130000008320C10103248101832441013E
:1018A0001301010267800000130101FE232E810055
:1018B000130401022326A4FE8327C4FE23A00700ED
:1018C0008327C4FE23A40700130000000324C101E2
:1018D0001301010267800000130101FE232E810025
:1018E000130401022326A4FE130000000324C101F7
:1018F0001301010267800000130101FE232E810005
:10190000130401022326A4FE8327C4FE23A207009A
:101910008327C4FE1307F0FF23A0E7001300000095
:101920000324C1011301010267800000130101FEBD
:10193000232E8100130401022326A4FE8327C4FE64
:1019400083A7470093D7070193F7F70F1385070085
:101950000324C1011301010267800000130101FE8D
:10196000232E8100130401022326A4FE8327C4FE34
:1019700083A7470093D78701138507000324C1017C
:101980001301010267800000130101FE232E1100E4
:10199000232C8100130401022326A4FE2324B4FE79
:1019A000130000000325C4FEEFF05FF89307050065
:1019B000E38A07FE8327C4FE032784FE23A0E700F3
:1019C000130000008320C1010324810113010102DF
:1019D00067800000130101FE232E81001304010221
:1019E0002326A4FE2324B4FE832784FE03A7C70076
:1019F0008327C4FE23A4E700832784FE83A7070070
:101A00001387F7FF832784FE83A7470093978700F8
:101A10003367F700832784FE83A787009397070126
:101A20003367F7008327C4FE23A6E70013000000F6
:101A30000324C1011301010267800000130101FEAC
:101A4000232E8100130401022326A4FE8327C4FE53
:101A500083A7070093F72700B337F00093F7F70F3A
:101A6000138507000324C1011301010267800000F0
:101A7000130101FE232E8100130401022326A4FE7C
:101A80008327C4FE1307100023A0E7001300000003
:101A90000324C1011301010267800000130101FE4C
:101AA000232E1100232C8100130401022326A4FEFF
:101AB0008327C4FE23A00700130000000325C4FEF3
:101AC000EFF0DFF793070500E39A07FE130000002D
:101AD000130000008320C1010324810113010102CE
:101AE00067800000130101FE232E81001304010210
:101AF0002326A4FE2324B4FEB73700F09387078083
:101B0000032784FE23A6E700B73700F093870780FA
:101B100023A20700B73700F0938707801307100050
:101B200023A4E700B73700F0938707800327C4FE9C
:101B300023A8E700B73700F09387078023A00700AA
:101B4000B73700F0938707801307100023A0E70042
:101B5000130000000324C10113010102678000008B
:101B6000130101FD2326810213040103232EA4FC8B
:101B7000B73700F0938707800327C4FD23A6E7004B
:101B8000B73700F09387078023A40700B73700F02A
:101B9000938707801307100023A2E700B73700F0F0
:101BA0009387078023A00700B73700F0938707804B
:101BB00083A747012326F4FEB73700F093870780F9
:101BC0001307100023A0E7008327C4FE1385070036
:101BD0000324C1021301010367800000130101FE09
:101BE000232E1100232C8100232A910013040102CB
:101BF0002326A4FE2324B4FE2322C4FE832784FECE
:101C00009387470083A707009305500013850700BB
:101C1000EFF05FED832784FE83A707009305400064
:101C200013850700EFF01FEC8327C4FE938787001E
:101C300083A707009305300013850700EFF09FEAA4
:101C40008327C4FE9387470083A7070093052000DE
:101C500013850700EFF01FE98327C4FE83A7070061
:101C60009305100013850700EFF0DFE793050000F0
:101C700013051000EFF01FE71300000013056000CC
:101C8000EFF01FEE93070500E38A07FE832744FE6B
:101C90009384470013057000EFF09FEC9307050055
:101CA00023A0F40013056000EFF09FEB130705007D
:101CB000832744FE23A0E700B73700401385470180
:101CC000EF004029B737004013858706EF008028D2
:101CD000832584FEB73700401385C706EF00004E0A
:101CE0008325C4FEB737004013858708EF00805D69
:101CF000832544FEB737004013858709EF00004C69
:101D0000130000008320C1010324810183244101C9
:101D10001301010267800000130101FE232E8100E0
:101D2000130401022326A4FE8327C4FE23A0070078
:101D30008327C4FE23A40700130000000324C1016D
:101D40001301010267800000130101FE232E8100B0
:101D5000130401022326A4FE130000000324C10182
:101D60001301010267800000130101FE232E810090
:101D7000130401022326A4FE8327C4FE23A2070026
:101D80008327C4FE1307F0FF23A0E7001300000021
:101D90000324C1011301010267800000130101FE49
:101DA000232E8100130401022326A4FE8327C4FEF0
:101DB00083A7470093D7070193F7F70F1385070011
:101DC0000324C1011301010267800000130101FE19
:101DD000232E8100130401022326A4FE8327C4FEC0
:101DE00083A7470093D78701138507000324C10108
:101DF0001301010267800000130101FE232E110070
:101E0000232C8100130401022326A4FE2324B4FE04
:101E1000130000000325C4FEEFF05FF893070500F0
:101E2000E38A07FE8327C4FE032784FE23A0E7007E
:101E3000130000008320C10103248101130101026A
:101E400067800000130101FE232E810013040102AC
:101E50002326A4FE2324B4FE832784FE03A7C70001
:101E60008327C4FE23A4E700832784FE83A70700FB
:101E70001387F7FF832784FE83A747009397870084
:101E80003367F700832784FE83A7870093970701B2
:101E90003367F7008327C4FE23A6E7001300000082
:101EA0000324C1011301010267800000130101FE38
:101EB000232E8100130401022326A4FE8327C4FEDF
:101EC00083A7070093F72700B337F00093F7F70FC6
:101ED000138507000324C10113010102678000007C
:101EE000130101FE232E8100130401022326A4FE08
:101EF0008327C4FE1307100023A0E700130000008F
:101F00000324C1011301010267800000130101FED7
:101F1000232E1100232C8100130401022326A4FE8A
:101F20008327C4FE23A00700130000000325C4FE7E
:101F3000EFF0DFF793070500E39A07FE13000000B8
:101F4000130000008320C101032481011301010259
:101F500067800000130101FE232E1100232C810055
:101F6000130401022326A4FE6F0000028327C4FE8F
:101F7000138717002326E4FE83C707009385070015
:101F8000370501F0EFF05FE78327C4FE83C7070042
:101F9000E39E07FC13000000130000008320C10132
:101FA000032481011301010267800000130101FC79
:101FB000232E1102232C8102130401042326A4FCE6
:101FC000232604FE232E04FC232004FE8327C4FCC6
:101FD00093F7F7003737004013070711B307F700EF
:101FE00003C707008327C4FE930604FFB387F600E8
:101FF0002386E7FE8327C4FE938717002326F4FE7B
:102000008327C4FC93D747002326F4FC8327C4FC12
:10201000E39E07FA0327C4FE9307700063CEE7022E
:10202000930770002324F4FE6F004002130700039F
:10203000832784FE930604FFB387F6002386E7FE1A
:10204000832784FE9387F7FF2324F4FE032784FE6F
:102050008327C4FEE35CF7FC930730002322F4FEE1
:102060006F00C002832744FE130704FFB307F70085
:1020700083C7C7FE93850700370501F0EFF0DFD770
:10208000832744FE9387F7FF2322F4FE832744FE31
:10209000E3DA07FCB73700401385C710EFF09FEB7A
:1020A000130000008320C1030324810313010104F2
:1020B00067800000130101FC232E1102232C8102F2
:1020C000130401042326A4FC232604FE232E04FC6F
:1020D000232004FE8327C4FC93F7F7003737004022
:1020E00013070711B307F70003C707008327C4FED0
:1020F000930604FFB387F6002386E7FE8327C4FE1A
:10210000938717002326F4FE8327C4FC93D7470048
:102110002326F4FC8327C4FCE39E07FA0327C4FEAE
:102120009307700063CEE702930770002324F4FE48
:102130006F00400213070003832784FE930604FF09
:10214000B387F6002386E7FE832784FE9387F7FF95
:102150002324F4FE032784FE8327C4FEE35CF7FCFC
:10216000930770002322F4FE6F00C002832744FE11
:10217000130704FFB307F70083C7C7FE9385070063
:10218000370501F0EFF05FC7832744FE9387F7FF21
:102190002322F4FE832744FEE3DA07FCB73700402E
:1021A0001385C710EFF01FDB130000008320C1036D
:1021B000032481031301010467800000130101FE61
:1021C000232E1100232C8100130401022326A4FED8
:1021D0002324B4FEB737004013854712EFF09FD792
:1021E0000325C4FEEFF01FD7832784FE93874700A3
:1021F00083A7070013850700EFF0DFEB832784FE3A
:1022000083A7070013850700EFF0DFEAB737004028
:1022100013858712EFF01FD4130000008320C10143
:10222000032481011301010267800000130101FEF4
:10223000232E1100232C8100130401022326A4FE67
:102240002324B4FEB737004013854712EFF09FD028
:102250000325C4FEEFF01FD0832784FE9387C700B9
:1022600083A7070013850700EFF0DFE4832784FED0
:102270009387870083A7070013850700EFF09FE38C
:10228000832784FE9387470083A7070013850700F1
:10229000EFF05FE2832784FE83A707001385070022
:1022A000EFF05FE1B737004013858712EFF09FCA68
:1022B000130000008320C1010324810113010102E6
:1022C00067800000130101FE232E1100232C8100E2
:1022D000130401022326A4FE2324B4FEB7370040D2
:1022E00013854712EFF01FC70325C4FEEFF09FC60A
:1022F000832784FE9387870083A707001385070041
:10230000EFF05FDB832784FE9387470083A70700F6
:1023100013850700EFF01FDA832784FE83A70700E9
:1023200013850700EFF09FC8B73700401385871269
:10233000EFF05FC2130000008320C101032481017C
:102340001301010267800000130101FE232E11001A
:10235000232C8100130401022326A4FE2324B4FEAF
:10236000B737004013854712EFF0DFBE0325C4FEE8
:10237000EFF05FBE832784FE9387C70183A7070022
:1023800013850700EFF01FD3832784FE938787010F
:1023900083A7070013850700EFF0DFD1832784FEB2
:1023A0009387470183A7070013850700EFF09FD0AD
:1023B000832784FE9387070183A7070013850700FF
:1023C000EFF05FCF832784FE9387C70083A70700C2
:1023D00013850700EFF01FCE832784FE93878700C5
:1023E00083A7070013850700EFF0DFCC832784FE67
:1023F0009387470083A7070013850700EFF09FCB63
:10240000832784FE83A7070013850700EFF09FCA88
:10241000B737004013858712EFF0DFB313000000D9
:102420008320C101032481011301010267800000A0
:10243000130101FE232E1100232C8100130401023D
:102440002326A4FE2324B4FEB73700401385471289
:10245000EFF05FB00325C4FEEFF0DFAF832784FE0B
:102460009387C70383A7070013850700EFF09FC476
:10247000832784FE9387870383A7070013850700BC
:10248000EFF05FC3832784FE9387470383A707008A
:1024900013850700EFF01FC2832784FE938707038D
:1024A00083A7070013850700EFF0DFC0832784FEB2
:1024B0009387C70283A7070013850700EFF09FBF2C
:1024C000832784FE9387870283A70700138507006D
:1024D000EFF05FBE832784FE9387470283A7070040
:1024E00013850700EFF01FBD832784FE9387070243
:1024F00083A7070013850700EFF0DFBBB737004065
:1025000013858712EFF01FA5B73700401385C71258
:10251000EFF05FA4832784FE9387C70183A707009A
:1025200013850700EFF01FB9832784FE9387870187
:1025300083A7070013850700EFF0DFB7832784FE2A
:102540009387470183A7070013850700EFF09FB625
:10255000832784FE9387070183A70700138507005D
:10256000EFF05FB5832784FE9387C70083A707003A
:1025700013850700EFF01FB4832784FE938787003D
:1025800083A7070013850700EFF0DFB2832784FEDF
:102590009387470083A7070013850700EFF09FB1DB
:1025A000832784FE83A7070013850700EFF09FB001
:1025B000B737004013858712EFF0DF991300000052
:1025C0008320C101032481011301010267800000FF
:1025D000600000002003000070000000F002000016
:1025E000020000000D0200000C000000EC010000E1
:1025F000080000004600000010000000400000003D
:102600000200000030000000080000002800000068
:1026100008000000B800000010000000B00000003A
:102620000200000082000000060000007E000000A2
:102630000D093D3D3D3D3D3D3D3D3D3D3D3D3D3D2E
:102640003D3D3D3D3D3D3D3D3D3D3D3D3D3D3D3DBA
:102650003D3D3D3D43484143484132302043495090
:102660004845523D3D3D3D3D3D3D3D3D3D3D3D3D72
:102670003D3D3D3D3D3D3D3D3D3D3D3D3D3D3D3D8A
:102680003D3D3D3D3D3D3D3D3D3D3D3D0D0A000057
:102690000D0A00000D09504C41494E5F54455854F5
:1026A000202836342D62697429203A200000000069
:1026B0004B455920283132382F3235362D62697416
:1026C000293A2000524553554C5420283531322D9B
:1026D00062697429203A2000600000002003000095
:1026E00070000000F0020000020000000D02000077
:1026F0000C000000EC010000080000004600000093
:102700001000000040000000020000003000000047
:10271000080000002800000008000000B8000000C9
:1027200010000000B0000000020000008200000065
:10273000060000007E0000000D093D3D3D3D3D3D91
:102740003D3D3D3D3D3D3D3D3D3D3D3D3D3D3D3DB9
:102750003D3D3D3D3D3D3D5052494E434520454E5A
:10276000435259505454494F4E3D3D3D3D3D3D3DF2
:102770003D3D3D3D3D3D3D3D3D3D3D3D3D3D3D3D89
:102780003D3D3D3D3D3D0D0A000000000D093D3D34
:102790003D3D3D3D3D3D3D3D3D3D3D3D3D3D3D3D69
:1027A0003D3D3D3D3D3D3D3D3D3D3D5052494E430E
:1027B00045204445435259505454494F4E3D3D3DA8
:1027C0003D3D3D3D3D3D3D3D3D3D3D3D3D3D3D3D39
:1027D0003D3D3D3D3D3D3D3D3D3D0D0A0000000080
:1027E0000D0A0000504C41494E5F54455854202872
:1027F00036342D62697429203A2000004B45592057
:10280000283132382D62697429203A2000000000F6
:10281000524553554C54202836342D626974292072
:102820003A2000006000000020030000700000005B
:10283000F0020000020000000D0200000C00000089
:10284000EC0100000800000046000000100000003D
:1028500040000000020000003000000008000000FE
:102860002800000008000000B80000001000000070
:10287000B00000000200000082000000060000001E
:102880007E0000000D0A00000D092A2A2A2A2A2AA1
:102890002A2A2A2A2A2A2A2A2A2A2A2A2A2A2A2A98
:1028A0002A2A2A2A2A2A2A2A2A2A2A2A2A2A2A2A88
:1028B0002A2A2A43484143484120544553542A2A4E
:1028C0002A2A2A2A2A2A2A2A2A2A2A2A2A2A2A2A68
:1028D0002A2A2A2A2A2A2A2A2A2A2A2A2A2A2A2A58
:1028E0002A2A2A2A0D0A00000D0A093D3D3D3D3DD8
:1028F0003D3D3D3D3D3D3D3D3D3D3D3D3D3D3D3D08
:102900003D3D3D3D3D3D3D3D3D3D3D3D3D3D3D3DF7
:102910003D3D3D3D3D5445535420313D3D3D3D3DC4
:102920003D3D3D3D3D3D3D3D3D3D3D3D3D3D3D3DD7
:102930003D3D3D3D3D3D3D3D3D3D3D3D3D3D3D3DC7
:102940003D3D3D3D3D0D0A000D0A095B416C6C208B
:102950007A65726F732C203132382D626974206B66
:1029600065792C203820726F756E64735D0D0A00D6
:102970000D0A095B416C6C207A65726F732C2031F3
:1029800032382D626974206B65792C2031322072C7
:102990006F756E64735D0D0A000000000D0A095B1F
:1029A000416C6C207A65726F732C203132382D6245
:1029B0006974206B65792C20323020726F756E64DB
:1029C000735D0D0A000000000D0A095B416C6C206C
:1029D0007A65726F732C203235362D626974206BE4
:1029E00065792C203820726F756E64735D0D0A0056
:1029F0000D0A095B416C6C207A65726F732C203272
:102A000035362D626974206B65792C203132207245
:102A10006F756E64735D0D0A000000000D0A095B9E
:102A2000416C6C207A65726F732C203235362D62C2
:102A30006974206B65792C20323020726F756E645A
:102A4000735D0D0A000000000D0A093D3D3D3D3D4E
:102A50003D3D3D3D3D3D3D3D3D3D3D3D3D3D3D3DA6
:102A60003D3D3D3D3D3D3D3D3D3D3D3D3D3D3D3D96
:102A70003D3D3D3D3D5445535420323D3D3D3D3D62
:102A80003D3D3D3D3D3D3D3D3D3D3D3D3D3D3D3D76
:102A90003D3D3D3D3D3D3D3D3D3D3D3D3D3D3D3D66
:102AA0003D3D3D3D3D0D0A000D0A095B3235362D99
:102AB000626974206B65792C203820726F756E64A2
:102AC000735D0D0A000000000D0A093D3D3D3D3DCE
:102AD0003D3D3D3D3D3D3D3D3D3D3D3D3D3D3D3D26
:102AE0003D3D3D3D3D3D3D3D3D3D3D3D3D3D3D3D16
:102AF0003D3D3D3D3D5445535420333D3D3D3D3DE1
:102B00003D3D3D3D3D3D3D3D3D3D3D3D3D3D3D3DF5
:102B10003D3D3D3D3D3D3D3D3D3D3D3D3D3D3D3DE5
:102B20003D3D3D3D3D0D0A000D0A095B416C6C20A9
:102B30006269747320696E206B657920616E642010
:102B4000495620617265207365742E203132382019
:102B5000626974206B65792C203820726F756E6401
:102B6000735D0D0A000000000D0A093D3D3D3D3D2D
:102B70003D3D3D3D3D3D3D3D3D3D3D3D3D3D3D3D85
:102B80003D3D3D3D3D3D3D3D3D3D3D3D3D3D3D3D75
:102B90003D3D3D3D3D5445535420343D3D3D3D3D3F
:102BA0003D3D3D3D3D3D3D3D3D3D3D3D3D3D3D3D55
:102BB0003D3D3D3D3D3D3D3D3D3D3D3D3D3D3D3D45
:102BC0003D3D3D3D3D0D0A000D092A2A2A2A2A2AAB
:102BD0002A2A2A2A2A2A2A2A2A2A2A2A2A2A2A2A55
:102BE0002A2A2A2A2A2A2A2A2A2A2A2A5052494EB4
:102BF000434520544553542A2A2A2A2A2A2A2A2A73
:102C00002A2A2A2A2A2A2A2A2A2A2A2A2A2A2A2A24
:102C10002A2A2A2A2A2A0D0A000000000D0A093D44
:102C20003D3D3D3D3D3D3D3D3D3D3D3D3D3D3D3DD4
:102C30003D3D3D3D3D3D3D3D3D3D3D3D3D3D3D3DC4
:102C40003D3D5445535420313D3D3D3D3D3D3D3D91
:102C50003D3D3D3D3D3D3D3D3D3D3D3D3D3D3D3DA4
:102C60003D3D3D3D3D3D3D3D3D3D3D0D0A000000AE
:102C70000D0A093D3D3D3D3D3D3D3D3D3D3D3D3D1B
:102C80003D3D3D3D3D3D3D3D3D3D3D3D3D3D3D3D74
:102C90003D3D3D3D3D3D5445535420323D3D3D3D40
:102CA0003D3D3D3D3D3D3D3D3D3D3D3D3D3D3D3D54
:102CB0003D3D3D3D3D3D3D3D3D3D3D3D3D3D3D0D74
:102CC0000A0000000D092A2A2A2A2A2A2A2A2A2A40
:102CD0002A2A2A2A2A2A2A2A2A2A2A2A2A2A2A2A54
:102CE0002A2A2A2A50524553454E542054455354BB
:102CF0002A2A2A2A2A2A2A2A2A2A2A2A2A2A2A2A34
:102D00002A2A2A2A2A2A2A2A2A2A2A2A2A2A2A2A23
:102D10002A2A0D0A000000000D0A093D3D3D3D3DF7
:102D20003D3D3D3D3D3D3D3D3D3D3D3D3D3D3D3DD3
:102D30003D3D3D3D3D3D3D3D3D3D3D3D3D5445538E
:102D40005420313D3D3D3D3D3D3D3D3D3D3D3D3DC5
:102D50003D3D3D3D3D3D3D3D3D3D3D3D3D3D3D3DA3
:102D60003D3D3D3D3D3D3D0D0A0000000D0A093D44
:102D70003D3D3D3D3D3D3D3D3D3D3D3D3D3D3D3D83
:102D80003D3D3D3D3D3D3D3D3D3D3D3D3D3D3D3D73
:102D90003D5445535420323D3D3D3D3D3D3D3D3D3F
:102DA0003D3D3D3D3D3D3D3D3D3D3D3D3D3D3D3D53
:102DB0003D3D3D3D3D3D3D3D3D3D3D0D0A0000005D
:102DC0000D092A2A2A2A2A2A2A2A2A2A2A2A2A2AA1
:102DD0002A2A2A2A2A2A2A2A2A2A2A2A2A444D5FE1
:102DE00050524553454E5420544553542A2A2A2ABA
:102DF0002A2A2A2A2A2A2A2A2A2A2A2A2A2A2A2A33
:102E00002A2A2A2A2A2A2A2A2A2A2A2A2A2A0D0A5F
:102E1000000000000D0A093D3D3D3D3D3D3D3D3D6D
:102E20003D3D3D3D3D3D3D3D3D3D3D3D3D3D3D3DD2
:102E30003D3D3D3D3D3D3D3D3D5445535420333D9D
:102E40003D3D3D3D3D3D3D3D3D3D3D3D3D3D3D3DB2
:102E50003D3D3D3D3D3D3D3D3D3D3D3D3D3D3D3DA2
:102E60003D3D3D0D0A000000600000002003000011
:102E700070000000F0020000020000000D020000DF
:102E80000C000000EC0100000800000046000000FB
:102E900010000000400000000200000030000000B0
:102EA000080000002800000008000000B800000032
:102EB00010000000B00000000200000082000000CE
:102EC000060000007E0000000D093D3D3D3D3D3DFA
:102ED0003D3D3D3D3D3D3D3D3D3D3D3D3D3D3D3D22
:102EE0003D3D3D3D3D50524553454E5420454E439A
:102EF0005259505454494F4E3D3D3D3D3D3D3D3D61
:102F00003D3D3D3D3D3D3D3D3D3D3D3D3D3D3D3DF1
:102F10003D3D3D3D3D3D0D0A000000000D093D3D9C
:102F20003D3D3D3D3D3D3D3D3D3D3D3D3D3D3D3DD1
:102F30003D3D3D3D3D3D3D3D3D50524553454E544B
:102F4000204445435259505454494F4E3D3D3D3D18
:102F50003D3D3D3D3D3D3D3D3D3D3D3D3D3D3D3DA1
:102F60003D3D3D3D3D3D3D3D3D3D0D0A00000000E8
:102F70000D0A00000D09504C41494E5F544558540C
:102F8000202836342D62697429203A200000000080
:102F90004B4559202838302D62697429203A200089
:102FA000524553554C54202836342D6269742920DB
:102FB0003A200000600000002003000070000000C4
:102FC000F0020000020000000D0200000C000000F2
:102FD000EC010000080000004600000010000000A6
:102FE0004000000002000000300000000800000067
:102FF0002800000008000000B800000010000000D9
:10300000B000000002000000820000000600000086
:103010007E0000000D093D3D3D3D3D3D3D3D3D3DBA
:103020003D3D3D3D3D3D3D3D3D3D3D3D3D3D3D3DD0
:103030003D444D5F50524553454E542048415348FE
:103040003D3D3D3D3D3D3D3D3D3D3D3D3D3D3D3DB0
:103050003D3D3D3D3D3D3D3D3D3D3D3D3D3D3D3DA0
:103060003D3D0D0A000000000D0A00000D09504C06
:1030700041494E5F54455854202836342D626974B6
:1030800029203A20000000004B4559202838302DD7
:1030900062697429203A2000524553554C54202827
:1030A00036342D62697429203A2000006000000047
:1030B0002003000070000000F00200000200000089
:1030C0000D0200000C000000EC01000008000000F0
:1030D0004600000010000000400000000200000058
:1030E0003000000008000000280000000800000078
:1030F000B800000010000000B00000000200000056
:1031000082000000060000007E0000002000000099
:10311000303132333435363738396162636465664D
:10312000000000000D0900000D0A00000D0920201C
:10313000202020202020202020202020202020208F
:0231400020006D
:043144000000000087
:0200000480007A
:100000006F00400B130000001300000013000000FD
:100010001300000013000000130000001300000094
:10002000232E11FE232C51FE232A61FE232871FE6C
:100030002326A1FE2324B1FE2322C1FE2320D1FECC
:10004000232EE1FC232CF1FC232A01FD232811FDA2
:100050002326C1FD2324D1FD2322E1FD2320F1FD30
:10006000130101FC971000C0E78040378320C103D3
:100070008322810303234103832301030325C10258
:100080008325810203264102832601020327C10141
:10009000832781010328410183280101032EC10028
:1000A000832E8100032F4100832F010013010104DF
:1000B00073002030974100C09381418917110000DF
:1000C00013014188173500C013054508973500C056
:1000D0009385C5076308B500232005001305450077
:1000E0006FF05FFF173500C0130505061301C1FF50
:1000F000973500C093854505630EB500832605003E
:10010000130545002320A100E78006000325010018
:100110006FF01FFE1301410037150000130505881D
:1001200073104530372500001305858073100530A6
:0C013000971000C0E78040BF6F00000087
:040000058000000077
:00000001FF
