:020000044000BA
:10000000130101FE232E8100130401022326A4FE06
:100010008327C4FE23A007008327C4FE23A4070070
:10002000130000000324C1011301010267800000D6
:10003000130101FE232E8100130401022326A4FED6
:10004000130000000324C1011301010267800000B6
:10005000130101FE232E8100130401022326A4FEB6
:100060008327C4FE23A207008327C4FE1307F0FFE3
:1000700023A0E700130000000324C10113010102C3
:1000800067800000130101FE232E8100130401028A
:100090002326A4FE8327C4FE83A7470093D7070126
:1000A00093F7F70F138507000324C1011301010221
:1000B00067800000130101FE232E8100130401025A
:1000C0002326A4FE8327C4FE83A7470093D7870176
:1000D000138507000324C10113010102678000009A
:1000E000130101FE232E1100232C810013040102B1
:1000F0002326A4FE2324B4FE130000000325C4FE1F
:10010000EFF05FF893070500E38A07FE8327C4FE3C
:10011000032784FE23A0E700130000008320C10111
:10012000032481011301010267800000130101FE15
:10013000232E8100130401022326A4FE2324B4FEEF
:10014000832784FE03A7C7008327C4FE23A4E700F8
:10015000832784FE83A707001387F7FF832784FE86
:1001600083A74700939787003367F700832784FEB0
:1001700083A78700939707013367F7008327C4FE9F
:1001800023A6E700130000000324C10113010102AC
:1001900067800000130101FE232E81001304010279
:1001A0002326A4FE8327C4FE83A7070093F7270016
:1001B000B337F00093F7F70F138507000324C1014D
:1001C0001301010267800000130101FE232E81004C
:1001D000130401022326A4FE8327C4FE1307100084
:1001E00023A0E700130000000324C1011301010252
:1001F00067800000130101FE232E1100232C8100D3
:10020000130401022326A4FE8327C4FE23A00700B3
:10021000130000000325C4FEEFF0DFF7930705008D
:10022000E39A07FE13000000130000008320C101C1
:10023000032481011301010267800000130101FD05
:100240002326810213040103232EA4FC232CB4FCD7
:10025000B72700F00327C4FD23A0E700B72700F06D
:10026000032784FD23A2E700B72700F0130710003F
:1002700023A8E700232604FEB72700F083A7C700C2
:100280002326F4FE8327C4FEE38807FEB72700F089
:1002900083A78700138507000324C102130101030C
:1002A00067800000130101FE232E81001304010268
:1002B0002326A4FE2324B4FEB72700F0938707402B
:1002C000032784FE23A6E700B72700F093870740A3
:1002D0001307100023A4E700B72700F09387074017
:1002E00023A20700B72700F0938707400327C4FE27
:1002F00023A8E700B72700F09387074013071000F3
:1003000023A0E700B72700F09387074023A007004A
:10031000130000000324C1011301010267800000E3
:10032000130101FD2326810213040103232EA4FCE3
:10033000B72700F0938707400327C4FD23A6E700F3
:10034000B72700F09387074023A40700B72700F0E2
:10035000938707401307100023A2E700B72700F098
:10036000938707401307100023A0E700B72700F08A
:100370009387074083A747012326F4FEB72700F0A1
:100380009387074023A007008327C4FE1385070037
:100390000324C1021301010367800000130101FE61
:1003A000232E8100130401022326A4FE2324B4FE7D
:1003B000B73700F093870780032784FE23A4E70064
:1003C000B73700F0938707801307100023A2E700D8
:1003D000B73700F0938707800327C4FE23A6E70002
:1003E000B73700F0938707801307100023A0E700BA
:1003F000B73700F09387078023A0070013000000A1
:100400000324C1011301010267800000130101FDF3
:100410002326810213040103232EA4FCB73700F026
:10042000938707800327C4FD23A4E700B73700F0B4
:100430009387078023A20700B73700F093870780D0
:100440001307100023A0E700B73700F09387078059
:1004500083A707012326F4FEB73700F093870780B0
:1004600023A007008327C4FE138507000324C102CD
:100470001301010367800000130101FE232E110008
:10048000232C8100232A9100130401022326A4FEB9
:100490002324B4FE2322C4FE2320D4FE832784FE1B
:1004A00083A707009305000113850700EFF01FEFF6
:1004B000832784FE9387470083A7070093051001D5
:1004C00013850700EFF09FED832784FE9387870055
:1004D00083A707009305200113850700EFF01FECA9
:1004E000832784FE9387C70083A707009305300105
:1004F00013850700EFF09FEA9305A0000325C4FED3
:10050000EFF0DFE9832744FE83A70700930500028D
:1005100013850700EFF09FE8832744FE9387470089
:1005200083A707009305100213850700EFF01FE76C
:100530009305800013051000EFF05FE61300000044
:1005400013059000EFF09FEC93070500E38A07FE88
:10055000832704FE9384470013051003EFF01FEB7D
:100560009307050023A0F40013050003EFF01FEA32
:1005700013070500832704FE23A0E70013000000F3
:100580008320C1010324810183244101130101025D
:1005900067800000130101FE232E1100232C81002F
:1005A000130401022326A4FE6F0000028327C4FE69
:1005B000138717002326E4FE83C7070093850700EF
:1005C000370501F0EFF0DFB18327C4FE83C70700D2
:1005D000E39E07FC13000000130000008320C1010C
:1005E000032481011301010267800000130101FB54
:1005F000232611042324810413040105930780009A
:10060000232CF4FC232E04FC232004FE9307500328
:100610002322F4FE930784FD93850700370501F03C
:10062000EFF0DFB0B717004013850790EFF09FF6AB
:10063000232404FC232604FC232804FC232A04FC92
:10064000232004FC232204FC232C04FA232E04FA86
:10065000B727110093873723232AF4FCB767554443
:10066000938777672328F4FCB7B799889387B7AB4C
:100670002326F4FCB7F7DDCC9387F7EF2324F4FCB3
:10068000B7472301938777562322F4FCB7D7AB896A
:100690009387F7DE2320F4FC930684FB130704FC06
:1006A000930784FC130607009385070013051000C9
:1006B000EFF09FDC232A04FC232804FC232604FCFF
:1006C000232404FC232204FC232004FC930684FB43
:1006D000130704FC930784FC1306070093850700A7
:1006E00013051000EFF05FD9B7B7CDD8938707781F
:1006F000232AF4FCB7C7B4709387A7552328F4FCCA
:10070000B76786819387A75A2326F4FCB7E7020DC3
:100710009387A7FD2324F4FCB7B7C64393876725C7
:100720002322F4FCB7E79DD79387877E2320F4FC30
:10073000930684FB130704FC930784FC130607004D
:100740009385070013050000EFF01FD3B7B7CDD88E
:1007500093870778232AF4FCB7C7B4709387A7550B
:100760002328F4FCB76786819387A75A2326F4FCD5
:10077000B7E7020D9387A7FD2324F4FCB7E7C4690C
:100780009387870D2322F4FCB7077B6A938707437F
:100790002320F4FC930684FB130704FC930784FCDA
:1007A000130607009385070013051000EFF0DFCC58
:1007B000232604FE9305800013050001EFF01FA817
:1007C0002326A4FEB7C701009385A764B7170700C7
:1007D000138507C8EFF09FA62326A4FE9305A04823
:1007E000B7170700138507C8EFF05FA52326A4FEFF
:1007F000B7370000938577D6B7170700138507C86A
:10080000EFF0DFA32326A4FE232404FE93050000BB
:1008100013055003EFF01FA9930530001305900650
:10082000EFF05FA89305200013056045EFF09FA748
:100830009305100013058007EFF0DFA613053000C5
:10084000EFF01FAE2324A4FE13052000EFF05FADF0
:100850002324A4FE13051000EFF09FAC2324A4FE74
:1008600013050000EFF0DFAB2324A4FE9307000084
:10087000138507008320C1040324810413010105AB
:1008800067800000130101FF23268100130401018A
:10089000130000000324C100130101016780000060
:1008A000600000002003000070000000F002000063
:1008B000020000000D0200000C000000EC0100002E
:1008C000080000004600000010000000400000008A
:1008D00002000000300000000800000028000000B6
:1008E00008000000B800000010000000B000000088
:1008F0000200000082000000060000007E000000F0
:100900004164642047434420506572697068657291
:10091000616C20746F2042726965792D536F430DAD
:020920000A00CB
:0409240000000000CF
:0200000480007A
:100000006F00400B130000001300000013000000FD
:100010001300000013000000130000001300000094
:10002000232E11FE232C51FE232A61FE232871FE6C
:100030002326A1FE2324B1FE2322C1FE2320D1FECC
:10004000232EE1FC232CF1FC232A01FD232811FDA2
:100050002326C1FD2324D1FD2322E1FD2320F1FD30
:10006000130101FC971000C0E78000828320C103C8
:100070008322810303234103832301030325C10258
:100080008325810203264102832601020327C10141
:10009000832781010328410183280101032EC10028
:1000A000832E8100032F4100832F010013010104DF
:1000B00073002030971100C0938141071711000091
:1000C00013014188171500C013054586938581806B
:1000D0006308B50023200500130545006FF05FFF9E
:1000E000171500C0130545841301C1FF971500C003
:1000F00093858583630EB5008326050013054500AF
:100100002320A100E7800600032501006FF01FFEF9
:1001100013014100371500001305058873104530A1
:10012000372500001305858073100530970000C047
:08013000E780004C6F000000A5
:040000058000000077
:00000001FF
