:020000044000BA
:10000000130101FE232E8100130401022326A4FE06
:100010008327C4FE23A007008327C4FE23A4070070
:10002000130000000324C1011301010267800000D6
:10003000130101FE232E8100130401022326A4FED6
:10004000130000000324C1011301010267800000B6
:10005000130101FE232E8100130401022326A4FEB6
:100060008327C4FE23A207008327C4FE1307F0FFE3
:1000700023A0E700130000000324C10113010102C3
:1000800067800000130101FE232E8100130401028A
:100090002326A4FE8327C4FE83A7470093D7070126
:1000A00093F7F70F138507000324C1011301010221
:1000B00067800000130101FE232E8100130401025A
:1000C0002326A4FE8327C4FE83A7470093D7870176
:1000D000138507000324C10113010102678000009A
:1000E000130101FE232E1100232C810013040102B1
:1000F0002326A4FE2324B4FE130000000325C4FE1F
:10010000EFF05FF893070500E38A07FE8327C4FE3C
:10011000032784FE23A0E700130000008320C10111
:10012000032481011301010267800000130101FE15
:10013000232E8100130401022326A4FE2324B4FEEF
:10014000832784FE03A7C7008327C4FE23A4E700F8
:10015000832784FE83A707001387F7FF832784FE86
:1001600083A74700939787003367F700832784FEB0
:1001700083A78700939707013367F7008327C4FE9F
:1001800023A6E700130000000324C10113010102AC
:1001900067800000130101FE232E81001304010279
:1001A0002326A4FE8327C4FE83A7070093F7270016
:1001B000B337F00093F7F70F138507000324C1014D
:1001C0001301010267800000130101FE232E81004C
:1001D000130401022326A4FE8327C4FE1307100084
:1001E00023A0E700130000000324C1011301010252
:1001F00067800000130101FE232E1100232C8100D3
:10020000130401022326A4FE8327C4FE23A00700B3
:10021000130000000325C4FEEFF0DFF7930705008D
:10022000E39A07FE13000000130000008320C101C1
:10023000032481011301010267800000130101FE04
:10024000232E8100130401022326A4FE2324B4FEDE
:10025000B73700F0938707C0032784FE23A4E70085
:10026000B73700F0938707C01307100023A2E700F9
:10027000B73700F0938707C00327C4FE23A6E70023
:10028000B73700F0938707C01307100023A0E700DB
:10029000B73700F0938707C023A0070013000000C2
:1002A0000324C1011301010267800000130101FD55
:1002B0002326810213040103232EA4FCB73700F088
:1002C000938707C00327C4FD23A4E700B73700F0D6
:1002D000938707C023A20700B73700F0938707C0B2
:1002E0001307100023A0E700B73700F0938707C07B
:1002F00083A707012326F4FEB73700F0938707C0D2
:1003000023A007008327C4FE138507000324C1022E
:100310001301010367800000130101FD2326110270
:100320002324810223229102130401039307050071
:100330002324B4FE2322C4FE2320D4FE232EE4FC77
:10034000A307F4FEB74700401385078BEF20405901
:10035000B747004013850791EF208058832544FE5E
:10036000B747004013854791EF20007E832784FE26
:100370009387C70183A70700930500011385070032
:10038000EFF0DFEB832784FE9387870183A70700C5
:100390009305100113850700EFF05FEA832784FEC1
:1003A0009387470183A70700930520011385070062
:1003B000EFF0DFE8832784FE9387070183A7070018
:1003C0009305300113850700EFF05FE7832784FE74
:1003D0009387C70083A70700930540011385070093
:1003E000EFF0DFE5832784FE9387870083A707006C
:1003F0009305500113850700EFF05FE4832784FE27
:100400009387470083A707009305600113850700C2
:10041000EFF0DFE2832784FE83A7070093057001D6
:1004200013850700EFF09FE1832744FE9387470081
:1004300083A707009305000213850700EFF01FE074
:10044000832744FE83A70700930510021385070046
:10045000EFF0DFDE8347F4FE9305A000138507006D
:10046000EFF0DFDD9305B000032504FEEFF01FDDA4
:100470009305800013051000EFF05FDC130000000F
:1004800013059000EFF09FE293070500E38A07FE53
:100490008327C4FD9384C70313050008EFF01FE111
:1004A0009307050023A0F4008327C4FD93848703EA
:1004B00013051008EFF09FDF9307050023A0F40059
:1004C0008327C4FD9384470313052008EFF01FDE44
:1004D0009307050023A0F4008327C4FD938407033A
:1004E00013053008EFF09FDC9307050023A0F4000C
:1004F0008327C4FD9384C70213054008EFF01FDB78
:100500009307050023A0F4008327C4FD938487028A
:1005100013055008EFF09FD99307050023A0F400BE
:100520008327C4FD9384470213056008EFF01FD8AA
:100530009307050023A0F4008327C4FD93840702DA
:1005400013057008EFF09FD69307050023A0F40071
:100550008327C4FD9384C70113058008EFF01FD5DE
:100560009307050023A0F4008327C4FD938487012B
:1005700013059008EFF09FD39307050023A0F40024
:100580008327C4FD938447011305A008EFF01FD211
:100590009307050023A0F4008327C4FD938407017B
:1005A0001305B008EFF09FD09307050023A0F400D7
:1005B0008327C4FD9384C7001305C008EFF01FCF45
:1005C0009307050023A0F4008327C4FD93848700CC
:1005D0001305D008EFF09FCD9307050023A0F4008A
:1005E0008327C4FD938447001305E008EFF01FCC78
:1005F0009307050023A0F4001305F008EFF01FCBCC
:10060000130705008327C4FD23A0E700832584FE8C
:10061000B747004013850793EF20C06B8325C4FDC7
:10062000B747004013854794EF204079130000003E
:100630008320C102032481028324410213010103A8
:1006400067800000130101FE232E810013040102C4
:100650002326A4FE8327C4FE23A007008327C4FE0D
:1006600023A40700130000000324C10113010102A9
:1006700067800000130101FE232E81001304010294
:100680002326A4FE130000000324C101130101026C
:1006900067800000130101FE232E81001304010274
:1006A0002326A4FE8327C4FE23A207008327C4FEBB
:1006B0001307F0FF23A0E700130000000324C1018B
:1006C0001301010267800000130101FE232E810047
:1006D000130401022326A4FE8327C4FE83A7470038
:1006E00093D7070193F7F70F138507000324C10180
:1006F0001301010267800000130101FE232E810017
:10070000130401022326A4FE8327C4FE83A7470007
:1007100093D78701138507000324C1011301010248
:1007200067800000130101FE232E1100232C81009D
:10073000130401022326A4FE2324B4FE13000000A8
:100740000325C4FEEFF05FF893070500E38A07FE78
:100750008327C4FE032784FE23A0E70013000000C4
:100760008320C1010324810113010102678000007D
:10077000130101FE232E8100130401022326A4FE8F
:100780002324B4FE832784FE03A7C7008327C4FE67
:1007900023A4E700832784FE83A707001387F7FFBE
:1007A000832784FE83A74700939787003367F7006A
:1007B000832784FE83A78700939707013367F70099
:1007C0008327C4FE23A6E700130000000324C10111
:1007D0001301010267800000130101FE232E810036
:1007E000130401022326A4FE8327C4FE83A7070067
:1007F00093F72700B337F00093F7F70F138507003F
:100800000324C1011301010267800000130101FEEE
:10081000232E8100130401022326A4FE8327C4FE95
:100820001307100023A0E700130000000324C101F8
:100830001301010267800000130101FE232E110045
:10084000232C8100130401022326A4FE8327C4FE67
:1008500023A00700130000000325C4FEEFF0DFF71C
:1008600093070500E39A07FE130000001300000041
:100870008320C1010324810113010102678000006C
:10088000130101FE232E8100130401022326A4FE7E
:100890002324B4FEB72700F0032784FE23A4E70037
:1008A000B72700F01307100023A2E700B72700F0D6
:1008B0000327C4FE23A6E700B72700F013071000A4
:1008C00023A0E700B72700F023A0070013000000D3
:1008D0000324C1011301010267800000130101FD1F
:1008E0002326810213040103232EA4FCB72700F062
:1008F0000327C4FD23A4E700B72700F023A20700C5
:10090000B72700F01307100023A0E700B72700F077
:1009100083A707012326F4FEB72700F023A00700D2
:100920008327C4FE138507000324C10213010103BA
:1009300067800000130101FE232E1100232C81008B
:10094000232A9100130401022326A4FE2324B4FECB
:100950002322C4FE2320D4FE9305A0000325C4FE59
:10096000EFF01FF2832744FE9387470083A7070019
:100970009305100213850700EFF09FF0832744FED4
:1009800083A707009305000213850700EFF05FEFD0
:10099000832784FE9387C70083A707009305300150
:1009A00013850700EFF0DFED832784FE9387870030
:1009B00083A707009305200113850700EFF05FEC84
:1009C000832784FE9387470083A7070093051001C0
:1009D00013850700EFF0DFEA832784FE83A7070073
:1009E0009305000113850700EFF09FE99305800050
:1009F00013051000EFF0DFE813000000130590006E
:100A0000EFF0DFED93070500E38A07FE832704FE7E
:100A10009384470013051003EFF05FEC9307050084
:100A200023A0F40013050003EFF05FEB13070500AC
:100A3000832704FE23A0E7000327C4FE93071000CA
:100A4000631AF700B74700401385879BEF10506982
:100A50006F000001B74700401385C7A0EF10506832
:100A6000B7470040138507A6EF109067832544FE23
:100A7000B7470040138547A6EF20000D832584FE6D
:100A8000B74700401385C7A7EF200013832504FE56
:100A9000B7470040138507A9EF20000B13000000A3
:100AA0008320C10103248101832441011301010238
:100AB00067800000130101FE232E81001304010250
:100AC0002326A4FE8327C4FE23A007008327C4FE99
:100AD00023A40700130000000324C1011301010235
:100AE00067800000130101FE232E81001304010220
:100AF0002326A4FE130000000324C10113010102F8
:100B000067800000130101FE232E810013040102FF
:100B10002326A4FE8327C4FE23A207008327C4FE46
:100B20001307F0FF23A0E700130000000324C10116
:100B30001301010267800000130101FE232E8100D2
:100B4000130401022326A4FE8327C4FE83A74700C3
:100B500093D7070193F7F70F138507000324C1010B
:100B60001301010267800000130101FE232E8100A2
:100B7000130401022326A4FE8327C4FE83A7470093
:100B800093D78701138507000324C10113010102D4
:100B900067800000130101FE232E1100232C810029
:100BA000130401022326A4FE2324B4FE1300000034
:100BB0000325C4FEEFF05FF893070500E38A07FE04
:100BC0008327C4FE032784FE23A0E7001300000050
:100BD0008320C10103248101130101026780000009
:100BE000130101FE232E8100130401022326A4FE1B
:100BF0002324B4FE832784FE03A7C7008327C4FEF3
:100C000023A4E700832784FE83A707001387F7FF49
:100C1000832784FE83A74700939787003367F700F5
:100C2000832784FE83A78700939707013367F70024
:100C30008327C4FE23A6E700130000000324C1019C
:100C40001301010267800000130101FE232E8100C1
:100C5000130401022326A4FE8327C4FE83A70700F2
:100C600093F72700B337F00093F7F70F13850700CA
:100C70000324C1011301010267800000130101FE7A
:100C8000232E8100130401022326A4FE8327C4FE21
:100C90001307100023A0E700130000000324C10184
:100CA0001301010267800000130101FE232E1100D1
:100CB000232C8100130401022326A4FE8327C4FEF3
:100CC00023A00700130000000325C4FEEFF0DFF7A8
:100CD00093070500E39A07FE1300000013000000CD
:100CE0008320C101032481011301010267800000F8
:100CF000130101FE232E8100130401022326A4FE0A
:100D00008327C4FE9387470023A007008327C4FEE0
:100D100023A00700130000000324C10113010102F6
:100D200067800000130101EB232611142324811492
:100D300013040115930780002320F4FE232204FEF0
:100D4000232404FE930750032326F4FE930704FE96
:100D500093850700370501F0EFF09FE8B7470040A3
:100D6000138547B0EF10D037232804FC232A04FC56
:100D7000232C04FC232E04FC232004FC232204FC4B
:100D8000232404FC232604FC232804FA232A04FA3F
:100D9000232C04FA232E04FAB7470040138587B5A5
:100DA000EF101034B7373433938767532326F4FC9E
:100DB000B7373039938727132324F4FCB7373635F8
:100DC000938787732322F4FCB737323193874733F5
:100DD0002320F4FCB737363793874753232EF4FC90
:100DE000B747303193878793232CF4FCB7373435DA
:100DF00093872733232AF4FCB737383993876773EF
:100E00002328F4FC930604FB130704FC930704FD5A
:100E1000130607009385070013051000EF10C03874
:100E2000B74700401385C7BAEF10902BB747E3A12F
:100E30009387B7D02326F4FCB78777D09387271BF7
:100E40002324F4FCB7F7E5539387A74D2322F4FC42
:100E5000B7572F6F938727312320F4FC930604FBA9
:100E6000130704FC930704FD13060700938507008E
:100E700013050000EF104033B7470040138507C04B
:100E8000EF101026B71793739387A7722326F4FCED
:100E9000B7873DE9938717E12324F4FCB7A7402ED9
:100EA000938767F92322F4FCB7C7C16B938727EEBA
:100EB0002320F4FCB757CF099387C7F3232EF4FC04
:100EC000B717F7AB93878758232CF4FCB7D7AE2816
:100ED0009387672A232AF4FCB7177E2B93876751E1
:100EE0002328F4FC930604FB130704FC930704FD7A
:100EF000130607009385070013051000EF10C02AA2
:100F0000B7470040138547C5EF10901DB7F766241B
:100F1000938777F92326F4FCB7D79EA8938737AF3A
:100F20002324F4FCB7377A0D938707662322F4FC59
:100F3000B787D73A938747BB2320F4FC930604FB7B
:100F4000130704FC930704FD1306070093850700AD
:100F500013050000EF104025B7470040138587CAEE
:100F6000EF101018232804F8232A04F8232C04F87F
:100F7000232E04F8232004FA232204FA232404FA5B
:100F8000232604FAB71793739387A7722326F4FCDA
:100F9000B7873DE9938717E12324F4FCB7A7402ED8
:100FA000938767F92322F4FCB7C7C16B938727EEB9
:100FB0002320F4FCB7E71409938747FF2326F4FAAC
:100FC000B717982D9387370A2324F4FAB717613B94
:100FD0009387778D2322F4FAB737351F938777C02D
:100FE0002320F4FAB7777D8593871778232EF4F8BA
:100FF000B7B7732B938707EF232CF4F8B777CA158D
:101000009387E71B232AF4F8B7F73D60938707B16E
:101010002328F4F8930604FB130704FC930704F950
:10102000130607009385070013051000EF10003E1C
:10103000B7470040138507D1EF10900AB787B13D3D
:101040009387871F2326F4FCB7674B069387E7A790
:101050002324F4FCB7A7D2B59387C7032322F4FC5B
:10106000B7D7EEF39387D71B2320F4FCB7E7140917
:10107000938747FF2326F4FAB717982D9387370AEB
:101080002324F4FAB717613B9387778D2322F4FA70
:10109000B737351F938777C02320F4FAB7777D855C
:1010A00093871778232EF4F8B7B7732B938707EF3E
:1010B000232CF4F8B777CA159387E71B232AF4F893
:1010C000B7F73D60938707B12328F4F8930604FB34
:1010D000130704FC930704F9130607009385070020
:1010E00013050000EF108032B7470040138587D703
:1010F000EF10007FB74700401385C7D7EF10407E41
:10110000232804F6232A04F6232C04F6232E04F6BF
:10111000232004F8232204F8232404F8232604F8C7
:10112000232004F6232204F6232404F6232604F6BF
:10113000232804F4232A04F4232C04F4232E04F497
:10114000B74700401385C7DDEF108079B7C7D68554
:10115000938787E72326F4F8B7775557938737D3D4
:101160002324F4F8B757447F9387E72F2322F4F81A
:10117000B707D5429387876A2320F4F8B78703011E
:101180009387A708232EF4F6B7B70DFB9387D72FC5
:10119000232CF4F6B7F7BF4A9387F76A232AF4F6AD
:1011A000B7F749419387B7512328F4F6930604F51E
:1011B000130704F6930704F7130607009385070047
:1011C00013050000EF204032B74700401385C7E306
:1011D000EF100071B70700312326F4F6930604F5EB
:1011E000130704F6930704F7130607009385070017
:1011F00013051000EF20402FB74700401385C7E9C3
:10120000EF10006EEF200037B74700401385C7EF9F
:10121000EF10006DEF204052B7470040138587D78D
:10122000EF10006CB74700401385C7F5EF10406B17
:10123000232804F2232A04F2232C04F2232E04F29E
:10124000232004F4232204F4232404F4232604F4A6
:10125000232404F2232604F2232604EE232804EE9A
:10126000232A04EE232C04EE232E04EE232004F084
:10127000232204F0232404F0232604F0232804F07E
:10128000232A04F0232C04F0232E04F0232004F25C
:10129000232204F2B74700401385C7DDEF104064F6
:1012A000B74700401385C7FBEF1080631307C4EEF8
:1012B000130684F2930704F39306800093850700D6
:1012C00013050000EFF04F85B7470040138547FE38
:1012D000EF100061930784F213850700EFF05FA120
:1012E0001307C4EE130684F2930704F39306C000B9
:1012F0009385070013050000EFF00F82B747004009
:1013000013850701EF10C05D930784F21385070072
:10131000EFF01F9E1307C4EE130684F2930704F345
:10132000930640019385070013050000EFE0DFFE00
:10133000B74700401385C703EF10805A930784F224
:1013400013850700EFF0DF9A1307C4EE130684F24B
:10135000930704F39306800093850700130510009C
:10136000EFE09FFBB747004013854706EF1040575B
:10137000930784F213850700EFF09F971307C4EEDD
:10138000130684F2930704F39306C00093850700C5
:1013900013051000EFE05FF8B74700401385070919
:1013A000EF100054930784F213850700EFF05F9469
:1013B0001307C4EE130684F2930704F39306400167
:1013C0009385070013051000EFE01FF5B7470040B5
:1013D0001385C7E3EF10C050B74700401385C70B14
:1013E000EF100050B7371E0F9387C7D32326F4F2B0
:1013F000B777594B938777872324F4F2B7271100E7
:10140000938737232326F4F4B76755449387776788
:101410002324F4F4B7B799889387B7AB2322F4F465
:10142000B7F7DDCC9387F7EF2320F4F4B7E7EEFFAF
:101430009387C7DC232EF4F2B7A7AABB93878798BC
:10144000232CF4F2B757667793874754232AF4F294
:10145000B7172233938707102328F4F21307C4EE3B
:10146000130684F2930704F3930680009385070024
:1014700013051000EFE05FEAB74700401385C7E9A6
:10148000EF100046B74700401385C70DEF104045E9
:101490009307F0FF2326F4F29307F0FF2324F4F2DE
:1014A0009307F0FF2326F4F49307F0FF2324F4F4CA
:1014B0009307F0FF2322F4F49307F0FF2320F4F4C2
:1014C0009307F0FF232EF4F29307F0FF232CF4F29E
:1014D0009307F0FF232AF4F29307F0FF2328F4F296
:1014E0001307C4EE130684F2930704F393068000F7
:1014F0009385070013050000EFE01FE2B7470040A7
:101500001385C7EFEF10C03DB7371E0F9387C7D3C2
:101510002326F4F2B777594B938777872324F4F285
:10152000B7271100938737232326F4F4B767554470
:10153000938777672324F4F4B7B799889387B7AB79
:101540002322F4F4B7F7DDCC9387F7EF2320F4F4EC
:10155000232E04F2232C04F2232A04F2232804F27B
:101560001307C4EE130684F2930704F39306800076
:101570009385070013050000EFE01FDAB74700402E
:101580001385C711EF10C035232E04EC232004EE81
:10159000232204EE232404EE232A04EC232C04EC5F
:1015A000232604EC232804ECB747004013850717D3
:1015B000EF100033B7E7C4699387870D232CF4EC51
:1015C000B7077B6A93870743232AF4ECB7B7CDD8D4
:1015D000938707782324F4EEB7C7B4709387A75591
:1015E0002322F4EEB76786819387A75A2320F4EE6F
:1015F000B7E7020D9387A7FD232EF4EC9306C4EC06
:10160000130744ED9307C4ED130607009385070005
:1016100013051000EFF00FB2B74700401385471CC9
:10162000EF10002CB7B7C64393876725232CF4EC43
:10163000B7E79DD79387877E232AF4EC9306C4EC03
:10164000130744ED9307C4ED1306070093850700C5
:1016500013050000EFF00FAEB7470040138587D7A2
:10166000EF100028B747004013858721EF1040276F
:10167000232004EC232204EC232404EC232C04EA8E
:10168000232E04EA232804EA232A04EAB747004069
:101690001385C726EF10C024B777744C938777E67D
:1016A000232EF4EAB76779759387E756232CF4EA7B
:1016B000B7776546938757462324F4ECB767486CA1
:1016C0009387D7362322F4ECB777000093873757F8
:1016D0002320F4EC930604EB130784EB930704EC4C
:1016E000130607009385070013050000EF00C04DA7
:1016F000B74700401385072CEF10801EB7071D0E5B
:101700009387470D232EF4EAB7B76BE49387C79905
:10171000232CF4EA930604EB130784EB930704EC01
:10172000130607009385070013051000EF00C0495A
:10173000B7470040138587D7EF10801AB74700409E
:1017400013854731EF10C019B74700401385C726EE
:10175000EF100019B777744C938777E6232EF4EADD
:10176000B76779759387E756232CF4EAB777654610
:10177000938757462324F4ECB767486C9387D73692
:101780002322F4ECB7770000938737572320F4EC3B
:10179000930604EB130784EB930704EC138606000F
:1017A0009305070013850700EF00C05AB7470040B4
:1017B0001385072CEF10C012B777654693875746FD
:1017C000232EF4EAB7575F6C93873755232CF4EA3E
:1017D000232404EC232204EC930710002320F4ECD0
:1017E000930604EB130784EB930704EC13860600BF
:1017F0009305070013850700EF00C055B747004069
:1018000013858736EF10C00DB7373831938707231C
:10181000232EF4EAB747313093873783232CF4EA39
:10182000B7373831938707232324F4ECB747313097
:10183000938737832322F4ECB757000093873755FB
:101840002320F4EC930604EB130784EB930704ECDA
:10185000138606009305070013850700EF00804FED
:1018600093070000138507008320C114032481140B
:101870001301011567800000130101FF2326810079
:1018800013040101130000000324C100130101012E
:1018900067800000130101FE232E81001304010262
:1018A0002326A4FE8327C4FE23A007008327C4FEAB
:1018B00023A40700130000000324C1011301010247
:1018C00067800000130101FE232E81001304010232
:1018D0002326A4FE130000000324C101130101020A
:1018E00067800000130101FE232E81001304010212
:1018F0002326A4FE8327C4FE23A207008327C4FE59
:101900001307F0FF23A0E700130000000324C10128
:101910001301010267800000130101FE232E8100E4
:10192000130401022326A4FE8327C4FE83A74700D5
:1019300093D7070193F7F70F138507000324C1011D
:101940001301010267800000130101FE232E8100B4
:10195000130401022326A4FE8327C4FE83A74700A5
:1019600093D78701138507000324C10113010102E6
:1019700067800000130101FE232E1100232C81003B
:10198000130401022326A4FE2324B4FE1300000046
:101990000325C4FEEFF05FF893070500E38A07FE16
:1019A0008327C4FE032784FE23A0E7001300000062
:1019B0008320C1010324810113010102678000001B
:1019C000130101FE232E8100130401022326A4FE2D
:1019D0002324B4FE832784FE03A7C7008327C4FE05
:1019E00023A4E700832784FE83A707001387F7FF5C
:1019F000832784FE83A74700939787003367F70008
:101A0000832784FE83A78700939707013367F70036
:101A10008327C4FE23A6E700130000000324C101AE
:101A20001301010267800000130101FE232E8100D3
:101A3000130401022326A4FE8327C4FE83A7070004
:101A400093F72700B337F00093F7F70F13850700DC
:101A50000324C1011301010267800000130101FE8C
:101A6000232E8100130401022326A4FE8327C4FE33
:101A70001307100023A0E700130000000324C10196
:101A80001301010267800000130101FE232E1100E3
:101A9000232C8100130401022326A4FE8327C4FE05
:101AA00023A00700130000000325C4FEEFF0DFF7BA
:101AB00093070500E39A07FE1300000013000000DF
:101AC0008320C1010324810113010102678000000A
:101AD000130101FE232E8100130401022326A4FE1C
:101AE0002324B4FEB72700F093870740032784FE22
:101AF00023A6E700B72700F09387074023A207003B
:101B0000B72700F0938707401307100023A4E700CE
:101B1000B72700F0938707400327C4FE23A8E700F8
:101B2000B72700F09387074023A00700B72700F0EE
:101B3000938707401307100023A0E700130000005D
:101B40000324C1011301010267800000130101FD9C
:101B50002326810213040103232EA4FCB72700F0DF
:101B6000938707400327C4FD23A6E700B72700F0AB
:101B70009387074023A40700B72700F09387074007
:101B80001307100023A2E700B72700F09387074050
:101B900023A00700B72700F09387074083A74701DA
:101BA0002326F4FEB72700F09387074013071000A1
:101BB00023A0E7008327C4FE138507000324C10286
:101BC0001301010367800000130101FE232E1100A1
:101BD000232C8100232A910013040102930705009E
:101BE0002324B4FE2322C4FE2320D4FEA307F4FE44
:101BF0008347F4FE639A07009305800013050000F5
:101C0000EFF01FED6F00C0010347F4FE93071000D3
:101C10006318F7009305800013051000EFF05FEBE9
:101C2000832744FE9387470083A70700930550004E
:101C300013850700EFF0DFE9832744FE83A7070041
:101C40009305400013850700EFF09FE8832784FE8B
:101C50009387870083A7070093053000138507004B
:101C6000EFF01FE7832784FE9387470083A70700D1
:101C70009305200013850700EFF09FE5832784FE7E
:101C800083A707009305100013850700EFF05FE4BA
:101C90009305000013051000EFF09FE31300000010
:101CA00013056000EFF09FEA93070500E38A07FE43
:101CB000832704FE9384470013057000EFF01FE9AB
:101CC0009307050023A0F40013056000EFF01FE860
:101CD00013070500832704FE23A0E7008347F4FED3
:101CE000639A0700B74700401385C741EF00503F94
:101CF0006F000001B747004013850747EF00503ED3
:101D0000B74700401385474CEF00903D832544FEC4
:101D1000B74700401385874CEF001063832584FE8E
:101D2000B74700401385474EEF009072832504FEAD
:101D3000B74700401385474FEF00106113000000C4
:101D40008320C10103248101832441011301010285
:101D500067800000130101FE232E1100232C810057
:101D6000232A9100130401022326A4FE2324B4FE97
:101D70002322C4FE832784FE9387470083A707009E
:101D80009305500013850700EFF09FD4832784FE4E
:101D900083A707009305400013850700EFF05FD38A
:101DA0008327C4FE9387870083A70700930530002D
:101DB00013850700EFF0DFD18327C4FE9387470028
:101DC00083A707009305200013850700EFF05FD07D
:101DD0008327C4FE83A7070093051000138507001F
:101DE000EFF01FCF9305000013051000EFF05FCE5A
:101DF0001300000013059000EFF05FD59307050076
:101E0000E38A07FE832744FE938447001305A0005E
:101E1000EFF0DFD39307050023A0F4001305900033
:101E2000EFF0DFD213070500832744FE23A0E7006D
:101E3000B747004013858750EF00902AB74700400E
:101E40001385474CEF00D029832584FEB747004017
:101E50001385874CEF00504F8325C4FEB7470040E1
:101E60001385474EEF00D05E832544FEB747004000
:101E70001385474FEF00504D130000008320C10130
:101E800003248101832441011301010267800000C2
:101E9000130101FE232E8100130401022326A4FE58
:101EA0008327C4FE23A007008327C4FE23A40700C2
:101EB000130000000324C101130101026780000028
:101EC000130101FE232E8100130401022326A4FE28
:101ED000130000000324C101130101026780000008
:101EE000130101FE232E8100130401022326A4FE08
:101EF0008327C4FE23A207008327C4FE1307F0FF35
:101F000023A0E700130000000324C1011301010214
:101F100067800000130101FE232E810013040102DB
:101F20002326A4FE8327C4FE83A7470093D7070177
:101F300093F7F70F138507000324C1011301010272
:101F400067800000130101FE232E810013040102AB
:101F50002326A4FE8327C4FE83A7470093D78701C7
:101F6000138507000324C1011301010267800000EB
:101F7000130101FE232E1100232C81001304010202
:101F80002326A4FE2324B4FE130000000325C4FE70
:101F9000EFF05FF893070500E38A07FE8327C4FE8E
:101FA000032784FE23A0E700130000008320C10163
:101FB000032481011301010267800000130101FE67
:101FC000232E8100130401022326A4FE2324B4FE41
:101FD000832784FE03A7C7008327C4FE23A4E7004A
:101FE000832784FE83A707001387F7FF832784FED8
:101FF00083A74700939787003367F700832784FE02
:1020000083A78700939707013367F7008327C4FEF0
:1020100023A6E700130000000324C10113010102FD
:1020200067800000130101FE232E810013040102CA
:102030002326A4FE8327C4FE83A7070093F7270067
:10204000B337F00093F7F70F138507000324C1019E
:102050001301010267800000130101FE232E81009D
:10206000130401022326A4FE8327C4FE13071000D5
:1020700023A0E700130000000324C10113010102A3
:1020800067800000130101FE232E1100232C810024
:10209000130401022326A4FE8327C4FE23A0070005
:1020A000130000000325C4FEEFF0DFF793070500DF
:1020B000E39A07FE13000000130000008320C10113
:1020C000032481011301010267800000130101FE56
:1020D000232E8100130401022326A4FE2324B4FE30
:1020E000B73700F093870740032784FE23A4E70057
:1020F000B73700F0938707401307100023A2E700CB
:10210000B73700F0938707400327C4FE23A6E700F4
:10211000B73700F0938707401307100023A0E700AC
:10212000B73700F09387074023A007001300000093
:102130000324C1011301010267800000130101FDA6
:102140002326810213040103232EA4FCB73700F0D9
:10215000938707400327C4FD23A4E700B73700F0A7
:102160009387074023A20700B73700F09387074003
:102170001307100023A0E700B73700F0938707404C
:1021800083A707012326F4FEB73700F093870740A3
:1021900023A007008327C4FE138507000324C10280
:1021A0001301010367800000130101FD23261102C2
:1021B00023248102232291021304010393070500C3
:1021C000232CB4FC232AC4FC2328D4FCA30FF4FC46
:1021D0009305700113050000EFF05FEF93056001B8
:1021E00013050000EFF09FEE93055001130500006A
:1021F000EFF0DFED9305400113050000EFF01FED58
:10220000832784FD9387C70083A7070093053001C8
:1022100013850700EFF09FEB832784FD93878700EA
:1022200083A707009305200113850700EFF01FEA3D
:10223000832784FD9387470083A707009305100138
:1022400013850700EFF09FE8832784FD83A707002D
:102250009305000113850700EFF05FE79305A000E9
:1022600013050000EFF09FE69305800013051000B2
:10227000EFF0DFE51300000013059000EFF01FEC16
:1022800093070500E38A07FE832744FD9387C70071
:1022900083A707009305300213850700EFF01FE3C3
:1022A000832744FD9387870083A7070093052002B7
:1022B00013850700EFF09FE1832744FD93874700D4
:1022C00083A707009305100213850700EFF01FE0B6
:1022D000832744FD83A707009305000213850700A9
:1022E000EFF0DFDEA30704FE0347F4FD93071000C1
:1022F0006318F70093071000A307F4FE6F00800037
:10230000A30704FE8347F4FE9305A000138507008E
:10231000EFF0DFDB9305800013052000EFF01FDBFB
:102320001300000013059000EFF05FE19307050034
:10233000E38A07FE832704FD9384C7001305300357
:10234000EFF0DFDF9307050023A0F400832704FDEF
:102350009384870013052003EFF05FDE93070500E9
:1023600023A0F400832704FD938447001305100382
:10237000EFF0DFDC9307050023A0F4001305000352
:10238000EFF0DFDB13070500832704FD23A0E70040
:102390000347F4FD93071000631AF700B7470040A6
:1023A0001385C75BEF00C0536F000001B7470040C3
:1023B0001385C760EF00C052832544FDB747004036
:1023C0001385C765EF00407F832584FDB747004034
:1023D00013858767EF00407E832504FDB7470040E3
:1023E0001385C768EF00407DB74700401385076A33
:1023F000EF00004F130000008320C102032481027C
:10240000832441021301010367800000130101FDD1
:1024100023261102232481022322910213040103A3
:1024200093070500232CB4FC232AC4FC2328D4FCE6
:10243000A30FF4FC832784FD9387C70183A70700BC
:102440009305700113850700EFF05FC8832784FDB3
:102450009387870183A70700930560011385070011
:10246000EFF0DFC6832784FD9387470183A707002A
:102470009305500113850700EFF05FC5832784FDA6
:102480009387070183A70700930540011385070081
:10249000EFF0DFC3832784FD9387C70083A707007E
:1024A0009305300113850700EFF05FC2832784FD99
:1024B0009387870083A707009305200113850700F2
:1024C000EFF0DFC0832784FD9387470083A70700D1
:1024D0009305100113850700EFF05FBF832784FD8C
:1024E00083A707009305000113850700EFF01FBEC7
:1024F0009305A00013052000EFF05FBD9305800059
:1025000013051000EFF09FBC1300000013059000AE
:10251000EFF0DFC293070500E38A07FE832744FD3F
:102520009387C70083A70700930530021385070030
:10253000EFF0DFB9832744FD9387870083A7070067
:102540009305200213850700EFF05FB8832744FD51
:102550009387470083A707009305100213850700A0
:10256000EFF0DFB6832744FD83A707009305000241
:1025700013850700EFF09FB5A30704FE0347F4FDA2
:10258000930710006318F70093073000A307F4FEC9
:102590006F00C00093072000A307F4FE8347F4FEFA
:1025A0009305A00013850700EFF05FB2930580004C
:1025B00013052000EFF09FB11300000013059000F9
:1025C000EFF0DFB793070500E38A07FE832704FDDA
:1025D0009384C70013053003EFF05FB6930705003F
:1025E00023A0F400832704FD9384870013052003B0
:1025F000EFF0DFB49307050023A0F400832704FD68
:102600009384470013051003EFF05FB393070500B1
:1026100023A0F40013050003EFF05FB213070500D9
:10262000832704FD23A0E7000347F4FD9307100070
:10263000631AF700B74700401385476FEF00402A41
:102640006F000001B747004013858775EF004029F0
:10265000832544FDB74700401385C765EF00C0558B
:10266000832584FDB74700401385C77BEF00806654
:10267000832504FDB74700401385C768EF00C053AA
:10268000B74700401385077DEF0080251300000049
:102690008320C10203248102832441021301010328
:1026A00067800000130101FE232E81001304010244
:1026B0002326A4FE8327C4FE23A007008327C4FE8D
:1026C00023A40700130000000324C1011301010229
:1026D00067800000130101FE232E81001304010214
:1026E0002326A4FE130000000324C10113010102EC
:1026F00067800000130101FE232E810013040102F4
:102700002326A4FE8327C4FE23A207008327C4FE3A
:102710001307F0FF23A0E700130000000324C1010A
:102720001301010267800000130101FE232E8100C6
:10273000130401022326A4FE8327C4FE83A74700B7
:1027400093D7070193F7F70F138507000324C101FF
:102750001301010267800000130101FE232E810096
:10276000130401022326A4FE8327C4FE83A7470087
:1027700093D78701138507000324C10113010102C8
:1027800067800000130101FE232E1100232C81001D
:10279000130401022326A4FE2324B4FE1300000028
:1027A0000325C4FEEFF05FF893070500E38A07FEF8
:1027B0008327C4FE032784FE23A0E7001300000044
:1027C0008320C101032481011301010267800000FD
:1027D000130101FE232E8100130401022326A4FE0F
:1027E0002324B4FE832784FE03A7C7008327C4FEE7
:1027F00023A4E700832784FE83A707001387F7FF3E
:10280000832784FE83A74700939787003367F700E9
:10281000832784FE83A78700939707013367F70018
:102820008327C4FE23A6E700130000000324C10190
:102830001301010267800000130101FE232E8100B5
:10284000130401022326A4FE8327C4FE83A70700E6
:1028500093F72700B337F00093F7F70F13850700BE
:102860000324C1011301010267800000130101FE6E
:10287000232E8100130401022326A4FE8327C4FE15
:102880001307100023A0E700130000000324C10178
:102890001301010267800000130101FE232E1100C5
:1028A000232C8100130401022326A4FE8327C4FEE7
:1028B00023A00700130000000325C4FEEFF0DFF79C
:1028C00093070500E39A07FE1300000013000000C1
:1028D0008320C101032481011301010267800000EC
:1028E000130101FE232E1100232C81001304010289
:1028F0002326A4FE6F0000028327C4FE138717005F
:102900002326E4FE83C7070093850700370501F0FF
:10291000EFF05FE78327C4FE83C70700E39E07FC51
:1029200013000000130000008320C1010324810173
:102930001301010267800000130101FC232E110224
:10294000232C8102130401042326A4FC232604FE65
:10295000232E04FC232004FE8327C4FC93F7F700F6
:10296000375700401307C789B307F70003C70700AD
:102970008327C4FE930604FFB387F6002386E7FE91
:102980008327C4FE938717002326F4FE8327C4FC05
:1029900093D747002326F4FC8327C4FCE39E07FA61
:1029A0000327C4FE9307700063CEE702930770000D
:1029B0002324F4FE6F00400213070003832784FEE4
:1029C000930604FFB387F6002386E7FE832784FE81
:1029D0009387F7FF2324F4FE032784FE8327C4FE96
:1029E000E35CF7FC930730002322F4FE6F00C00283
:1029F000832744FE130704FFB307F70083C7C7FE0E
:102A000093850700370501F0EFF0DFD7832744FEF9
:102A10009387F7FF2322F4FE832744FEE3DA07FCC3
:102A2000B757004013858789EFF09FEB1300000034
:102A30008320C10303248103130101046780000084
:102A4000130101FC232E1102232C81021304010423
:102A50002326A4FC232604FE232E04FC232004FEAC
:102A60008327C4FC93F7F700375700401307C78943
:102A7000B307F70003C707008327C4FE930604FFCC
:102A8000B387F6002386E7FE8327C4FE93871700EB
:102A90002326F4FE8327C4FC93D747002326F4FCA7
:102AA0008327C4FCE39E07FA0327C4FE9307700044
:102AB00063CEE702930770002324F4FE6F00400208
:102AC00013070003832784FE930604FFB387F600F1
:102AD0002386E7FE832784FE9387F7FF2324F4FEF3
:102AE000032784FE8327C4FEE35CF7FC9307700092
:102AF0002322F4FE6F00C002832744FE130704FF65
:102B0000B307F70083C7C7FE93850700370501F0B9
:102B1000EFF05FC7832744FE9387F7FF2322F4FE7D
:102B2000832744FEE3DA07FCB75700401385878903
:102B3000EFF01FDB130000008320C1030324810397
:102B40001301010467800000130101FE232E110010
:102B5000232C8100130401022326A4FE2324B4FEA7
:102B6000B75700401385078BEFF09FD70325C4FEAE
:102B7000EFF01FD7832784FE9387470083A70700C2
:102B800013850700EFF0DFEB832784FE83A70700A0
:102B900013850700EFF0DFEAB75700401385478B36
:102BA000EFF01FD4130000008320C1010324810132
:102BB0001301010267800000130101FE232E1100A2
:102BC000232C8100130401022326A4FE2324B4FE37
:102BD000B75700401385078BEFF09FD00325C4FE45
:102BE000EFF01FD0832784FE9387C70083A70700D9
:102BF00013850700EFF0DFE4832784FE93878700C7
:102C000083A7070013850700EFF09FE3832784FE67
:102C10009387470083A7070013850700EFF05FE263
:102C2000832784FE83A7070013850700EFF05FE189
:102C3000B75700401385478BEFF09FCA1300000081
:102C40008320C10103248101130101026780000078
:102C5000130101FE232E1100232C81001304010215
:102C60002326A4FE2324B4FEB75700401385078B08
:102C7000EFF01FC70325C4FEEFF09FC6832784FE35
:102C80009387870083A7070013850700EFF05FDBBA
:102C9000832784FE9387470083A7070013850700D7
:102CA000EFF01FDA832784FE83A707001385070050
:102CB000EFF09FC8B75700401385478BEFF05FC216
:102CC000130000008320C1010324810113010102CC
:102CD00067800000130101FE232E1100232C8100C8
:102CE000130401022326A4FE2324B4FEB757004098
:102CF0001385078BEFF0DFBE0325C4FEEFF05FBE48
:102D0000832784FE9387C70183A7070013850700E5
:102D1000EFF01FD3832784FE9387870183A70700E3
:102D200013850700EFF0DFD1832784FE93874701E7
:102D300083A7070013850700EFF09FD0832784FE49
:102D40009387070183A7070013850700EFF05FCF84
:102D5000832784FE9387C70083A707001385070096
:102D6000EFF01FCE832784FE9387870083A7070099
:102D700013850700EFF0DFCC832784FE938747009D
:102D800083A7070013850700EFF09FCB832784FEFE
:102D900083A7070013850700EFF09FCAB7570040CD
:102DA0001385478BEFF0DFB3130000008320C101D0
:102DB000032481011301010267800000130101FE59
:102DC000232E1100232C8100130401022326A4FECC
:102DD0002324B4FEB75700401385078BEFF05FB094
:102DE0000325C4FEEFF0DFAF832784FE9387C7037C
:102DF00083A7070013850700EFF09FC4832784FE95
:102E00009387870383A7070013850700EFF05FC34D
:102E1000832784FE9387470383A707001385070052
:102E2000EFF01FC2832784FE9387070383A7070061
:102E300013850700EFF0DFC0832784FE9387C70266
:102E400083A7070013850700EFF09FBF832784FE49
:102E50009387870283A7070013850700EFF05FBE03
:102E6000832784FE9387470283A707001385070003
:102E7000EFF01FBD832784FE9387070283A7070017
:102E800013850700EFF0DFBBB75700401385478B72
:102E9000EFF01FA5B75700401385878BEFF05FA4B5
:102EA000832784FE9387C70183A707001385070044
:102EB000EFF01FB9832784FE9387870183A707005C
:102EC00013850700EFF0DFB7832784FE9387470160
:102ED00083A7070013850700EFF09FB6832784FEC2
:102EE0009387070183A7070013850700EFF05FB5FD
:102EF000832784FE9387C70083A7070013850700F5
:102F0000EFF01FB4832784FE9387870083A7070011
:102F100013850700EFF0DFB2832784FE9387470015
:102F200083A7070013850700EFF09FB1832784FE76
:102F300083A7070013850700EFF09FB0B757004045
:102F40001385478BEFF0DF99130000008320C10148
:102F5000032481011301010267800000130101FEB7
:102F6000232E8100130401022326A4FE8327C4FE1E
:102F700023A007008327C4FE23A40700130000003A
:102F80000324C1011301010267800000130101FE47
:102F9000232E8100130401022326A4FE1300000047
:102FA0000324C1011301010267800000130101FE27
:102FB000232E8100130401022326A4FE8327C4FECE
:102FC00023A207008327C4FE1307F0FF23A0E70016
:102FD000130000000324C1011301010267800000F7
:102FE000130101FE232E8100130401022326A4FEF7
:102FF0008327C4FE83A7470093D7070193F7F70FF2
:10300000138507000324C10113010102678000003A
:10301000130101FE232E8100130401022326A4FEC6
:103020008327C4FE83A7470093D787011385070032
:103030000324C1011301010267800000130101FE96
:10304000232E1100232C8100130401022326A4FE49
:103050002324B4FE130000000325C4FEEFF05FF844
:1030600093070500E38A07FE8327C4FE032784FE37
:1030700023A0E700130000008320C1010324810185
:103080001301010267800000130101FE232E81005D
:10309000130401022326A4FE2324B4FE832784FE06
:1030A00003A7C7008327C4FE23A4E700832784FE69
:1030B00083A707001387F7FF832784FE83A74700B2
:1030C000939787003367F700832784FE83A78700E1
:1030D000939707013367F7008327C4FE23A6E70011
:1030E000130000000324C1011301010267800000E6
:1030F000130101FE232E8100130401022326A4FEE6
:103100008327C4FE83A7070093F72700B337F00097
:1031100093F7F70F138507000324C1011301010280
:1031200067800000130101FE232E810013040102B9
:103130002326A4FE8327C4FE1307100023A0E70064
:10314000130000000324C101130101026780000085
:10315000130101FE232E1100232C81001304010210
:103160002326A4FE8327C4FE23A00700130000002B
:103170000325C4FEEFF0DFF793070500E39A07FE8F
:1031800013000000130000008320C101032481010B
:103190001301010267800000130101FE232E81004C
:1031A000130401022326A4FE2324B4FEB73700F043
:1031B000032784FE23A4E700B73700F013071000AD
:1031C00023A2E700B73700F00327C4FE23A6E700D9
:1031D000B73700F01307100023A0E700B73700F05F
:1031E00023A00700130000000324C1011301010202
:1031F00067800000130101FD2326810213040103EF
:10320000232EA4FCB73700F00327C4FD23A4E70056
:10321000B73700F023A20700B73700F013071000FC
:1032200023A0E700B73700F083A707012326F4FEA9
:10323000B73700F023A007008327C4FE13850700DB
:103240000324C1021301010367800000130101FE82
:10325000232E1100232C8100130401022326A4FE37
:103260008327C4FE9387C70183A707009305000146
:1032700013850700EFF05FF28327C4FE9387870171
:1032800083A707009305100113850700EFF0DFF017
:103290008327C4FE9387470183A707009305200176
:1032A00013850700EFF05FEF8327C4FE93870701C4
:1032B00083A707009305300113850700EFF0DFEDCA
:1032C0008327C4FE9387C70083A7070093054001A7
:1032D00013850700EFF05FEC8327C4FE9387870018
:1032E00083A707009305500113850700EFF0DFEA7D
:1032F0008327C4FE9387470083A7070093056001D7
:1033000013850700EFF05FE98327C4FE83A707005A
:103310009305700113850700EFF01FE89305000285
:1033200013050000EFF05FE793051002130500009E
:10333000EFF09FE69305200213050000EFF0DFE5B4
:103340009305300213050000EFF01FE593058000A0
:1033500013051000EFF05FE4130000001305900068
:10336000EFF05FE993070500E38A07FE1300000012
:10337000130000008320C101032481011301010215
:1033800067800000130101FE232E1100232C810011
:10339000130401022326A4FE2324B4FE832784FE03
:1033A0009387C70083A707009305000213850700D2
:1033B000EFF09FDE832784FE9387870083A70700B3
:1033C0009305100213850700EFF01FDD832784FEAD
:1033D0009387470083A70700930520021385070002
:1033E000EFF09FDB832784FE83A70700930530025D
:1033F00013850700EFF05FDA9305A0000325C4FEF4
:10340000EFF09FD99305800013052000EFF0DFD87F
:103410001300000013059000EFF0DFDD93070500B7
:10342000E38A07FE13000000130000008320C1019F
:10343000032481011301010267800000130101FED2
:10344000232E1100232C8100232A91001304010252
:103450002326A4FE9305800013054000EFF0DFD380
:103460001300000013059000EFF0DFD8930705006C
:10347000E38A07FE8327C4FE9384C7001305000375
:10348000EFF05FD79307050023A0F4008327C4FE65
:103490009384870013051003EFF0DFD59307050031
:1034A00023A0F4008327C4FE938447001305200360
:1034B000EFF05FD49307050023A0F4001305300359
:1034C000EFF05FD3130705008327C4FE23A0E700B6
:1034D000130000008320C1010324810183244101E2
:1034E0001301010267800000130101FE232E110069
:1034F000232C8100130401022326A4FE2324B4FEFE
:103500002322C4FE2320D4FE032584FEEFF01FD423
:10351000832544FE0325C4FEEFF0DFE6032504FE09
:10352000EFF0DFF1B757004013850793EFF04FBB83
:10353000832544FEB757004013854793EFF0CFE74C
:10354000832584FEB757004013850795EFF08FF869
:10355000832504FEB757004013850796EFF0CFE5AB
:10356000130000008320C101032481011301010223
:1035700067800000130101F9232611062324810628
:1035800013040107B7C7D685938787E72326F4FE80
:10359000B7775557938737D32324F4FEB757447F23
:1035A0009387E72F2322F4FEB707D5429387876AD4
:1035B0002320F4FEB78703019387A708232EF4FC8A
:1035C000B7B70DFB9387D72F232CF4FCB7F7BF4A6F
:1035D0009387F76A232AF4FCB7F749419387B751D9
:1035E0002328F4FCB7877243938707972326F4FCBC
:1035F000B7676F74938727772324F4FCB7777061DC
:10360000938797862322F4FCB74720639387F76656
:103610002320F4FCB7777572938707D2232EF4FA30
:10362000B777655293875736232CF4FAB7677261E0
:1036300093878736232AF4FAB77747209387F726AC
:103640002328F4FAB70770752326F4FA232404FA22
:10365000232204FA232004FA232804F8232A04F856
:10366000232C04F8232E04F8930704FD1385070088
:10367000EFF0DFBD930704FC9385070013050001FD
:10368000EFF05FD0930704FB93850700130500015B
:10369000EFF05FCF930704FA93850700130520002E
:1036A000EFF05FCE930704F913850700EFF01FD901
:1036B000930704FC93850700B7570040138547978D
:1036C000EFF08FCF930704FB93850700B7570040B7
:1036D00013850799EFF04FCEB75700401385079930
:1036E000EFF00FA0B777000013850757EFF0CFA4D6
:1036F000B757004013850793EFF08F9E930704FDA3
:1037000093850700B757004013850795EFF08FDCCE
:10371000930704F993850700B75700401385079670
:10372000EFF08FC9130000008320C1060324810637
:103730001301010767800000130101F92326110618
:103740002324810613040107232E04F8232004FAFE
:10375000232204FA232404FAB70700F32324F4FEF7
:10376000232204FE232004FE9307F003232EF4FCFF
:10377000B707003F232CF4FC232A04FC232804FC75
:103780009307300F2326F4FC9307F0FF2324F4FC67
:103790009307F0FF2322F4FC9307F0FF2320F4FCAF
:1037A0009307F0FF232EF4FAB7070001232CF4FA55
:1037B000232A04FA232804FA232604FA9307C4FCD4
:1037C00013850700EFF09FA8232604FE6F00000278
:1037D0009307C4FB9385070013050001EFF09FBA20
:1037E0008327C4FE938717002326F4FE0327C4FE15
:1037F0009307F003E3DEE7FC9307C4FA9385070021
:1038000013051000EFF01FB89307C4F913850700E4
:10381000EFF0DFC29307C4FC93850700B757004061
:103820001385C79AEFF00FCB9307C4F99385070070
:10383000B757004013850796EFF00FB8130000004C
:103840008320C1060324810613010107678000005D
:10385000600000002003000070000000F002000083
:10386000020000000D0200000C000000EC0100004E
:1038700008000000460000001000000040000000AA
:1038800002000000300000000800000028000000D6
:1038900008000000B800000010000000B0000000A8
:1038A0000200000082000000060000007E00000010
:1038B0000D093D3D3D3D3D3D3D3D3D3D3D3D3D3D9C
:1038C0003D3D3D3D3D3D3D3D3D3D3D3D3D3D3D3D28
:1038D0003D3D3D3D434841434841323020434950FE
:1038E0004845523D3D3D3D3D3D3D3D3D3D3D3D3DE0
:1038F0003D3D3D3D3D3D3D3D3D3D3D3D3D3D3D3DF8
:103900003D3D3D3D3D3D3D3D3D3D3D3D0D0A0000C4
:103910000D0A00000D09504C41494E5F5445585462
:10392000202836342D62697429203A2000000000D6
:103930004B455920283132382F3235362D62697483
:10394000293A2000524553554C5420283531322D08
:1039500062697429203A2000600000002003000002
:1039600070000000F0020000020000000D020000E4
:103970000C000000EC010000080000004600000000
:1039800010000000400000000200000030000000B5
:10399000080000002800000008000000B800000037
:1039A00010000000B00000000200000082000000D3
:1039B000060000007E0000000D093D3D3D3D3D3DFF
:1039C0003D3D3D3D3D3D3D3D3D3D3D3D3D3D3D3D27
:1039D0003D3D3D3D3D3D3D5052494E434520454EC8
:1039E000435259505454494F4E3D3D3D3D3D3D3D60
:1039F0003D3D3D3D3D3D3D3D3D3D3D3D3D3D3D3DF7
:103A00003D3D3D3D3D3D0D0A000000000D093D3DA1
:103A10003D3D3D3D3D3D3D3D3D3D3D3D3D3D3D3DD6
:103A20003D3D3D3D3D3D3D3D3D3D3D5052494E437B
:103A300045204445435259505454494F4E3D3D3D15
:103A40003D3D3D3D3D3D3D3D3D3D3D3D3D3D3D3DA6
:103A50003D3D3D3D3D3D3D3D3D3D0D0A00000000ED
:103A60000D0A0000504C41494E5F544558542028DF
:103A700036342D62697429203A2000004B455920C4
:103A8000283132382D62697429203A200000000064
:103A9000524553554C54202836342D6269742920E0
:103AA0003A200000600000002003000070000000C9
:103AB000F0020000020000000D0200000C000000F7
:103AC000EC010000080000004600000010000000AB
:103AD000400000000200000030000000080000006C
:103AE0002800000008000000B800000010000000DE
:103AF000B00000000200000082000000060000008C
:103B00007E0000000D092A2A2A2A2A2A2A2A2A2A7D
:103B10002A2A2A2A2A2A2A2A2A2A2A2A2A2A2A2A05
:103B20002A2A2A2A2A2A2A41455320544553542A0C
:103B30002A2A2A2A2A2A2A2A2A2A2A2A2A2A2A2AE5
:103B40002A2A2A2A2A2A2A2A2A2A2A2A2A2A2A2AD5
:103B50002A2A0D0A000000000D0A093D3D3D3D3DA9
:103B60003D3D3D3D3D3D3D3D3D3D3D3D3D3D3D3D85
:103B70003D3D3D3D3D3D3D3D3D3D3D3D5445535429
:103B800020313D3D3D3D3D3D3D3D3D3D3D3D3D3D8E
:103B90003D3D3D3D3D3D3D3D3D3D3D3D3D3D3D3D55
:103BA0003D3D3D3D3D3D3D0D0A0000000D0A093DF6
:103BB0003D3D3D3D3D3D3D3D3D3D3D3D3D3D3D3D35
:103BC0003D3D3D3D3D3D3D3D3D3D3D3D3D3D3D3D25
:103BD0005445535420323D3D3D3D3D3D3D3D3D3DF1
:103BE0003D3D3D3D3D3D3D3D3D3D3D3D3D3D3D3D05
:103BF0003D3D3D3D3D3D3D3D3D3D3D0D0A0000000F
:103C00000D0A093D3D3D3D3D3D3D3D3D3D3D3D3D7B
:103C10003D3D3D3D3D3D3D3D3D3D3D3D3D3D3D3DD4
:103C20003D3D3D3D5445535420333D3D3D3D3D3D9F
:103C30003D3D3D3D3D3D3D3D3D3D3D3D3D3D3D3DB4
:103C40003D3D3D3D3D3D3D3D3D3D3D3D3D3D3D0DD4
:103C50000A0000000D0A093D3D3D3D3D3D3D3D3D15
:103C60003D3D3D3D3D3D3D3D3D3D3D3D3D3D3D3D84
:103C70003D3D3D3D3D3D3D3D5445535420343D3D4E
:103C80003D3D3D3D3D3D3D3D3D3D3D3D3D3D3D3D64
:103C90003D3D3D3D3D3D3D3D3D3D3D3D3D3D3D3D54
:103CA0003D3D3D0D0A0000000D0A093D3D3D3D3DF5
:103CB0003D3D3D3D3D3D3D3D3D3D3D3D3D3D3D3D34
:103CC0003D3D3D3D3D3D3D3D3D3D3D3D3D3D3D3D24
:103CD0003D3D3D54455354203528414553323536FA
:103CE000293D3D3D3D3D3D3D3D3D3D3D3D3D3D3D18
:103CF0003D3D3D3D3D3D3D3D3D3D3D3D3D3D3D3DF4
:103D00003D3D3D3D3D3D3D3D3D3D3D0D0A000000FD
:103D10000D0A093D3D3D3D3D3D3D3D3D3D3D3D3D6A
:103D20003D3D3D3D3D3D3D3D3D3D3D3D3D3D3D3DC3
:103D30003D3D3D3D3D3D3D3D3D3D3D544553542084
:103D40003628414553323536293D3D3D3D3D3D3DCB
:103D50003D3D3D3D3D3D3D3D3D3D3D3D3D3D3D3D93
:103D60003D3D3D3D3D3D3D3D3D3D3D3D3D3D3D3D83
:103D70003D3D3D0D0A0000000D0A00000D092A2AF4
:103D80002A2A2A2A2A2A2A2A2A2A2A2A2A2A2A2A93
:103D90002A2A2A2A2A2A2A2A2A2A2A2A2A2A2A2A83
:103DA0002A2A2A2A2A2A2A504F4C593133303520C0
:103DB000544553542A2A2A2A2A2A2A2A2A2A2A2ACB
:103DC0002A2A2A2A2A2A2A2A2A2A2A2A2A2A2A2A53
:103DD0002A2A2A2A2A2A2A2A0D0A00000D0A093D1F
:103DE0003D3D3D3D3D3D3D3D3D3D3D3D3D3D3D3D03
:103DF0003D3D3D3D3D3D3D3D3D3D3D3D3D3D3D3DF3
:103E00003D3D3D3D3D3D3D3D3D5445535420313DBF
:103E10003D3D3D3D3D3D3D3D3D3D3D3D3D3D3D3DD2
:103E20003D3D3D3D3D3D3D3D3D3D3D3D3D3D3D3DC2
:103E30003D3D3D3D3D3D3D3D3D0D0A000D0A093DE9
:103E40003D3D3D3D3D3D3D3D3D3D3D3D3D3D3D3DA2
:103E50003D3D3D3D3D3D3D3D3D3D3D3D3D3D3D3D92
:103E60003D3D3D3D3D3D3D3D3D5445535420323D5E
:103E70003D3D3D3D3D3D3D3D3D3D3D3D3D3D3D3D72
:103E80003D3D3D3D3D3D3D3D3D3D3D3D3D3D3D3D62
:103E90003D3D3D3D3D3D3D3D3D0D0A000D0A093D89
:103EA0003D3D3D3D3D3D3D3D3D3D3D3D3D3D3D3D42
:103EB0003D3D3D3D3D3D3D3D3D3D3D3D3D3D3D3D32
:103EC0003D3D3D3D3D3D3D3D3D5445535420333DFD
:103ED0003D3D3D3D3D3D3D3D3D3D3D3D3D3D3D3D12
:103EE0003D3D3D3D3D3D3D3D3D3D3D3D3D3D3D3D02
:103EF0003D3D3D3D3D3D3D3D3D0D0A000D0A093D29
:103F00003D3D3D3D3D3D3D3D3D3D3D3D3D3D3D3DE1
:103F10003D3D3D3D3D3D3D3D3D3D3D3D3D3D3D3DD1
:103F20003D3D3D3D3D3D3D3D3D5445535420343D9B
:103F30003D3D3D3D3D3D3D3D3D3D3D3D3D3D3D3DB1
:103F40003D3D3D3D3D3D3D3D3D3D3D3D3D3D3D3DA1
:103F50003D3D3D3D3D3D3D3D3D0D0A000D092A2ABB
:103F60002A2A2A2A2A2A2A2A2A2A2A2A2A2A2A2AB1
:103F70002A2A2A2A2A2A2A2A2A2A2A2A2A2A2A2AA1
:103F80002A2A2A2A2A2A2A434841434841205445BA
:103F900053542A2A2A2A2A2A2A2A2A2A2A2A2A2A2E
:103FA0002A2A2A2A2A2A2A2A2A2A2A2A2A2A2A2A71
:103FB0002A2A2A2A2A2A2A2A0D0A00000D0A095B1F
:103FC000416C6C207A65726F732C203132382D620F
:103FD0006974206B65792C203820726F756E64735C
:103FE0005D0D0A000D0A095B416C6C207A65726FE9
:103FF000732C203132382D626974206B65792C2046
:10400000313220726F756E64735D0D0A000000001E
:104010000D0A095B416C6C207A65726F732C20313C
:1040200032382D626974206B65792C203230207211
:104030006F756E64735D0D0A000000000D0A095B68
:10404000416C6C207A65726F732C203235362D628C
:104050006974206B65792C203820726F756E6473DB
:104060005D0D0A000D0A095B416C6C207A65726F68
:10407000732C203235362D626974206B65792C20C3
:10408000313220726F756E64735D0D0A000000009E
:104090000D0A095B416C6C207A65726F732C2032BB
:1040A00035362D626974206B65792C203230207290
:1040B0006F756E64735D0D0A000000000D0A095BE8
:1040C0003235362D626974206B65792C2038207268
:1040D0006F756E64735D0D0A000000000D0A095BC8
:1040E000416C6C206269747320696E206B65792065
:1040F000616E6420495620617265207365742E20BC
:1041000031323820626974206B65792C2038207236
:104110006F756E64735D0D0A000000000D092A2A98
:104120002A2A2A2A2A2A2A2A2A2A2A2A2A2A2A2AEF
:104130002A2A2A2A2A2A2A2A2A2A2A2A2A2A2A2ADF
:104140005052494E434520544553542A2A2A2A2A7C
:104150002A2A2A2A2A2A2A2A2A2A2A2A2A2A2A2ABF
:104160002A2A2A2A2A2A2A2A2A2A0D0A0000000094
:104170000D0A093D3D3D3D3D3D3D3D3D3D3D3D3D06
:104180003D3D3D3D3D3D3D3D3D3D3D3D3D3D3D3D5F
:104190003D3D3D3D3D3D5445535420313D3D3D3D2C
:1041A0003D3D3D3D3D3D3D3D3D3D3D3D3D3D3D3D3F
:1041B0003D3D3D3D3D3D3D3D3D3D3D3D3D3D3D0D5F
:1041C0000A0000000D0A093D3D3D3D3D3D3D3D3DA0
:1041D0003D3D3D3D3D3D3D3D3D3D3D3D3D3D3D3D0F
:1041E0003D3D3D3D3D3D3D3D3D3D544553542032DB
:1041F0003D3D3D3D3D3D3D3D3D3D3D3D3D3D3D3DEF
:104200003D3D3D3D3D3D3D3D3D3D3D3D3D3D3D3DDE
:104210003D3D3D0D0A0000000D092A2A2A2A2A2ABE
:104220002A2A2A2A2A2A2A2A2A2A2A2A2A2A2A2AEE
:104230002A2A2A2A2A2A2A2A50524553454E5420ED
:10424000544553542A2A2A2A2A2A2A2A2A2A2A2A36
:104250002A2A2A2A2A2A2A2A2A2A2A2A2A2A2A2ABE
:104260002A2A2A2A2A2A0D0A000000000D0A093DDE
:104270003D3D3D3D3D3D3D3D3D3D3D3D3D3D3D3D6E
:104280003D3D3D3D3D3D3D3D3D3D3D3D3D3D3D3D5E
:104290003D5445535420313D3D3D3D3D3D3D3D3D2B
:1042A0003D3D3D3D3D3D3D3D3D3D3D3D3D3D3D3D3E
:1042B0003D3D3D3D3D3D3D3D3D3D3D0D0A00000048
:1042C0000D0A093D3D3D3D3D3D3D3D3D3D3D3D3DB5
:1042D0003D3D3D3D3D3D3D3D3D3D3D3D3D3D3D3D0E
:1042E0003D3D3D3D3D5445535420323D3D3D3D3DDA
:1042F0003D3D3D3D3D3D3D3D3D3D3D3D3D3D3D3DEE
:104300003D3D3D3D3D3D3D3D3D3D3D3D3D3D3D0D0D
:104310000A0000000D092A2A2A2A2A2A2A2A2A2AD9
:104320002A2A2A2A2A2A2A2A2A2A2A2A2A2A2A2AED
:104330002A444D5F50524553454E542054455354E2
:104340002A2A2A2A2A2A2A2A2A2A2A2A2A2A2A2ACD
:104350002A2A2A2A2A2A2A2A2A2A2A2A2A2A2A2ABD
:104360002A2A0D0A000000000D0A093D3D3D3D3D91
:104370003D3D3D3D3D3D3D3D3D3D3D3D3D3D3D3D6D
:104380003D3D3D3D3D3D3D3D3D3D3D3D3D54455328
:104390005420333D3D3D3D3D3D3D3D3D3D3D3D3D5D
:1043A0003D3D3D3D3D3D3D3D3D3D3D3D3D3D3D3D3D
:1043B0003D3D3D3D3D3D3D0D0A00000060000000DB
:1043C0002003000070000000F00200000200000066
:1043D0000D0200000C000000EC01000008000000CD
:1043E0004600000010000000400000000200000035
:1043F0003000000008000000280000000800000055
:10440000B800000010000000B00000000200000032
:1044100082000000060000007E0000000D093D3D06
:104420003D3D3D3D3D3D3D3D3D3D3D3D3D3D3D3DBC
:104430003D3D3D3D3D3D3D3D3D50524553454E5436
:1044400020454E435259505454494F4E3D3D3D3DF9
:104450003D3D3D3D3D3D3D3D3D3D3D3D3D3D3D3D8C
:104460003D3D3D3D3D3D3D3D3D3D0D0A00000000D3
:104470000D093D3D3D3D3D3D3D3D3D3D3D3D3D3DD0
:104480003D3D3D3D3D3D3D3D3D3D3D3D3D5052452C
:1044900053454E54204445435259505454494F4E6D
:1044A0003D3D3D3D3D3D3D3D3D3D3D3D3D3D3D3D3C
:1044B0003D3D3D3D3D3D3D3D3D3D3D3D3D3D0D0A8F
:1044C000000000000D0A00000D09504C41494E5FEC
:1044D00054455854202836342D62697429203A20D6
:1044E000000000004B4559202838302D626974299E
:1044F000203A2000524553554C54202836342D6222
:10450000697429203A2000000D093D3D3D3D3D3DA7
:104510003D3D3D3D3D3D3D3D3D3D3D3D3D3D3D3DCB
:104520003D3D3D3D3D444D5F50524553454E542029
:10453000484153483D3D3D3D3D3D3D3D3D3D3D3D7B
:104540003D3D3D3D3D3D3D3D3D3D3D3D3D3D3D3D9B
:104550003D3D3D3D3D3D0D0A000000006000000076
:104560002003000070000000F002000002000000C4
:104570000D0200000C000000EC010000080000002B
:104580004600000010000000400000000200000093
:1045900030000000080000002800000008000000B3
:1045A000B800000010000000B00000000200000091
:1045B00082000000060000007E0000003D3D3D3D01
:1045C0003D3D3D3D3D3D3D3D3D3D3D3D3D3D3D3D1B
:1045D0003D3D3D3D3D3D3D3D41455331323820451A
:1045E0004E435259505454494F4E3D3D3D3D3D3D43
:1045F0003D3D3D3D3D3D3D3D3D3D3D3D3D3D3D3DEB
:104600003D3D3D3D3D3D3D3D0D0A00003D3D3D3DB7
:104610003D3D3D3D3D3D3D3D3D3D3D3D3D3D3D3DCA
:104620003D3D3D3D3D3D3D3D4145533132382044CA
:1046300045435259505454494F4E3D3D3D3D3D3DFB
:104640003D3D3D3D3D3D3D3D3D3D3D3D3D3D3D3D9A
:104650003D3D3D3D3D3D3D3D0D0A00000D0A504CA8
:1046600041494E5F5445585420283132382D6269F3
:104670007429203A200000004B4559202831323857
:104680002D62697429203A200000000052455355DC
:104690004C5420283132382D62697429203A200088
:1046A0000D0A3D3D3D3D3D3D3D3D3D3D3D3D3D3D9D
:1046B0003D3D3D3D3D3D3D3D3D3D3D3D3D3D3D3D2A
:1046C0003D3D3D3D3D3D3D3D3D3D3D3D3D3D3D3D1A
:1046D0003D3D3D3D3D3D3D3D3D3D3D3D3D3D3D3D0A
:1046E0003D3D3D3D3D3D3D3D3D3D3D3D3D3D0D0A5D
:1046F000000000003D3D3D3D3D3D3D3D3D3D3D3DDE
:104700003D3D3D3D3D3D3D3D3D3D3D3D3D3D3D3DD9
:104710003D3D3D3D3D3D3D3D3D3D414553323536C1
:1047200020454E435259505454494F4E3D3D3D3D16
:104730003D3D3D3D3D3D3D3D3D3D3D3D3D3D3D3DA9
:104740003D3D3D3D3D3D3D3D3D3D3D3D3D3D3D3D99
:104750003D3D3D3D0D0A00003D3D3D3D3D3D3D3D66
:104760003D3D3D3D3D3D3D3D3D3D3D3D3D3D3D3D79
:104770003D3D3D3D3D3D3D3D3D3D3D3D3D3D41455D
:1047800053323536204445435259505454494F4EC4
:104790003D3D3D3D3D3D3D3D3D3D3D3D3D3D3D3D49
:1047A0003D3D3D3D3D3D3D3D3D3D3D3D3D3D3D3D39
:1047B0003D3D3D3D3D3D3D3D0D0A00004B455920F1
:1047C000283235362D62697429203A200000000015
:1047D0000D0A3D3D3D3D3D3D3D3D3D3D3D3D3D3D6C
:1047E0003D3D3D3D3D3D3D3D3D3D3D3D3D3D3D3DF9
:1047F0003D3D3D3D3D3D3D3D3D3D3D3D3D3D3D3DE9
:104800003D3D3D3D3D3D3D3D3D3D3D3D3D3D3D3DD8
:104810003D3D3D3D3D3D3D3D3D3D3D3D3D3D3D3DC8
:104820003D3D3D3D3D3D3D3D3D3D3D3D3D3D3D3DB8
:104830003D3D0D0A00000000600000002003000064
:1048400070000000F0020000020000000D020000F5
:104850000C000000EC010000080000004600000011
:1048600010000000400000000200000030000000C6
:10487000080000002800000008000000B800000048
:1048800010000000B00000000200000082000000E4
:10489000060000007E0000002000000030313233AE
:1048A000343536373839616263646566000000006C
:1048B0000D0900000D0A00000D09202020202020F5
:1048C0002020202020202020202020202000000048
:1048D000600000002003000070000000F0020000F3
:1048E000020000000D0200000C000000EC010000BE
:1048F000080000004600000010000000400000001A
:104900000200000030000000080000002800000045
:1049100008000000B800000010000000B000000017
:104920000200000082000000060000007E0000007F
:104930000D0A00000D09504C41494E5F5445585432
:1049400020283132382D62697429203A2000000075
:104950004B455920283235362D626974293A20009A
:10496000524553554C5420283132382D62697429F0
:10497000203A20000D09504C41494E5F544558548F
:1049800020283237322D62697429203A2000000035
:104990000D09202020202020202020202020202041
:1049A000202020202020202020000000504C4149C1
:1049B0004E5F544558542028383230302D62697487
:1049C00029203A20307866662E2E666630310D0A30
:1049D000094B455920283235362D626974293A2011
:0149E00000D6
:0449E40000000000CF
:0200000480007A
:100000006F00400B130000001300000013000000FD
:100010001300000013000000130000001300000094
:10002000232E11FE232C51FE232A61FE232871FE6C
:100030002326A1FE2324B1FE2322C1FE2320D1FECC
:10004000232EE1FC232CF1FC232A01FD232811FDA2
:100050002326C1FD2324D1FD2322E1FD2320F1FD30
:10006000130101FC972000C0E78040818320C10379
:100070008322810303234103832301030325C10258
:100080008325810203264102832601020327C10141
:10009000832781010328410183280101032EC10028
:1000A000832E8100032F4100832F010013010104DF
:1000B00073002030975100C0938141131711000045
:1000C00013014188175500C013054592975500C08C
:1000D0009385C5916308B5002320050013054500ED
:1000E0006FF05FFF175500C0130505901301C1FFA6
:1000F000975500C09385458F630EB5008326050094
:10010000130545002320A100E78006000325010018
:100110006FF01FFE1301410037150000130505881D
:1001200073104530372500001305858073100530A6
:0C013000971000C0E78040BF6F00000087
:040000058000000077
:00000001FF
