:020000044000BA
:10000000130101FE232E8100130401022326A4FE06
:100010008327C4FE23A007008327C4FE23A4070070
:10002000130000000324C1011301010267800000D6
:10003000130101FE232E8100130401022326A4FED6
:10004000130000000324C1011301010267800000B6
:10005000130101FE232E8100130401022326A4FEB6
:100060008327C4FE23A207008327C4FE1307F0FFE3
:1000700023A0E700130000000324C10113010102C3
:1000800067800000130101FE232E8100130401028A
:100090002326A4FE8327C4FE83A7470093D7070126
:1000A00093F7F70F138507000324C1011301010221
:1000B00067800000130101FE232E8100130401025A
:1000C0002326A4FE8327C4FE83A7470093D7870176
:1000D000138507000324C10113010102678000009A
:1000E000130101FE232E1100232C810013040102B1
:1000F0002326A4FE2324B4FE130000000325C4FE1F
:10010000EFF05FF893070500E38A07FE8327C4FE3C
:10011000032784FE23A0E700130000008320C10111
:10012000032481011301010267800000130101FE15
:10013000232E8100130401022326A4FE2324B4FEEF
:10014000832784FE03A7C7008327C4FE23A4E700F8
:10015000832784FE83A707001387F7FF832784FE86
:1001600083A74700939787003367F700832784FEB0
:1001700083A78700939707013367F7008327C4FE9F
:1001800023A6E700130000000324C10113010102AC
:1001900067800000130101FE232E81001304010279
:1001A0002326A4FE8327C4FE83A7070093F7270016
:1001B000B337F00093F7F70F138507000324C1014D
:1001C0001301010267800000130101FE232E81004C
:1001D000130401022326A4FE8327C4FE1307100084
:1001E00023A0E700130000000324C1011301010252
:1001F00067800000130101FE232E1100232C8100D3
:10020000130401022326A4FE8327C4FE23A00700B3
:10021000130000000325C4FEEFF0DFF7930705008D
:10022000E39A07FE13000000130000008320C101C1
:10023000032481011301010267800000130101FE04
:10024000232E8100130401022326A4FE2324B4FEDE
:10025000B72700F0032784FE23A4E700B72700F0A8
:100260001307100023A2E700B72700F00327C4FEFE
:1002700023A6E700B72700F01307100023A0E7002C
:10028000B72700F023A00700130000000324C101DA
:100290001301010267800000130101FD2326810282
:1002A00013040103232EA4FCB72700F00327C4FD89
:1002B00023A4E700B72700F023A20700B72700F028
:1002C0001307100023A0E700B72700F083A707015A
:1002D0002326F4FEB72700F023A007008327C4FEDF
:1002E000138507000324C102130101036780000086
:1002F000130101FE232E1100232C8100232A9100DB
:10030000130401022326A4FE2324B4FE2322C4FEE8
:100310002320D4FE9305A0000325C4FEEFF01FF2B6
:10032000832744FE9387470083A7070093051002A5
:1003300013850700EFF09FF0832744FE83A7070093
:100340009305000213850700EFF05FEF832784FE1B
:100350009387C70083A70700930530011385070023
:10036000EFF0DFED832784FE9387870083A70700E4
:100370009305200113850700EFF05FEC832784FECF
:100380009387470083A70700930510011385070093
:10039000EFF0DFEA832784FE83A7070093050001BF
:1003A00013850700EFF09FE9930580001305100007
:1003B000EFF0DFE81300000013059000EFF0DFED31
:1003C00093070500E38A07FE832704FE9384470012
:1003D00013051003EFF05FEC9307050023A0F40072
:1003E00013050003EFF05FEB13070500832704FEFE
:1003F00023A0E7000327C4FE93071000631AF70049
:10040000B7270040138547ABEF1000176F000001BE
:10041000B7270040138587B0EF100016B7270040BC
:100420001385C7B5EF104015832544FEB72700405C
:10043000138507B6EF10C03A832584FEB727004026
:10044000138587B7EF10C040832504FEB72700400F
:100450001385C7B8EF10C038130000008320C10116
:1004600003248101832441011301010267800000FC
:10047000130101FE232E8100130401022326A4FE92
:100480008327C4FE23A007008327C4FE23A40700FC
:10049000130000000324C101130101026780000062
:1004A000130101FE232E8100130401022326A4FE62
:1004B000130000000324C101130101026780000042
:1004C000130101FE232E8100130401022326A4FE42
:1004D0008327C4FE23A207008327C4FE1307F0FF6F
:1004E00023A0E700130000000324C101130101024F
:1004F00067800000130101FE232E81001304010216
:100500002326A4FE8327C4FE83A7470093D70701B1
:1005100093F7F70F138507000324C10113010102AC
:1005200067800000130101FE232E810013040102E5
:100530002326A4FE8327C4FE83A7470093D7870101
:10054000138507000324C101130101026780000025
:10055000130101FE232E1100232C8100130401023C
:100560002326A4FE2324B4FE130000000325C4FEAA
:10057000EFF05FF893070500E38A07FE8327C4FEC8
:10058000032784FE23A0E700130000008320C1019D
:10059000032481011301010267800000130101FEA1
:1005A000232E8100130401022326A4FE2324B4FE7B
:1005B000832784FE03A7C7008327C4FE23A4E70084
:1005C000832784FE83A707001387F7FF832784FE12
:1005D00083A74700939787003367F700832784FE3C
:1005E00083A78700939707013367F7008327C4FE2B
:1005F00023A6E700130000000324C1011301010238
:1006000067800000130101FE232E81001304010204
:100610002326A4FE8327C4FE83A7070093F72700A1
:10062000B337F00093F7F70F138507000324C101D8
:100630001301010267800000130101FE232E8100D7
:10064000130401022326A4FE8327C4FE130710000F
:1006500023A0E700130000000324C10113010102DD
:1006600067800000130101FE232E1100232C81005E
:10067000130401022326A4FE8327C4FE23A007003F
:10068000130000000325C4FEEFF0DFF79307050019
:10069000E39A07FE13000000130000008320C1014D
:1006A000032481011301010267800000130101F896
:1006B000232E1106232C81061304010893078000C2
:1006C0002320F4FE232204FE232404FE9307500378
:1006D0002326F4FE930704FE93850700370501F0F7
:1006E000EFF0DFEBB7270040138507C0EF00D068BD
:1006F000232804FC232A04FC232C04FC232E04FCC2
:10070000232404FC232604FC232004FC232204FCD1
:10071000B7270040138547C5EF001066B7E7C469E7
:100720009387870D2326F4FCB7077B6A93870743DB
:100730002324F4FCB7B7CDD893870778232EF4FC95
:10074000B7C7B4709387A755232CF4FCB76786818D
:100750009387A75A232AF4FCB7E7020D9387A7FDD6
:100760002328F4FC930604FC130784FC930704FD80
:10077000130607009385070013051000EFF05FB71D
:10078000B7270040138587CAEF00105FB7B7C6438D
:10079000938767252326F4FCB7E79DD79387877E49
:1007A0002324F4FC930604FC130784FC930704FD44
:1007B000130607009385070013050000EFF05FB3F1
:1007C000B72700401385C7CFEF00105BB727004065
:1007D000138507D0EF00505A232A04FA232C04FA79
:1007E000232E04FA232604FA232804FA232204FAE7
:1007F000232404FAB7270040138547D5EF00D057CC
:10080000B777744C938777E62328F4FAB76779753E
:100810009387E7562326F4FAB777654693875746BA
:10082000232EF4FAB767486C9387D736232CF4FA53
:10083000B777000093873757232AF4FA930644FAD0
:100840001307C4FA930744FB1306070093850700B8
:1008500013050000EF00804FB7270040138587DAAB
:10086000EF009051B7071D0E9387470D2328F4FA28
:10087000B7B76BE49387C7992326F4FA930644FA33
:100880001307C4FA930744FB130607009385070078
:1008900013051000EF00804BB72700401385C7CF2A
:1008A000EF00904DB72700401385C7DFEF00D04C15
:1008B000232C04F8232E04F8232004FA232804F818
:1008C000232A04F8232404F8232604F8B727004039
:1008D000138547D5EF00504AB777744C938777E676
:1008E000232AF4F8B76779759387E7562328F4F835
:1008F000B7776546938757462320F4FAB767486C65
:100900009387D736232EF4F8B777000093873757AD
:10091000232CF4F8930684F8130704F9930784F959
:10092000138606009305070013850700EF00500D9E
:10093000B7270040138587DAEF001044B777654684
:1009400093875746232AF4F8B7575F6C9387375538
:100950002328F4F8232004FA232E04F89307100028
:10096000232CF4F8930684F8130704F9930784F909
:10097000138606009305070013850700EF00500853
:10098000B7270040138507E5EF00103FB737383130
:1009900093870723232AF4F8B747313093873783A7
:1009A0002328F4F8B7373831938707232320F4FA44
:1009B000B747313093873783232EF4F8B7570000B9
:1009C00093873755232CF4F8930684F8130704F91A
:1009D000930784F913860600930507001385070023
:1009E000EF00100293070000138507008320C10762
:1009F000032481071301010867800000130101FF30
:100A00002326810013040101130000000324C10008
:100A10001301010167800000130101FE232E8100F4
:100A2000130401022326A4FE8327C4FE23A007008B
:100A30008327C4FE23A40700130000000324C10180
:100A40001301010267800000130101FE232E8100C3
:100A5000130401022326A4FE130000000324C10195
:100A60001301010267800000130101FE232E8100A3
:100A7000130401022326A4FE8327C4FE23A2070039
:100A80008327C4FE1307F0FF23A0E7001300000034
:100A90000324C1011301010267800000130101FE5C
:100AA000232E8100130401022326A4FE8327C4FE03
:100AB00083A7470093D7070193F7F70F1385070024
:100AC0000324C1011301010267800000130101FE2C
:100AD000232E8100130401022326A4FE8327C4FED3
:100AE00083A7470093D78701138507000324C1011B
:100AF0001301010267800000130101FE232E110083
:100B0000232C8100130401022326A4FE2324B4FE17
:100B1000130000000325C4FEEFF05FF89307050003
:100B2000E38A07FE8327C4FE032784FE23A0E70091
:100B3000130000008320C10103248101130101027D
:100B400067800000130101FE232E810013040102BF
:100B50002326A4FE2324B4FE832784FE03A7C70014
:100B60008327C4FE23A4E700832784FE83A707000E
:100B70001387F7FF832784FE83A747009397870097
:100B80003367F700832784FE83A7870093970701C5
:100B90003367F7008327C4FE23A6E7001300000095
:100BA0000324C1011301010267800000130101FE4B
:100BB000232E8100130401022326A4FE8327C4FEF2
:100BC00083A7070093F72700B337F00093F7F70FD9
:100BD000138507000324C10113010102678000008F
:100BE000130101FE232E8100130401022326A4FE1B
:100BF0008327C4FE1307100023A0E70013000000A2
:100C00000324C1011301010267800000130101FEEA
:100C1000232E1100232C8100130401022326A4FE9D
:100C20008327C4FE23A00700130000000325C4FE91
:100C3000EFF0DFF793070500E39A07FE13000000CB
:100C4000130000008320C10103248101130101026C
:100C500067800000130101FE232E810013040102AE
:100C60002326A4FE2324B4FEB72700F09387074071
:100C7000032784FE23A6E700B72700F093870740E9
:100C800023A20700B72700F093870740130710003F
:100C900023A4E700B72700F0938707400327C4FE8B
:100CA00023A8E700B72700F09387074023A0070099
:100CB000B72700F0938707401307100023A0E70031
:100CC000130000000324C10113010102678000002A
:100CD000130101FD2326810213040103232EA4FC2A
:100CE000B72700F0938707400327C4FD23A6E7003A
:100CF000B72700F09387074023A40700B72700F029
:100D0000938707401307100023A2E700B72700F0DE
:100D10009387074023A00700B72700F09387074079
:100D200083A747012326F4FEB72700F093870740E7
:100D30001307100023A0E7008327C4FE13850700D4
:100D40000324C1021301010367800000130101FEA7
:100D5000232E1100232C8100232A91001304010269
:100D6000930705002324B4FE2322C4FE2320D4FECF
:100D7000A307F4FE8347F4FE639A070093058000FF
:100D800013050000EFF01FED6F00000193058000D8
:100D900013051000EFF01FEC832744FE93874700F4
:100DA00083A707009305500013850700EFF09FEA23
:100DB000832744FE83A7070093054000138507009F
:100DC000EFF05FE9832784FE9387870083A70700FE
:100DD0009305300013850700EFF0DFE7832784FEDB
:100DE0009387470083A7070093052000138507001A
:100DF000EFF05FE6832784FE83A7070093051000CA
:100E000013850700EFF01FE59305000013051000A0
:100E1000EFF05FE41300000013056000EFF05FEBFC
:100E200093070500E38A07FE832704FE93844700A7
:100E300013057000EFF0DFE99307050023A0F4002D
:100E400013056000EFF0DFE813070500832704FEB9
:100E500023A0E7008347F4FE639A0700B72700400A
:100E6000138547F0EF0040716F000001B727004085
:100E7000138587F5EF004070B72700401385C7FA48
:100E8000EF00806F832544FEB7270040138507FBE2
:100E9000EF001015832584FEB72700401385C7FC9B
:100EA000EF009024832504FEB72700401385C7FD7B
:100EB000EF001013130000008320C10103248101FF
:100EC000832441011301010267800000130101FE28
:100ED000232E8100130401022326A4FE8327C4FECF
:100EE00023A007008327C4FE23A4070013000000EB
:100EF0000324C1011301010267800000130101FEF8
:100F0000232E8100130401022326A4FE13000000F7
:100F10000324C1011301010267800000130101FED7
:100F2000232E8100130401022326A4FE8327C4FE7E
:100F300023A207008327C4FE1307F0FF23A0E700C6
:100F4000130000000324C1011301010267800000A7
:100F5000130101FE232E8100130401022326A4FEA7
:100F60008327C4FE83A7470093D7070193F7F70FA2
:100F7000138507000324C1011301010267800000EB
:100F8000130101FE232E8100130401022326A4FE77
:100F90008327C4FE83A7470093D7870113850700E3
:100FA0000324C1011301010267800000130101FE47
:100FB000232E1100232C8100130401022326A4FEFA
:100FC0002324B4FE130000000325C4FEEFF05FF8F5
:100FD00093070500E38A07FE8327C4FE032784FEE8
:100FE00023A0E700130000008320C1010324810136
:100FF0001301010267800000130101FE232E81000E
:10100000130401022326A4FE2324B4FE832784FEB6
:1010100003A7C7008327C4FE23A4E700832784FE19
:1010200083A707001387F7FF832784FE83A7470062
:10103000939787003367F700832784FE83A7870091
:10104000939707013367F7008327C4FE23A6E700C1
:10105000130000000324C101130101026780000096
:10106000130101FE232E8100130401022326A4FE96
:101070008327C4FE83A7070093F72700B337F00048
:1010800093F7F70F138507000324C1011301010231
:1010900067800000130101FE232E8100130401026A
:1010A0002326A4FE8327C4FE1307100023A0E70015
:1010B000130000000324C101130101026780000036
:1010C000130101FE232E1100232C810013040102C1
:1010D0002326A4FE8327C4FE23A0070013000000DC
:1010E0000325C4FEEFF0DFF793070500E39A07FE40
:1010F00013000000130000008320C10103248101BC
:101100001301010267800000130101FE232E8100FC
:10111000130401022326A4FE2324B4FEB73700F0F3
:1011200093870780032784FE23A6E700B73700F0E4
:101130009387078023A20700B73700F093870780C3
:101140001307100023A4E700B73700F09387078048
:101150000327C4FE23A8E700B73700F09387078072
:1011600023A00700B73700F093870780130710000C
:1011700023A0E700130000000324C10113010102B2
:1011800067800000130101FD23268102130401037F
:10119000232EA4FCB73700F0938707800327C4FDF4
:1011A00023A6E700B73700F09387078023A4070042
:1011B000B73700F0938707801307100023A2E700DA
:1011C000B73700F09387078023A00700B73700F0F8
:1011D0009387078083A747012326F4FEB73700F0E3
:1011E000938707801307100023A0E7008327C4FE1E
:1011F000138507000324C102130101036780000067
:10120000130101FE232E1100232C8100232A9100BB
:10121000130401022326A4FE2324B4FE2322C4FEC9
:10122000832784FE9387470083A707009305500018
:1012300013850700EFF05FED832784FE83A7070087
:101240009305400013850700EFF01FEC8327C4FED1
:101250009387870083A70700930530001385070055
:10126000EFF09FEA8327C4FE9387470083A7070018
:101270009305200013850700EFF01FE98327C4FEC4
:1012800083A707009305100013850700EFF0DFE741
:101290009305000013051000EFF01FE71300000096
:1012A00013056000EFF01FEE93070500E38A07FEC9
:1012B000832744FE9384470013057000EFF09FECF2
:1012C0009307050023A0F40013056000EFF09FEBE7
:1012D00013070500832744FE23A0E700B72700403B
:1012E00013850705EF004029B72700401385470AFB
:1012F000EF008028832584FEB72700401385870AE6
:10130000EF00004E8325C4FEB72700401385470C2D
:10131000EF00805D832544FEB72700401385470D0D
:10132000EF00004C130000008320C1010324810161
:10133000832441011301010267800000130101FEB3
:10134000232E8100130401022326A4FE8327C4FE5A
:1013500023A007008327C4FE23A407001300000076
:101360000324C1011301010267800000130101FE83
:10137000232E8100130401022326A4FE1300000083
:101380000324C1011301010267800000130101FE63
:10139000232E8100130401022326A4FE8327C4FE0A
:1013A00023A207008327C4FE1307F0FF23A0E70052
:1013B000130000000324C101130101026780000033
:1013C000130101FE232E8100130401022326A4FE33
:1013D0008327C4FE83A7470093D7070193F7F70F2E
:1013E000138507000324C101130101026780000077
:1013F000130101FE232E8100130401022326A4FE03
:101400008327C4FE83A7470093D78701138507006E
:101410000324C1011301010267800000130101FED2
:10142000232E1100232C8100130401022326A4FE85
:101430002324B4FE130000000325C4FEEFF05FF880
:1014400093070500E38A07FE8327C4FE032784FE73
:1014500023A0E700130000008320C10103248101C1
:101460001301010267800000130101FE232E810099
:10147000130401022326A4FE2324B4FE832784FE42
:1014800003A7C7008327C4FE23A4E700832784FEA5
:1014900083A707001387F7FF832784FE83A74700EE
:1014A000939787003367F700832784FE83A787001D
:1014B000939707013367F7008327C4FE23A6E7004D
:1014C000130000000324C101130101026780000022
:1014D000130101FE232E8100130401022326A4FE22
:1014E0008327C4FE83A7070093F72700B337F000D4
:1014F00093F7F70F138507000324C10113010102BD
:1015000067800000130101FE232E810013040102F5
:101510002326A4FE8327C4FE1307100023A0E700A0
:10152000130000000324C1011301010267800000C1
:10153000130101FE232E1100232C8100130401024C
:101540002326A4FE8327C4FE23A007001300000067
:101550000325C4FEEFF0DFF793070500E39A07FECB
:1015600013000000130000008320C1010324810147
:101570001301010267800000130101FE232E1100F8
:10158000232C8100130401022326A4FE6F00000215
:101590008327C4FE138717002326E4FE83C70700B2
:1015A00093850700370501F0EFF05FE78327C4FE5E
:1015B00083C70700E39E07FC130000001300000030
:1015C0008320C1010324810113010102678000000F
:1015D000130101FC232E1102232C810213040104A8
:1015E0002326A4FC232604FE232E04FC232004FE31
:1015F0008327C4FC93F7F700372700401307C7146D
:10160000B307F70003C707008327C4FE930604FF50
:10161000B387F6002386E7FE8327C4FE938717006F
:101620002326F4FE8327C4FC93D747002326F4FC2B
:101630008327C4FCE39E07FA0327C4FE93077000C8
:1016400063CEE702930770002324F4FE6F0040028C
:1016500013070003832784FE930604FFB387F60075
:101660002386E7FE832784FE9387F7FF2324F4FE77
:10167000032784FE8327C4FEE35CF7FC9307300056
:101680002322F4FE6F00C002832744FE130704FFE9
:10169000B307F70083C7C7FE93850700370501F03E
:1016A000EFF0DFD7832744FE9387F7FF2322F4FE72
:1016B000832744FEE3DA07FCB7270040138587142D
:1016C000EFF09FEB130000008320C103032481038C
:1016D0001301010467800000130101FC232E110295
:1016E000232C8102130401042326A4FC232604FED8
:1016F000232E04FC232004FE8327C4FC93F7F70069
:10170000372700401307C714B307F70003C70700C4
:101710008327C4FE930604FFB387F6002386E7FE03
:101720008327C4FE938717002326F4FE8327C4FC77
:1017300093D747002326F4FC8327C4FCE39E07FAD3
:101740000327C4FE9307700063CEE702930770007F
:101750002324F4FE6F00400213070003832784FE56
:10176000930604FFB387F6002386E7FE832784FEF3
:101770009387F7FF2324F4FE032784FE8327C4FE08
:10178000E35CF7FC930770002322F4FE6F00C002B5
:10179000832744FE130704FFB307F70083C7C7FE80
:1017A00093850700370501F0EFF05FC7832744FEFC
:1017B0009387F7FF2322F4FE832744FEE3DA07FC36
:1017C000B727004013858714EFF01FDB13000000DC
:1017D0008320C103032481031301010467800000F7
:1017E000130101FE232E1100232C8100130401029A
:1017F0002326A4FE2324B4FEB72700401385071632
:10180000EFF09FD70325C4FEEFF01FD7832784FE98
:101810009387470083A7070013850700EFF0DFEBEE
:10182000832784FE83A7070013850700EFF0DFEA14
:10183000B727004013854716EFF01FD413000000B0
:101840008320C1010324810113010102678000008C
:10185000130101FE232E1100232C81001304010229
:101860002326A4FE2324B4FEB727004013850716C1
:10187000EFF09FD00325C4FEEFF01FD0832784FE36
:101880009387C70083A7070013850700EFF0DFE405
:10189000832784FE9387870083A7070013850700AB
:1018A000EFF09FE3832784FE9387470083A7070019
:1018B00013850700EFF05FE2832784FE83A707000C
:1018C00013850700EFF05FE1B72700401385471647
:1018D000EFF09FCA130000008320C101032481019F
:1018E0001301010267800000130101FE232E110085
:1018F000232C8100130401022326A4FE2324B4FE1A
:10190000B727004013850716EFF01FC70325C4FE55
:10191000EFF09FC6832784FE9387870083A7070085
:1019200013850700EFF05FDB832784FE9387470072
:1019300083A7070013850700EFF01FDA832784FED3
:1019400083A7070013850700EFF09FC8B727004063
:1019500013854716EFF05FC2130000008320C1011A
:10196000032481011301010267800000130101FEBD
:10197000232E1100232C8100130401022326A4FE30
:101980002324B4FEB727004013850716EFF0DFBE0F
:101990000325C4FEEFF05FBE832784FE9387C70153
:1019A00083A7070013850700EFF01FD3832784FE6A
:1019B0009387870183A7070013850700EFF0DFD126
:1019C000832784FE9387470183A7070013850700B9
:1019D000EFF09FD0832784FE9387070183A707003A
:1019E00013850700EFF05FCF832784FE9387C7003E
:1019F00083A7070013850700EFF01FCE832784FE1F
:101A00009387870083A7070013850700EFF0DFCCDB
:101A1000832784FE9387470083A707001385070069
:101A2000EFF09FCB832784FE83A707001385070071
:101A3000EFF09FCAB727004013854716EFF0DFB3DA
:101A4000130000008320C10103248101130101025E
:041A500067800000AB
:101A5400600000002003000070000000F00200009D
:101A6400020000000D0200000C000000EC01000068
:101A740008000000460000001000000040000000C4
:101A840002000000300000000800000028000000F0
:101A940008000000B800000010000000B0000000C2
:101AA4000200000082000000060000007E0000002A
:101AB4000D093D3D3D3D3D3D3D3D3D3D3D3D3D3DB6
:101AC4003D3D3D3D3D3D3D3D3D3D3D3D3D3D3D502F
:101AD40052494E434520454E435259505454494F60
:101AE4004E3D3D3D3D3D3D3D3D3D3D3D3D3D3D3D11
:101AF4003D3D3D3D3D3D3D3D3D3D3D3D3D3D0D0A75
:101B0400000000000D093D3D3D3D3D3D3D3D3D3D59
:101B14003D3D3D3D3D3D3D3D3D3D3D3D3D3D3D3DF1
:101B24003D3D3D5052494E43452044454352595052
:101B34005454494F4E3D3D3D3D3D3D3D3D3D3D3D74
:101B44003D3D3D3D3D3D3D3D3D3D3D3D3D3D3D3DC1
:101B54003D3D0D0A000000000D0A0000504C4149B3
:101B64004E5F54455854202836342D626974292018
:101B74003A2000004B455920283132382D626974CF
:101B840029203A2000000000524553554C54202887
:101B940036342D62697429203A2000006000000068
:101BA4002003000070000000F002000002000000AA
:101BB4000D0200000C000000EC0100000800000011
:101BC4004600000010000000400000000200000079
:101BD4003000000008000000280000000800000099
:101BE400B800000010000000B00000000200000077
:101BF40082000000060000007E0000000D092A2A71
:101C04002A2A2A2A2A2A2A2A2A2A2A2A2A2A2A2A30
:101C14002A2A2A2A2A2A2A2A2A2A2A2A2A2A2A2A20
:101C24005052494E434520544553542A2A2A2A2ABD
:101C34002A2A2A2A2A2A2A2A2A2A2A2A2A2A2A2A00
:101C44002A2A2A2A2A2A2A2A2A2A0D0A00000000D5
:101C54000D0A093D3D3D3D3D3D3D3D3D3D3D3D3D47
:101C64003D3D3D3D3D3D3D3D3D3D3D3D3D3D3D3DA0
:101C74003D3D3D3D3D3D5445535420313D3D3D3D6D
:101C84003D3D3D3D3D3D3D3D3D3D3D3D3D3D3D3D80
:101C94003D3D3D3D3D3D3D3D3D3D3D3D3D3D3D0DA0
:101CA4000A0000000D0A093D3D3D3D3D3D3D3D3DE1
:101CB4003D3D3D3D3D3D3D3D3D3D3D3D3D3D3D3D50
:101CC4003D3D3D3D3D3D3D3D3D3D5445535420321C
:101CD4003D3D3D3D3D3D3D3D3D3D3D3D3D3D3D3D30
:101CE4003D3D3D3D3D3D3D3D3D3D3D3D3D3D3D3D20
:101CF4003D3D3D0D0A0000000D0A00000D092A2A91
:101D04002A2A2A2A2A2A2A2A2A2A2A2A2A2A2A2A2F
:101D14002A2A2A2A2A2A2A2A2A2A2A2A505245538D
:101D2400454E5420544553542A2A2A2A2A2A2A2A18
:101D34002A2A2A2A2A2A2A2A2A2A2A2A2A2A2A2AFF
:101D44002A2A2A2A2A2A2A2A2A2A0D0A00000000D4
:101D54000D0A093D3D3D3D3D3D3D3D3D3D3D3D3D46
:101D64003D3D3D3D3D3D3D3D3D3D3D3D3D3D3D3D9F
:101D74003D3D3D3D3D5445535420313D3D3D3D3D6C
:101D84003D3D3D3D3D3D3D3D3D3D3D3D3D3D3D3D7F
:101D94003D3D3D3D3D3D3D3D3D3D3D3D3D3D3D0D9F
:101DA4000A0000000D0A093D3D3D3D3D3D3D3D3DE0
:101DB4003D3D3D3D3D3D3D3D3D3D3D3D3D3D3D3D4F
:101DC4003D3D3D3D3D3D3D3D3D5445535420323D1B
:101DD4003D3D3D3D3D3D3D3D3D3D3D3D3D3D3D3D2F
:101DE4003D3D3D3D3D3D3D3D3D3D3D3D3D3D3D3D1F
:101DF4003D3D3D0D0A0000000D092A2A2A2A2A2AFF
:101E04002A2A2A2A2A2A2A2A2A2A2A2A2A2A2A2A2E
:101E14002A2A2A2A2A444D5F50524553454E5420BB
:101E2400544553542A2A2A2A2A2A2A2A2A2A2A2A76
:101E34002A2A2A2A2A2A2A2A2A2A2A2A2A2A2A2AFE
:101E44002A2A2A2A2A2A0D0A000000000D0A093D1E
:101E54003D3D3D3D3D3D3D3D3D3D3D3D3D3D3D3DAE
:101E64003D3D3D3D3D3D3D3D3D3D3D3D3D3D3D3D9E
:101E74003D5445535420333D3D3D3D3D3D3D3D3D69
:101E84003D3D3D3D3D3D3D3D3D3D3D3D3D3D3D3D7E
:101E94003D3D3D3D3D3D3D3D3D3D3D0D0A00000088
:101EA400600000002003000070000000F002000049
:101EB400020000000D0200000C000000EC01000014
:101EC4000800000046000000100000004000000070
:101ED400020000003000000008000000280000009C
:101EE40008000000B800000010000000B00000006E
:101EF4000200000082000000060000007E000000D6
:101F04000D093D3D3D3D3D3D3D3D3D3D3D3D3D3D61
:101F14003D3D3D3D3D3D3D3D3D3D3D3D3D505245BD
:101F240053454E5420454E435259505454494F4EF4
:101F34003D3D3D3D3D3D3D3D3D3D3D3D3D3D3D3DCD
:101F44003D3D3D3D3D3D3D3D3D3D3D3D3D3D0D0A20
:101F5400000000000D093D3D3D3D3D3D3D3D3D3D05
:101F64003D3D3D3D3D3D3D3D3D3D3D3D3D3D3D3D9D
:101F74003D50524553454E542044454352595054C4
:101F840054494F4E3D3D3D3D3D3D3D3D3D3D3D3D37
:101F94003D3D3D3D3D3D3D3D3D3D3D3D3D3D3D3D6D
:101FA4003D3D0D0A000000000D0A00000D09504CD3
:101FB40041494E5F54455854202836342D62697483
:101FC40029203A20000000004B4559202838302DA4
:101FD40062697429203A2000524553554C542028F4
:101FE40036342D62697429203A2000006000000014
:101FF4002003000070000000F00200000200000056
:102004000D0200000C000000EC01000008000000BC
:102014004600000010000000400000000200000024
:102024003000000008000000280000000800000044
:10203400B800000010000000B00000000200000022
:1020440082000000060000007E0000000D093D3DF6
:102054003D3D3D3D3D3D3D3D3D3D3D3D3D3D3D3DAC
:102064003D3D3D3D3D3D3D3D3D444D5F505245531D
:10207400454E5420484153483D3D3D3D3D3D3D3D49
:102084003D3D3D3D3D3D3D3D3D3D3D3D3D3D3D3D7C
:102094003D3D3D3D3D3D3D3D3D3D0D0A00000000C3
:1020A4000D0A00000D09504C41494E5F54455854E7
:1020B400202836342D62697429203A20000000005B
:1020C4004B4559202838302D62697429203A200064
:1020D400524553554C54202836342D6269742920B6
:1020E4003A2000006000000020030000700000009F
:1020F400F0020000020000000D0200000C000000CD
:10210400EC01000008000000460000001000000080
:102114004000000002000000300000000800000041
:102124002800000008000000B800000010000000B3
:10213400B000000002000000820000000600000061
:102144007E00000020000000303132333435363751
:102154003839616263646566000000000D0900009F
:032164000D0A0061
:0200000480007A
:100000006F00400B130000001300000013000000FD
:100010001300000013000000130000001300000094
:10002000232E11FE232C51FE232A61FE232871FE6C
:100030002326A1FE2324B1FE2322C1FE2320D1FECC
:10004000232EE1FC232CF1FC232A01FD232811FDA2
:100050002326C1FD2324D1FD2322E1FD2320F1FD30
:10006000130101FC971000C0E78080998320C10331
:100070008322810303234103832301030325C10258
:100080008325810203264102832601020327C10141
:10009000832781010328410183280101032EC10028
:1000A000832E8100032F4100832F010013010104DF
:1000B00073002030973100C09381418B17110000ED
:1000C00013014188172500C01305450A972500C074
:1000D0009385C5096308B500232005001305450075
:1000E0006FF05FFF172500C0130545081301C1FF1E
:1000F000972500C093858507630EB500832605000C
:10010000130545002320A100E78006000325010018
:100110006FF01FFE1301410037150000130505881D
:1001200073104530372500001305858073100530A6
:0C013000970000C0E780C0576F0000007F
:040000058000000077
:00000001FF
