:020000044000BA
:10000000130101FE232E8100130401022326A4FE06
:100010008327C4FE23A007008327C4FE23A4070070
:10002000130000000324C1011301010267800000D6
:10003000130101FE232E8100130401022326A4FED6
:10004000130000000324C1011301010267800000B6
:10005000130101FE232E8100130401022326A4FEB6
:100060008327C4FE23A207008327C4FE1307F0FFE3
:1000700023A0E700130000000324C10113010102C3
:1000800067800000130101FE232E8100130401028A
:100090002326A4FE8327C4FE83A7470093D7070126
:1000A00093F7F70F138507000324C1011301010221
:1000B00067800000130101FE232E8100130401025A
:1000C0002326A4FE8327C4FE83A7470093D7870176
:1000D000138507000324C10113010102678000009A
:1000E000130101FE232E1100232C810013040102B1
:1000F0002326A4FE2324B4FE130000000325C4FE1F
:10010000EFF05FF893070500E38A07FE8327C4FE3C
:10011000032784FE23A0E700130000008320C10111
:10012000032481011301010267800000130101FE15
:10013000232E8100130401022326A4FE2324B4FEEF
:10014000832784FE03A7C7008327C4FE23A4E700F8
:10015000832784FE83A707001387F7FF832784FE86
:1001600083A74700939787003367F700832784FEB0
:1001700083A78700939707013367F7008327C4FE9F
:1001800023A6E700130000000324C10113010102AC
:1001900067800000130101FE232E81001304010279
:1001A0002326A4FE8327C4FE83A7070093F7270016
:1001B000B337F00093F7F70F138507000324C1014D
:1001C0001301010267800000130101FE232E81004C
:1001D000130401022326A4FE8327C4FE1307100084
:1001E00023A0E700130000000324C1011301010252
:1001F00067800000130101FE232E1100232C8100D3
:10020000130401022326A4FE8327C4FE23A00700B3
:10021000130000000325C4FEEFF0DFF7930705008D
:10022000E39A07FE13000000130000008320C101C1
:10023000032481011301010267800000130101FE04
:10024000232E8100130401022326A4FE2324B4FEDE
:10025000B72700F0032784FE23A4E700B72700F0A8
:100260001307100023A2E700B72700F00327C4FEFE
:1002700023A6E700B72700F01307100023A0E7002C
:10028000B72700F023A00700130000000324C101DA
:100290001301010267800000130101FD2326810282
:1002A00013040103232EA4FCB72700F00327C4FD89
:1002B00023A4E700B72700F023A20700B72700F028
:1002C0001307100023A0E700B72700F083A707015A
:1002D0002326F4FEB72700F023A007008327C4FEDF
:1002E000138507000324C102130101036780000086
:1002F000130101FE232E1100232C8100232A9100DB
:10030000130401022326A4FE2324B4FE2322C4FEE8
:100310002320D4FE832784FE9387C70083A707008A
:100320009305300113850700EFF05FF1832784FE0A
:100330009387870083A70700930520011385070093
:10034000EFF0DFEF832784FE9387470083A7070042
:100350009305100113850700EFF05FEE832784FEFD
:1003600083A707009305000113850700EFF01FED39
:100370009305A0000325C4FEEFF05FEC832744FE45
:100380009387470083A70700930510021385070092
:10039000EFF0DFEA832744FE83A7070093050002FE
:1003A00013850700EFF09FE9930580001305100007
:1003B000EFF0DFE81300000013059000EFF0DFED31
:1003C00093070500E38A07FE832704FE9384470012
:1003D00013051003EFF05FEC9307050023A0F40072
:1003E00013050003EFF05FEB13070500832704FEFE
:1003F00023A0E700130000008320C1010324810132
:10040000832441011301010267800000130101FEF2
:10041000232E1100232C8100130401022326A4FEA5
:100420006F0000028327C4FE138717002326E4FE13
:1004300083C7070093850700370501F0EFF05FCA17
:100440008327C4FE83C70700E39E07FC1300000058
:10045000130000008320C101032481011301010264
:1004600067800000130101FC232E1102232C81025E
:1004700013040104930780002320F4FE232204FECA
:10048000232404FE930750032326F4FE930704FE5F
:1004900093850700370501F0EFF05FC9B70700400B
:1004A0001385C774EFF09FF6B707004013854778B0
:1004B000EFF0DFF5B70700401385C77BEFF01FF5BE
:1004C000B70700401385477FEFF05FF4B7070040A0
:1004D0001385C774EFF09FF3232804FC232A04FC40
:1004E000232C04FC232E04FC232404FC232604FCDC
:1004F000232004FC232204FCB72711009387372311
:10050000232EF4FCB767554493877767232CF4FCBC
:10051000B7B799889387B7AB232AF4FCB7F7DDCC3C
:100520009387F7EF2328F4FCB74723019387775687
:100530002326F4FCB7D7AB899387F7DE2324F4FC9A
:10054000930604FC130784FC930704FD13060700BD
:100550009385070013051000EFF09FD9B70700F04F
:10056000032744FC23A2E700B70700F0032704FC9D
:1005700023A2E700232E04FC232C04FC232A04FCE2
:10058000232804FC232604FC232404FC930604FCF7
:10059000130784FC930704FD1306070093850700E7
:1005A00013051000EFF0DFD4B70700F0032744FC79
:1005B00023A2E700B70700F0032704FC23A2E7000B
:1005C000B7B7CDD893870778232EF4FCB7C7B4709C
:1005D0009387A755232CF4FCB76786819387A75A86
:1005E000232AF4FCB7E7020D9387A7FD2328F4FC28
:1005F000B7E7C4699387870D2326F4FCB7077B6AA6
:10060000938707432324F4FC930604FC130784FC1C
:10061000930704FD130607009385070013051000D8
:10062000EFF01FCDB70700F0032744FC23A2E7003B
:10063000B70700F0032704FC23A2E700B7B7CDD823
:1006400093870778232EF4FCB7C7B4709387A75518
:10065000232CF4FCB76786819387A75A232AF4FCDE
:10066000B7E7020D9387A7FD2328F4FCB7B7C6436D
:10067000938767252326F4FCB7E79DD79387877E6A
:100680002324F4FC930604FC130784FC930704FD65
:10069000130607009385070013050000EFF05FC500
:1006A000B70700F0032744FC23A2E700B70700F0D8
:1006B000032704FC23A2E70093070000138507002B
:1006C0008320C10303248103130101046780000018
:1006D000130101FF23268100130401011300000010
:0C06E0000324C100130101016780000029
:1006EC00600000002003000070000000F002000019
:1006FC00020000000D0200000C000000EC010000E4
:10070C00080000004600000010000000400000003F
:10071C00020000003000000008000000280000006B
:10072C0008000000B800000010000000B00000003D
:10073C000200000082000000060000007E000000A5
:10074C003D3D3D3D3D3D3D3D3D3D3D3D3D3D3D3DCD
:10075C003D3D3D3D3D3D3D3D3D3D3D3D3D3D3D3DBD
:10076C003D3D3D3D3D3D3D3D3D3D3D3D3D3D3D3DAD
:10077C003D3D3D3D0D0A00003D3D3D3D3D3D3D3D7A
:10078C003D3D416464205072696E63652050657212
:10079C006970686572616C20746F2042726965794A
:1007AC002D536F433D3D3D3D3D3D3D3D0D0A00000C
:1007BC003D3D3D3D3D3D3D3D3D3D4B31382046456C
:1007CC0054454C202D20454D42454444454420532E
:1007DC00595354454D202D3D3D3D3D3D3D3D3D3D09
:1007EC003D3D3D3D0D0A00003D3D3D3D3D3D3D3D0A
:1007FC003D3D3D3D3D4C4520445559204C494E48CE
:10080C00202D2031383230303135372D3D3D3D3DB6
:0F081C003D3D3D3D3D3D3D3D3D3D3D3D0D0A00DA
:04082C0000000000C8
:0200000480007A
:100000006F00400B130000001300000013000000FD
:100010001300000013000000130000001300000094
:10002000232E11FE232C51FE232A61FE232871FE6C
:100030002326A1FE2324B1FE2322C1FE2320D1FECC
:10004000232EE1FC232CF1FC232A01FD232811FDA2
:100050002326C1FD2324D1FD2322E1FD2320F1FD30
:10006000130101FC970000C0E780C0668320C10334
:100070008322810303234103832301030325C10258
:100080008325810203264102832601020327C10141
:10009000832781010328410183280101032EC10028
:1000A000832E8100032F4100832F010013010104DF
:1000B00073002030971100C09381C1F71711000021
:1000C00013014188170500C01305C576938581800B
:1000D0006308B50023200500130545006FF05FFF9E
:1000E000170500C01305C5741301C1FF970500C0B3
:1000F00093850574630EB50083260500130545003E
:100100002320A100E7800600032501006FF01FFEF9
:1001100013014100371500001305058873104530A1
:10012000372500001305858073100530970000C047
:08013000E78080336F0000003E
:040000058000000077
:00000001FF
