:020000044000BA
:10000000130101FE232E8100130401022326A4FE06
:100010008327C4FE23A007008327C4FE23A4070070
:10002000130000000324C1011301010267800000D6
:10003000130101FE232E8100130401022326A4FED6
:10004000130000000324C1011301010267800000B6
:10005000130101FE232E8100130401022326A4FEB6
:100060008327C4FE23A207008327C4FE1307F0FFE3
:1000700023A0E700130000000324C10113010102C3
:1000800067800000130101FE232E8100130401028A
:100090002326A4FE8327C4FE83A7470093D7070126
:1000A00093F7F70F138507000324C1011301010221
:1000B00067800000130101FE232E8100130401025A
:1000C0002326A4FE8327C4FE83A7470093D7870176
:1000D000138507000324C10113010102678000009A
:1000E000130101FE232E1100232C810013040102B1
:1000F0002326A4FE2324B4FE130000000325C4FE1F
:10010000EFF05FF893070500E38A07FE8327C4FE3C
:10011000032784FE23A0E700130000008320C10111
:10012000032481011301010267800000130101FE15
:10013000232E8100130401022326A4FE2324B4FEEF
:10014000832784FE03A7C7008327C4FE23A4E700F8
:10015000832784FE83A707001387F7FF832784FE86
:1001600083A74700939787003367F700832784FEB0
:1001700083A78700939707013367F7008327C4FE9F
:1001800023A6E700130000000324C10113010102AC
:1001900067800000130101FE232E81001304010279
:1001A0002326A4FE8327C4FE83A7070093F7270016
:1001B000B337F00093F7F70F138507000324C1014D
:1001C0001301010267800000130101FE232E81004C
:1001D000130401022326A4FE8327C4FE1307100084
:1001E00023A0E700130000000324C1011301010252
:1001F00067800000130101FE232E1100232C8100D3
:10020000130401022326A4FE8327C4FE23A00700B3
:10021000130000000325C4FEEFF0DFF7930705008D
:10022000E39A07FE13000000130000008320C101C1
:10023000032481011301010267800000130101FE04
:10024000232E8100130401022326A4FE2324B4FEDE
:10025000B73700F0938707C0032784FE23A4E70085
:10026000B73700F0938707C01307100023A2E700F9
:10027000B73700F0938707C00327C4FE23A6E70023
:10028000B73700F0938707C01307100023A0E700DB
:10029000B73700F0938707C023A0070013000000C2
:1002A0000324C1011301010267800000130101FD55
:1002B0002326810213040103232EA4FCB73700F088
:1002C000938707C00327C4FD23A4E700B73700F0D6
:1002D000938707C023A20700B73700F0938707C0B2
:1002E0001307100023A0E700B73700F0938707C07B
:1002F00083A707012326F4FEB73700F0938707C0D2
:1003000023A007008327C4FE138507000324C1022E
:100310001301010367800000130101FD2326110270
:100320002324810223229102130401039307050071
:100330002324B4FE2322C4FE2320D4FE232EE4FC77
:10034000A307F4FE832784FE9387C70183A70700D2
:100350009305000113850700EFF05FEE832784FE0D
:100360009387870183A70700930510011385070072
:10037000EFF0DFEC832784FE9387470183A7070014
:100380009305200113850700EFF05FEB832784FEC0
:100390009387070183A707009305300113850700A2
:1003A000EFF0DFE9832784FE9387C70083A7070068
:1003B0009305400113850700EFF05FE8832784FE73
:1003C0009387870083A707009305500113850700D3
:1003D000EFF0DFE6832784FE9387470083A70700BB
:1003E0009305600113850700EFF05FE5832784FE26
:1003F00083A707009305700113850700EFF01FE442
:10040000832744FE9387470083A7070093050002D4
:1004100013850700EFF09FE2832744FE83A70700C0
:100420009305100213850700EFF05FE18347F4FEA8
:100430009305A00013850700EFF05FE09305B0007F
:10044000032504FEEFF09FDF9305800013051000E5
:10045000EFF0DFDE1300000013059000EFF01FE562
:1004600093070500E38A07FE8327C4FD9384C7032F
:1004700013050008EFF09FE39307050023A0F400A5
:100480008327C4FD9384870313051008EFF01FE250
:100490009307050023A0F4008327C4FD938447033A
:1004A00013052008EFF09FE09307050023A0F40058
:1004B0008327C4FD9384070313053008EFF01FDF83
:1004C0009307050023A0F4008327C4FD9384C7028B
:1004D00013054008EFF09FDD9307050023A0F4000B
:1004E0008327C4FD9384870213055008EFF01FDCB7
:1004F0009307050023A0F4008327C4FD93844702DB
:1005000013056008EFF09FDA9307050023A0F400BD
:100510008327C4FD9384070213057008EFF01FD9E9
:100520009307050023A0F4008327C4FD9384C7012B
:1005300013058008EFF09FD79307050023A0F40070
:100540008327C4FD9384870113059008EFF01FD61D
:100550009307050023A0F4008327C4FD938447017B
:100560001305A008EFF09FD49307050023A0F40023
:100570008327C4FD938407011305B008EFF01FD350
:100580009307050023A0F4008327C4FD9384C700CC
:100590001305C008EFF09FD19307050023A0F400D6
:1005A0008327C4FD938487001305D008EFF01FD084
:1005B0009307050023A0F4008327C4FD938447001C
:1005C0001305E008EFF09FCE9307050023A0F40089
:1005D0001305F008EFF09FCD130705008327C4FD36
:1005E00023A0E700B72700401385C745EF10C07A66
:1005F000B72700401385074BEF10007A832544FE90
:10060000B72700401385474BEF10901F832584FECA
:10061000B72700401385074DEF1050378325C4FDE1
:10062000B72700401385874EEF10D0441300000019
:100630008320C102032481028324410213010103A8
:1006400067800000130101FE232E810013040102C4
:100650002326A4FE8327C4FE23A007008327C4FE0D
:1006600023A40700130000000324C10113010102A9
:1006700067800000130101FE232E81001304010294
:100680002326A4FE130000000324C101130101026C
:1006900067800000130101FE232E81001304010274
:1006A0002326A4FE8327C4FE23A207008327C4FEBB
:1006B0001307F0FF23A0E700130000000324C1018B
:1006C0001301010267800000130101FE232E810047
:1006D000130401022326A4FE8327C4FE83A7470038
:1006E00093D7070193F7F70F138507000324C10180
:1006F0001301010267800000130101FE232E810017
:10070000130401022326A4FE8327C4FE83A7470007
:1007100093D78701138507000324C1011301010248
:1007200067800000130101FE232E1100232C81009D
:10073000130401022326A4FE2324B4FE13000000A8
:100740000325C4FEEFF05FF893070500E38A07FE78
:100750008327C4FE032784FE23A0E70013000000C4
:100760008320C1010324810113010102678000007D
:10077000130101FE232E8100130401022326A4FE8F
:100780002324B4FE832784FE03A7C7008327C4FE67
:1007900023A4E700832784FE83A707001387F7FFBE
:1007A000832784FE83A74700939787003367F7006A
:1007B000832784FE83A78700939707013367F70099
:1007C0008327C4FE23A6E700130000000324C10111
:1007D0001301010267800000130101FE232E810036
:1007E000130401022326A4FE8327C4FE83A7070067
:1007F00093F72700B337F00093F7F70F138507003F
:100800000324C1011301010267800000130101FEEE
:10081000232E8100130401022326A4FE8327C4FE95
:100820001307100023A0E700130000000324C101F8
:100830001301010267800000130101FE232E110045
:10084000232C8100130401022326A4FE8327C4FE67
:1008500023A00700130000000325C4FEEFF0DFF71C
:1008600093070500E39A07FE130000001300000041
:100870008320C1010324810113010102678000006C
:10088000130101FE232E8100130401022326A4FE7E
:100890002324B4FEB72700F0032784FE23A4E70037
:1008A000B72700F01307100023A2E700B72700F0D6
:1008B0000327C4FE23A6E700B72700F013071000A4
:1008C00023A0E700B72700F023A0070013000000D3
:1008D0000324C1011301010267800000130101FD1F
:1008E0002326810213040103232EA4FCB72700F062
:1008F0000327C4FD23A4E700B72700F023A20700C5
:10090000B72700F01307100023A0E700B72700F077
:1009100083A707012326F4FEB72700F023A00700D2
:100920008327C4FE138507000324C10213010103BA
:1009300067800000130101FE232E1100232C81008B
:10094000232A9100130401022326A4FE2324B4FECB
:100950002322C4FE2320D4FE9305A0000325C4FE59
:10096000EFF01FF2832744FE9387470083A7070019
:100970009305100213850700EFF09FF0832744FED4
:1009800083A707009305000213850700EFF05FEFD0
:10099000832784FE9387C70083A707009305300150
:1009A00013850700EFF0DFED832784FE9387870030
:1009B00083A707009305200113850700EFF05FEC84
:1009C000832784FE9387470083A7070093051001C0
:1009D00013850700EFF0DFEA832784FE83A7070073
:1009E0009305000113850700EFF09FE99305800050
:1009F00013051000EFF0DFE813000000130590006E
:100A0000EFF0DFED93070500E38A07FE832704FE7E
:100A10009384470013051003EFF05FEC9307050084
:100A200023A0F40013050003EFF05FEB13070500AC
:100A3000832704FE23A0E7000327C4FE93071000CA
:100A4000631AF700B72700401385C755EF10C0346D
:100A50006F000001B72700401385075BEF10C0331C
:100A6000B727004013854760EF100033832544FE0D
:100A7000B727004013858760EF108058832584FED8
:100A8000B727004013850762EF10805E832504FEC0
:100A9000B727004013854763EF108056130000000E
:100AA0008320C10103248101832441011301010238
:100AB00067800000130101FE232E81001304010250
:100AC0002326A4FE8327C4FE23A007008327C4FE99
:100AD00023A40700130000000324C1011301010235
:100AE00067800000130101FE232E81001304010220
:100AF0002326A4FE130000000324C10113010102F8
:100B000067800000130101FE232E810013040102FF
:100B10002326A4FE8327C4FE23A207008327C4FE46
:100B20001307F0FF23A0E700130000000324C10116
:100B30001301010267800000130101FE232E8100D2
:100B4000130401022326A4FE8327C4FE83A74700C3
:100B500093D7070193F7F70F138507000324C1010B
:100B60001301010267800000130101FE232E8100A2
:100B7000130401022326A4FE8327C4FE83A7470093
:100B800093D78701138507000324C10113010102D4
:100B900067800000130101FE232E1100232C810029
:100BA000130401022326A4FE2324B4FE1300000034
:100BB0000325C4FEEFF05FF893070500E38A07FE04
:100BC0008327C4FE032784FE23A0E7001300000050
:100BD0008320C10103248101130101026780000009
:100BE000130101FE232E8100130401022326A4FE1B
:100BF0002324B4FE832784FE03A7C7008327C4FEF3
:100C000023A4E700832784FE83A707001387F7FF49
:100C1000832784FE83A74700939787003367F700F5
:100C2000832784FE83A78700939707013367F70024
:100C30008327C4FE23A6E700130000000324C1019C
:100C40001301010267800000130101FE232E8100C1
:100C5000130401022326A4FE8327C4FE83A70700F2
:100C600093F72700B337F00093F7F70F13850700CA
:100C70000324C1011301010267800000130101FE7A
:100C8000232E8100130401022326A4FE8327C4FE21
:100C90001307100023A0E700130000000324C10184
:100CA0001301010267800000130101FE232E1100D1
:100CB000232C8100130401022326A4FE8327C4FEF3
:100CC00023A00700130000000325C4FEEFF0DFF7A8
:100CD00093070500E39A07FE1300000013000000CD
:100CE0008320C101032481011301010267800000F8
:100CF000130101F2232E110C232C810C1304010E7D
:100D000093078000232EF4FC232004FE232204FEFC
:100D1000930750032324F4FE9307C4FD9385070033
:100D2000370501F0EFF0DFEBB72700401385876A46
:100D3000EF108006232E04FA232004FC232204FC57
:100D4000232404FC232604FC232804FC232A04FC7B
:100D5000232C04FC232A04FA232C04FA232C04F663
:100D6000232E04F6232004F8232204F8232404F875
:100D7000232604F8232804F8232A04F8232C04F853
:100D8000232E04F8232004FA232204FA232404FA4D
:100D9000232604FA232804FA930780002326F4FE6E
:100DA000130784F7130644FB9307C4FB8326C4FE92
:100DB0009385070013050000EFF00FD6232C04FAEB
:100DC000232A04FA130784F7130644FB9307C4FB92
:100DD0009306C0009385070013050000EFF0CFD302
:100DE000232C04FA232A04FA130784F7130644FB7E
:100DF0009307C4FB93064001938507001305000089
:100E0000EFF08FD1232C04FA232A04FA130784F776
:100E1000130644FB9307C4FB9306800093850700E9
:100E200013051000EFF04FCF232C04FA232A04FA05
:100E3000130784F7130644FB9307C4FB9306C00013
:100E40009385070013051000EFF00FCD232C04FA53
:100E5000232A04FA130784F7130644FB9307C4FB01
:100E6000930640019385070013051000EFF0CFCAE9
:100E7000B7371E0F9387C7D3232CF4FAB777594B94
:100E800093877787232AF4FAB727110093873723AC
:100E9000232CF4FCB767554493877767232AF4FC27
:100EA000B7B799889387B7AB2328F4FCB7F7DDCCA5
:100EB0009387F7EF2326F4FCB7E7EEFF9387C7DCB1
:100EC0002324F4FCB7A7AABB938787982322F4FCBA
:100ED000B7576677938747542320F4FCB71722331C
:100EE00093870710232EF4FA130784F7130644FBA5
:100EF0009307C4FB8326C4FE9385070013051000E7
:100F0000EFF08FC1B72700401385C76FEF00D0689F
:100F1000232404F6232604F6232804F6232A04F6C1
:100F2000232004F6232204F6232C04F4232E04F4B5
:100F3000B727004013850775EF001066B7E7C4694F
:100F40009387870D2322F4F6B7077B6A93870743BD
:100F50002320F4F6B7B7CDD893870778232AF4F681
:100F6000B7C7B4709387A7552328F4F6B76786816F
:100F70009387A75A2326F4F6B7E7020D9387A7FDB8
:100F80002324F4F6930684F5130704F6930784F6F6
:100F9000130607009385070013051000EFF09F99D3
:100FA000B72700401385477AEF00105FB7B7C643F5
:100FB000938767252322F4F6B7E79DD79387877E2B
:100FC0002320F4F6930684F5130704F6930784F6BA
:100FD000130607009385070013050000EFF09F95A7
:100FE000B72700401385877FEF00105BB7270040CD
:100FF0001385C77FEF00505A232604F4232804F4F6
:10100000232A04F4232204F4232404F4232E04F2D8
:10101000232004F4B737004013850785EF00D0572D
:10102000B777744C938777E62324F4F4B767797520
:101030009387E7562322F4F4B7776546938757469C
:10104000232AF4F4B767486C9387D7362328F4F43F
:10105000B7770000938737572326F4F49306C4F339
:10106000130744F49307C4F413060700938507009D
:1010700013050000EF00804FB73700401385478A03
:10108000EF009051B7071D0E9387470D2324F4F40A
:10109000B7B76BE49387C7992322F4F49306C4F39C
:1010A000130744F49307C4F413060700938507005D
:1010B00013051000EF00804BB72700401385877F92
:1010C000EF00904DB73700401385878FEF00D04C6D
:1010D000232804F2232A04F2232C04F2232404F20A
:1010E000232604F2232004F2232204F2B73700401F
:1010F00013850785EF00504AB777744C938777E6DE
:101100002326F4F2B76779759387E7562324F4F220
:10111000B777654693875746232CF4F2B767486C38
:101120009387D736232AF4F2B7770000938737578F
:101130002328F4F2930604F2130784F2930704F3CE
:10114000138606009305070013850700EF00500D76
:10115000B73700401385478AEF001044B7776546DC
:10116000938757462326F4F2B7575F6C938737551A
:101170002324F4F2232C04F2232A04F29307100010
:101180002328F4F2930604F2130784F2930704F37E
:10119000138606009305070013850700EF0050082B
:1011A000B73700401385C794EF00103FB737383189
:1011B000938707232326F4F2B74731309387378389
:1011C0002324F4F2B737383193870723232CF4F222
:1011D000B747313093873783232AF4F2B75700009B
:1011E000938737552328F4F2930604F2130784F209
:1011F000930704F313860600930507001385070081
:10120000EF00100293070000138507008320C10D33
:101210000324810D1301010E67800000130101FFFB
:101220002326810013040101130000000324C100E0
:101230001301010167800000130101FE232E8100CC
:10124000130401022326A4FE8327C4FE23A0070063
:101250008327C4FE23A40700130000000324C10158
:101260001301010267800000130101FE232E81009B
:10127000130401022326A4FE130000000324C1016D
:101280001301010267800000130101FE232E81007B
:10129000130401022326A4FE8327C4FE23A2070011
:1012A0008327C4FE1307F0FF23A0E700130000000C
:1012B0000324C1011301010267800000130101FE34
:1012C000232E8100130401022326A4FE8327C4FEDB
:1012D00083A7470093D7070193F7F70F13850700FC
:1012E0000324C1011301010267800000130101FE04
:1012F000232E8100130401022326A4FE8327C4FEAB
:1013000083A7470093D78701138507000324C101F2
:101310001301010267800000130101FE232E11005A
:10132000232C8100130401022326A4FE2324B4FEEF
:10133000130000000325C4FEEFF05FF893070500DB
:10134000E38A07FE8327C4FE032784FE23A0E70069
:10135000130000008320C101032481011301010255
:1013600067800000130101FE232E81001304010297
:101370002326A4FE2324B4FE832784FE03A7C700EC
:101380008327C4FE23A4E700832784FE83A70700E6
:101390001387F7FF832784FE83A74700939787006F
:1013A0003367F700832784FE83A78700939707019D
:1013B0003367F7008327C4FE23A6E700130000006D
:1013C0000324C1011301010267800000130101FE23
:1013D000232E8100130401022326A4FE8327C4FECA
:1013E00083A7070093F72700B337F00093F7F70FB1
:1013F000138507000324C101130101026780000067
:10140000130101FE232E8100130401022326A4FEF2
:101410008327C4FE1307100023A0E7001300000079
:101420000324C1011301010267800000130101FEC2
:10143000232E1100232C8100130401022326A4FE75
:101440008327C4FE23A00700130000000325C4FE69
:10145000EFF0DFF793070500E39A07FE13000000A3
:10146000130000008320C101032481011301010244
:1014700067800000130101FE232E81001304010286
:101480002326A4FE2324B4FEB72700F09387074049
:10149000032784FE23A6E700B72700F093870740C1
:1014A00023A20700B72700F0938707401307100017
:1014B00023A4E700B72700F0938707400327C4FE63
:1014C00023A8E700B72700F09387074023A0070071
:1014D000B72700F0938707401307100023A0E70009
:1014E000130000000324C101130101026780000002
:1014F000130101FD2326810213040103232EA4FC02
:10150000B72700F0938707400327C4FD23A6E70011
:10151000B72700F09387074023A40700B72700F000
:10152000938707401307100023A2E700B72700F0B6
:101530009387074023A00700B72700F09387074051
:1015400083A747012326F4FEB72700F093870740BF
:101550001307100023A0E7008327C4FE13850700AC
:101560000324C1021301010367800000130101FE7F
:10157000232E1100232C8100232A91001304010241
:10158000930705002324B4FE2322C4FE2320D4FEA7
:10159000A307F4FE8347F4FE639A070093058000D7
:1015A00013050000EFF01FED6F00000193058000B0
:1015B00013051000EFF01FEC832744FE93874700CC
:1015C00083A707009305500013850700EFF09FEAFB
:1015D000832744FE83A70700930540001385070077
:1015E000EFF05FE9832784FE9387870083A70700D6
:1015F0009305300013850700EFF0DFE7832784FEB3
:101600009387470083A707009305200013850700F1
:10161000EFF05FE6832784FE83A7070093051000A1
:1016200013850700EFF01FE5930500001305100078
:10163000EFF05FE41300000013056000EFF05FEBD4
:1016400093070500E38A07FE832704FE938447007F
:1016500013057000EFF0DFE99307050023A0F40005
:1016600013056000EFF0DFE813070500832704FE91
:1016700023A0E7008347F4FE639A0700B7370040D2
:10168000138507A0EF0040716F000001B7370040DD
:10169000138547A5EF004070B7370040138587AA30
:1016A000EF00806F832544FEB73700401385C7AA3B
:1016B000EF001015832584FEB7370040138587ACF3
:1016C000EF009024832504FEB7370040138587ADD3
:1016D000EF001013130000008320C10103248101D7
:1016E000832441011301010267800000130101FE00
:1016F000232E8100130401022326A4FE8327C4FEA7
:1017000023A007008327C4FE23A4070013000000C2
:101710000324C1011301010267800000130101FECF
:10172000232E8100130401022326A4FE13000000CF
:101730000324C1011301010267800000130101FEAF
:10174000232E8100130401022326A4FE8327C4FE56
:1017500023A207008327C4FE1307F0FF23A0E7009E
:10176000130000000324C10113010102678000007F
:10177000130101FE232E8100130401022326A4FE7F
:101780008327C4FE83A7470093D7070193F7F70F7A
:10179000138507000324C1011301010267800000C3
:1017A000130101FE232E8100130401022326A4FE4F
:1017B0008327C4FE83A7470093D7870113850700BB
:1017C0000324C1011301010267800000130101FE1F
:1017D000232E1100232C8100130401022326A4FED2
:1017E0002324B4FE130000000325C4FEEFF05FF8CD
:1017F00093070500E38A07FE8327C4FE032784FEC0
:1018000023A0E700130000008320C101032481010D
:101810001301010267800000130101FE232E8100E5
:10182000130401022326A4FE2324B4FE832784FE8E
:1018300003A7C7008327C4FE23A4E700832784FEF1
:1018400083A707001387F7FF832784FE83A747003A
:10185000939787003367F700832784FE83A7870069
:10186000939707013367F7008327C4FE23A6E70099
:10187000130000000324C10113010102678000006E
:10188000130101FE232E8100130401022326A4FE6E
:101890008327C4FE83A7070093F72700B337F00020
:1018A00093F7F70F138507000324C1011301010209
:1018B00067800000130101FE232E81001304010242
:1018C0002326A4FE8327C4FE1307100023A0E700ED
:1018D000130000000324C10113010102678000000E
:1018E000130101FE232E1100232C81001304010299
:1018F0002326A4FE8327C4FE23A0070013000000B4
:101900000325C4FEEFF0DFF793070500E39A07FE17
:1019100013000000130000008320C1010324810193
:101920001301010267800000130101FE232E8100D4
:10193000130401022326A4FE2324B4FEB73700F0CB
:1019400093870780032784FE23A6E700B73700F0BC
:101950009387078023A20700B73700F0938707809B
:101960001307100023A4E700B73700F09387078020
:101970000327C4FE23A8E700B73700F0938707804A
:1019800023A00700B73700F09387078013071000E4
:1019900023A0E700130000000324C101130101028A
:1019A00067800000130101FD232681021304010357
:1019B000232EA4FCB73700F0938707800327C4FDCC
:1019C00023A6E700B73700F09387078023A407001A
:1019D000B73700F0938707801307100023A2E700B2
:1019E000B73700F09387078023A00700B73700F0D0
:1019F0009387078083A747012326F4FEB73700F0BB
:101A0000938707801307100023A0E7008327C4FEF5
:101A1000138507000324C10213010103678000003E
:101A2000130101FE232E1100232C8100232A910093
:101A3000130401022326A4FE2324B4FE2322C4FEA1
:101A4000832784FE9387470083A7070093055000F0
:101A500013850700EFF05FED832784FE83A707005F
:101A60009305400013850700EFF01FEC8327C4FEA9
:101A70009387870083A7070093053000138507002D
:101A8000EFF09FEA8327C4FE9387470083A70700F0
:101A90009305200013850700EFF01FE98327C4FE9C
:101AA00083A707009305100013850700EFF0DFE719
:101AB0009305000013051000EFF01FE7130000006E
:101AC00013056000EFF01FEE93070500E38A07FEA1
:101AD000832744FE9384470013057000EFF09FECCA
:101AE0009307050023A0F40013056000EFF09FEBBF
:101AF00013070500832744FE23A0E700B737004003
:101B00001385C7B4EF004029B7370040138507BAE3
:101B1000EF008028832584FEB7370040138547BA3D
:101B2000EF00004E8325C4FEB7370040138507BC85
:101B3000EF00805D832544FEB7370040138507BD65
:101B4000EF00004C130000008320C1010324810139
:101B5000832441011301010267800000130101FE8B
:101B6000232E8100130401022326A4FE8327C4FE32
:101B700023A007008327C4FE23A40700130000004E
:101B80000324C1011301010267800000130101FE5B
:101B9000232E8100130401022326A4FE130000005B
:101BA0000324C1011301010267800000130101FE3B
:101BB000232E8100130401022326A4FE8327C4FEE2
:101BC00023A207008327C4FE1307F0FF23A0E7002A
:101BD000130000000324C10113010102678000000B
:101BE000130101FE232E8100130401022326A4FE0B
:101BF0008327C4FE83A7470093D7070193F7F70F06
:101C0000138507000324C10113010102678000004E
:101C1000130101FE232E8100130401022326A4FEDA
:101C20008327C4FE83A7470093D787011385070046
:101C30000324C1011301010267800000130101FEAA
:101C4000232E1100232C8100130401022326A4FE5D
:101C50002324B4FE130000000325C4FEEFF05FF858
:101C600093070500E38A07FE8327C4FE032784FE4B
:101C700023A0E700130000008320C1010324810199
:101C80001301010267800000130101FE232E810071
:101C9000130401022326A4FE2324B4FE832784FE1A
:101CA00003A7C7008327C4FE23A4E700832784FE7D
:101CB00083A707001387F7FF832784FE83A74700C6
:101CC000939787003367F700832784FE83A78700F5
:101CD000939707013367F7008327C4FE23A6E70025
:101CE000130000000324C1011301010267800000FA
:101CF000130101FE232E8100130401022326A4FEFA
:101D00008327C4FE83A7070093F72700B337F000AB
:101D100093F7F70F138507000324C1011301010294
:101D200067800000130101FE232E810013040102CD
:101D30002326A4FE8327C4FE1307100023A0E70078
:101D4000130000000324C101130101026780000099
:101D5000130101FE232E1100232C81001304010224
:101D60002326A4FE8327C4FE23A00700130000003F
:101D70000325C4FEEFF0DFF793070500E39A07FEA3
:101D800013000000130000008320C101032481011F
:101D90001301010267800000130101FE232E1100D0
:101DA000232C8100130401022326A4FE6F000002ED
:101DB0008327C4FE138717002326E4FE83C707008A
:101DC00093850700370501F0EFF05FE78327C4FE36
:101DD00083C70700E39E07FC130000001300000008
:101DE0008320C101032481011301010267800000E7
:101DF000130101FC232E1102232C81021304010480
:101E00002326A4FC232604FE232E04FC232004FE08
:101E10008327C4FC93F7F70037370040130787C4C4
:101E2000B307F70003C707008327C4FE930604FF28
:101E3000B387F6002386E7FE8327C4FE9387170047
:101E40002326F4FE8327C4FC93D747002326F4FC03
:101E50008327C4FCE39E07FA0327C4FE93077000A0
:101E600063CEE702930770002324F4FE6F00400264
:101E700013070003832784FE930604FFB387F6004D
:101E80002386E7FE832784FE9387F7FF2324F4FE4F
:101E9000032784FE8327C4FEE35CF7FC930730002E
:101EA0002322F4FE6F00C002832744FE130704FFC1
:101EB000B307F70083C7C7FE93850700370501F016
:101EC000EFF0DFD7832744FE9387F7FF2322F4FE4A
:101ED000832744FEE3DA07FCB7370040138547C485
:101EE000EFF09FEB130000008320C1030324810364
:101EF0001301010467800000130101FC232E11026D
:101F0000232C8102130401042326A4FC232604FEAF
:101F1000232E04FC232004FE8327C4FC93F7F70040
:101F200037370040130787C4B307F70003C707001C
:101F30008327C4FE930604FFB387F6002386E7FEDB
:101F40008327C4FE938717002326F4FE8327C4FC4F
:101F500093D747002326F4FC8327C4FCE39E07FAAB
:101F60000327C4FE9307700063CEE7029307700057
:101F70002324F4FE6F00400213070003832784FE2E
:101F8000930604FFB387F6002386E7FE832784FECB
:101F90009387F7FF2324F4FE032784FE8327C4FEE0
:101FA000E35CF7FC930770002322F4FE6F00C0028D
:101FB000832744FE130704FFB307F70083C7C7FE58
:101FC00093850700370501F0EFF05FC7832744FED4
:101FD0009387F7FF2322F4FE832744FEE3DA07FC0E
:101FE000B7370040138547C4EFF01FDB1300000034
:101FF0008320C103032481031301010467800000CF
:10200000130101FE232E1100232C81001304010271
:102010002326A4FE2324B4FEB73700401385C7C58A
:10202000EFF09FD70325C4FEEFF01FD7832784FE70
:102030009387470083A7070013850700EFF0DFEBC6
:10204000832784FE83A7070013850700EFF0DFEAEC
:10205000B7370040138507C6EFF01FD41300000008
:102060008320C10103248101130101026780000064
:10207000130101FE232E1100232C81001304010201
:102080002326A4FE2324B4FEB73700401385C7C51A
:10209000EFF09FD00325C4FEEFF01FD0832784FE0E
:1020A0009387C70083A7070013850700EFF0DFE4DD
:1020B000832784FE9387870083A707001385070083
:1020C000EFF09FE3832784FE9387470083A70700F1
:1020D00013850700EFF05FE2832784FE83A70700E4
:1020E00013850700EFF05FE1B7370040138507C69F
:1020F000EFF09FCA130000008320C1010324810177
:102100001301010267800000130101FE232E11005C
:10211000232C8100130401022326A4FE2324B4FEF1
:10212000B73700401385C7C5EFF01FC70325C4FEAE
:10213000EFF09FC6832784FE9387870083A707005D
:1021400013850700EFF05FDB832784FE938747004A
:1021500083A7070013850700EFF01FDA832784FEAB
:1021600083A7070013850700EFF09FC8B73700402B
:10217000138507C6EFF05FC2130000008320C10182
:10218000032481011301010267800000130101FE95
:10219000232E1100232C8100130401022326A4FE08
:1021A0002324B4FEB73700401385C7C5EFF0DFBE68
:1021B0000325C4FEEFF05FBE832784FE9387C7012B
:1021C00083A7070013850700EFF01FD3832784FE42
:1021D0009387870183A7070013850700EFF0DFD1FE
:1021E000832784FE9387470183A707001385070091
:1021F000EFF09FD0832784FE9387070183A7070012
:1022000013850700EFF05FCF832784FE9387C70015
:1022100083A7070013850700EFF01FCE832784FEF6
:102220009387870083A7070013850700EFF0DFCCB3
:10223000832784FE9387470083A707001385070041
:10224000EFF09FCB832784FE83A707001385070049
:10225000EFF09FCAB7370040138507C6EFF0DFB332
:10226000130000008320C101032481011301010236
:1022700067800000130101FE232E1100232C810032
:10228000130401022326A4FE2324B4FEB737004022
:102290001385C7C5EFF05FB00325C4FEEFF0DFAFD5
:1022A000832784FE9387C70383A70700138507004E
:1022B000EFF09FC4832784FE9387870383A70700DB
:1022C00013850700EFF05FC3832784FE93874703DE
:1022D00083A7070013850700EFF01FC2832784FE42
:1022E0009387070383A7070013850700EFF0DFC07C
:1022F000832784FE9387C70283A7070013850700FF
:10230000EFF09FBF832784FE9387870283A7070090
:1023100013850700EFF05FBE832784FE9387470293
:1023200083A7070013850700EFF01FBD832784FEF6
:102330009387070283A7070013850700EFF0DFBB31
:10234000832784FE9387C70183A7070013850700AF
:10235000EFF09FBA832784FE9387870183A7070046
:1023600013850700EFF05FB9832784FE9387470149
:1023700083A7070013850700EFF01FB8832784FEAB
:102380009387070183A7070013850700EFF0DFB6E7
:10239000832784FE9387C70083A707001385070060
:1023A000EFF09FB5832784FE9387870083A70700FC
:1023B00013850700EFF05FB4832784FE93874700FF
:1023C00083A7070013850700EFF01FB3832784FE60
:1023D00083A7070013850700EFF01FB2B73700404F
:1023E000138507C6EFF05F9B130000008320C10137
:0C23F0000324810113010102678000003A
:1023FC00600000002003000070000000F0020000EC
:10240C00020000000D0200000C000000EC010000B6
:10241C000800000046000000100000004000000012
:10242C00020000003000000008000000280000003E
:10243C0008000000B800000010000000B000000010
:10244C000200000082000000060000007E00000078
:10245C000D093D3D3D3D3D3D3D3D3D3D3D3D3D3D04
:10246C003D3D3D3D3D3D3D3D3D3D3D3D3D4348417B
:10247C004348413230204349504845523D3D3D3D53
:10248C003D3D3D3D3D3D3D3D3D3D3D3D3D3D3D3D70
:10249C003D3D3D3D3D3D3D3D3D3D3D3D3D3D0D0AC3
:1024AC00000000000D0A00000D09504C41494E5F20
:1024BC0054455854202836342D62697429203A200A
:1024CC00000000004B455920283132382F32353668
:1024DC002D62697429203A200000000052455355A2
:1024EC004C5420283531322D62697429203A200051
:1024FC00600000002003000070000000F0020000EB
:10250C00020000000D0200000C000000EC010000B5
:10251C000800000046000000100000004000000011
:10252C00020000003000000008000000280000003D
:10253C0008000000B800000010000000B00000000F
:10254C000200000082000000060000007E00000077
:10255C000D093D3D3D3D3D3D3D3D3D3D3D3D3D3D03
:10256C003D3D3D3D3D3D3D3D3D3D3D3D3D3D3D507C
:10257C0052494E434520454E435259505454494FAD
:10258C004E3D3D3D3D3D3D3D3D3D3D3D3D3D3D3D5E
:10259C003D3D3D3D3D3D3D3D3D3D3D3D3D3D0D0AC2
:1025AC00000000000D093D3D3D3D3D3D3D3D3D3DA7
:1025BC003D3D3D3D3D3D3D3D3D3D3D3D3D3D3D3D3F
:1025CC003D3D3D5052494E434520444543525950A0
:1025DC005454494F4E3D3D3D3D3D3D3D3D3D3D3DC2
:1025EC003D3D3D3D3D3D3D3D3D3D3D3D3D3D3D3D0F
:1025FC003D3D0D0A000000000D0A0000504C414901
:10260C004E5F54455854202836342D626974292065
:10261C003A2000004B455920283132382D6269741C
:10262C0029203A2000000000524553554C542028D4
:10263C0036342D62697429203A20000060000000B5
:10264C002003000070000000F002000002000000F7
:10265C000D0200000C000000EC010000080000005E
:10266C0046000000100000004000000002000000C6
:10267C0030000000080000002800000008000000E6
:10268C00B800000010000000B000000002000000C4
:10269C0082000000060000007E0000000D092A2ABE
:1026AC002A2A2A2A2A2A2A2A2A2A2A2A2A2A2A2A7E
:1026BC002A2A2A2A2A2A2A2A2A2A2A2A2A2A2A2A6E
:1026CC0043484143484120544553542A2A2A2A2A34
:1026DC002A2A2A2A2A2A2A2A2A2A2A2A2A2A2A2A4E
:1026EC002A2A2A2A2A2A2A2A2A2A0D0A0000000023
:1026FC000D092A2A2A2A2A2A2A2A2A2A2A2A2A2A6C
:10270C002A2A2A2A2A2A2A2A2A2A2A2A2A2A2A2A1D
:10271C002A2A2A2A5052494E434520544553542ABA
:10272C002A2A2A2A2A2A2A2A2A2A2A2A2A2A2A2AFD
:10273C002A2A2A2A2A2A2A2A2A2A2A2A2A2A0D0A2A
:10274C00000000000D0A093D3D3D3D3D3D3D3D3D38
:10275C003D3D3D3D3D3D3D3D3D3D3D3D3D3D3D3D9D
:10276C003D3D3D3D3D3D3D3D3D3D5445535420316A
:10277C003D3D3D3D3D3D3D3D3D3D3D3D3D3D3D3D7D
:10278C003D3D3D3D3D3D3D3D3D3D3D3D3D3D3D3D6D
:10279C003D3D3D0D0A0000000D0A093D3D3D3D3D0E
:1027AC003D3D3D3D3D3D3D3D3D3D3D3D3D3D3D3D4D
:1027BC003D3D3D3D3D3D3D3D3D3D3D3D3D3D54451E
:1027CC00535420323D3D3D3D3D3D3D3D3D3D3D3D28
:1027DC003D3D3D3D3D3D3D3D3D3D3D3D3D3D3D3D1D
:1027EC003D3D3D3D3D3D3D0D0A0000000D0A000004
:1027FC000D092A2A2A2A2A2A2A2A2A2A2A2A2A2A6B
:10280C002A2A2A2A2A2A2A2A2A2A2A2A2A2A2A2A1C
:10281C0050524553454E5420544553542A2A2A2A83
:10282C002A2A2A2A2A2A2A2A2A2A2A2A2A2A2A2AFC
:10283C002A2A2A2A2A2A2A2A2A2A2A2A2A2A0D0A29
:10284C00000000000D0A093D3D3D3D3D3D3D3D3D37
:10285C003D3D3D3D3D3D3D3D3D3D3D3D3D3D3D3D9C
:10286C003D3D3D3D3D3D3D3D3D5445535420313D69
:10287C003D3D3D3D3D3D3D3D3D3D3D3D3D3D3D3D7C
:10288C003D3D3D3D3D3D3D3D3D3D3D3D3D3D3D3D6C
:10289C003D3D3D0D0A0000000D0A093D3D3D3D3D0D
:1028AC003D3D3D3D3D3D3D3D3D3D3D3D3D3D3D3D4C
:1028BC003D3D3D3D3D3D3D3D3D3D3D3D3D54455307
:1028CC005420323D3D3D3D3D3D3D3D3D3D3D3D3D3D
:1028DC003D3D3D3D3D3D3D3D3D3D3D3D3D3D3D3D1C
:1028EC003D3D3D3D3D3D3D0D0A0000000D092A2AB0
:1028FC002A2A2A2A2A2A2A2A2A2A2A2A2A2A2A2A2C
:10290C002A2A2A2A2A2A2A2A2A444D5F5052455317
:10291C00454E5420544553542A2A2A2A2A2A2A2A14
:10292C002A2A2A2A2A2A2A2A2A2A2A2A2A2A2A2AFB
:10293C002A2A2A2A2A2A2A2A2A2A0D0A00000000D0
:10294C000D0A093D3D3D3D3D3D3D3D3D3D3D3D3D42
:10295C003D3D3D3D3D3D3D3D3D3D3D3D3D3D3D3D9B
:10296C003D3D3D3D3D5445535420333D3D3D3D3D66
:10297C003D3D3D3D3D3D3D3D3D3D3D3D3D3D3D3D7B
:10298C003D3D3D3D3D3D3D3D3D3D3D3D3D3D3D0D9B
:10299C000A0000006000000020030000700000002E
:1029AC00F0020000020000000D0200000C0000000C
:1029BC00EC010000080000004600000010000000C0
:1029CC004000000002000000300000000800000081
:1029DC002800000008000000B800000010000000F3
:1029EC00B0000000020000008200000006000000A1
:1029FC007E0000000D093D3D3D3D3D3D3D3D3D3DD5
:102A0C003D3D3D3D3D3D3D3D3D3D3D3D3D3D3D3DEA
:102A1C003D50524553454E5420454E435259505407
:102A2C0054494F4E3D3D3D3D3D3D3D3D3D3D3D3D84
:102A3C003D3D3D3D3D3D3D3D3D3D3D3D3D3D3D3DBA
:102A4C003D3D0D0A000000000D093D3D3D3D3D3D65
:102A5C003D3D3D3D3D3D3D3D3D3D3D3D3D3D3D3D9A
:102A6C003D3D3D3D3D50524553454E54204445431C
:102A7C005259505454494F4E3D3D3D3D3D3D3D3DD9
:102A8C003D3D3D3D3D3D3D3D3D3D3D3D3D3D3D3D6A
:102A9C003D3D3D3D3D3D0D0A000000000D0A00008E
:102AAC000D09504C41494E5F54455854202836343A
:102ABC002D62697429203A20000000004B455920F2
:102ACC002838302D62697429203A2000524553551C
:102ADC004C54202836342D62697429203A20000089
:102AEC00600000002003000070000000F0020000F5
:102AFC00020000000D0200000C000000EC010000C0
:102B0C00080000004600000010000000400000001B
:102B1C000200000030000000080000002800000047
:102B2C0008000000B800000010000000B000000019
:102B3C000200000082000000060000007E00000081
:102B4C000D093D3D3D3D3D3D3D3D3D3D3D3D3D3D0D
:102B5C003D3D3D3D3D3D3D3D3D3D3D3D3D444D5F60
:102B6C0050524553454E5420484153483D3D3D3D00
:102B7C003D3D3D3D3D3D3D3D3D3D3D3D3D3D3D3D79
:102B8C003D3D3D3D3D3D3D3D3D3D3D3D3D3D0D0ACC
:102B9C00000000000D0A00000D09504C41494E5F29
:102BAC0054455854202836342D62697429203A2013
:102BBC00000000004B4559202838302D62697429DB
:102BCC00203A2000524553554C54202836342D625F
:102BDC00697429203A2000006000000020030000E6
:102BEC0070000000F0020000020000000D02000066
:102BFC000C000000EC010000080000004600000082
:102C0C001000000040000000020000003000000036
:102C1C00080000002800000008000000B8000000B8
:102C2C0010000000B0000000020000008200000054
:102C3C00060000007E00000020000000303132331E
:102C4C0034353637383961626364656600000000DC
:072C5C000D0900000D0A0044
:042C6400000000006C
:0200000480007A
:100000006F00400B130000001300000013000000FD
:100010001300000013000000130000001300000094
:10002000232E11FE232C51FE232A61FE232871FE6C
:100030002326A1FE2324B1FE2322C1FE2320D1FECC
:10004000232EE1FC232CF1FC232A01FD232811FDA2
:100050002326C1FD2324D1FD2322E1FD2320F1FD30
:10006000130101FC971000C0E780801B8320C103AF
:100070008322810303234103832301030325C10258
:100080008325810203264102832601020327C10141
:10009000832781010328410183280101032EC10028
:1000A000832E8100032F4100832F010013010104DF
:1000B00073002030973100C09381413B171100003D
:1000C00013014188173500C0130545BA973500C0A4
:1000D0009385C5B96308B5002320050013054500C5
:1000E0006FF05FFF173500C0130505B81301C1FF9E
:1000F000973500C0938545B7630EB500832605008C
:10010000130545002320A100E78006000325010018
:100110006FF01FFE1301410037150000130505881D
:1001200073104530372500001305858073100530A6
:0C013000971000C0E78000BC6F000000CA
:040000058000000077
:00000001FF
