:020000044000BA
:10000000130101FE232E8100130401022326A4FE06
:100010008327C4FE23A007008327C4FE23A4070070
:10002000130000000324C1011301010267800000D6
:10003000130101FE232E8100130401022326A4FED6
:10004000130000000324C1011301010267800000B6
:10005000130101FE232E8100130401022326A4FEB6
:100060008327C4FE23A207008327C4FE1307F0FFE3
:1000700023A0E700130000000324C10113010102C3
:1000800067800000130101FE232E8100130401028A
:100090002326A4FE8327C4FE83A7470093D7070126
:1000A00093F7F70F138507000324C1011301010221
:1000B00067800000130101FE232E8100130401025A
:1000C0002326A4FE8327C4FE83A7470093D7870176
:1000D000138507000324C10113010102678000009A
:1000E000130101FE232E1100232C810013040102B1
:1000F0002326A4FE2324B4FE130000000325C4FE1F
:10010000EFF05FF893070500E38A07FE8327C4FE3C
:10011000032784FE23A0E700130000008320C10111
:10012000032481011301010267800000130101FE15
:10013000232E8100130401022326A4FE2324B4FEEF
:10014000832784FE03A7C7008327C4FE23A4E700F8
:10015000832784FE83A707001387F7FF832784FE86
:1001600083A74700939787003367F700832784FEB0
:1001700083A78700939707013367F7008327C4FE9F
:1001800023A6E700130000000324C10113010102AC
:1001900067800000130101FE232E81001304010279
:1001A0002326A4FE8327C4FE83A7070093F7270016
:1001B000B337F00093F7F70F138507000324C1014D
:1001C0001301010267800000130101FE232E81004C
:1001D000130401022326A4FE8327C4FE1307100084
:1001E00023A0E700130000000324C1011301010252
:1001F00067800000130101FE232E1100232C8100D3
:10020000130401022326A4FE8327C4FE23A00700B3
:10021000130000000325C4FEEFF0DFF7930705008D
:10022000E39A07FE13000000130000008320C101C1
:10023000032481011301010267800000130101FD05
:100240002326810213040103232EA4FC232CB4FCD7
:10025000B72700F00327C4FD23A0E700B72700F06D
:10026000032784FD23A2E700B72700F0130710003F
:1002700023A8E700232604FEB72700F083A7C700C2
:100280002326F4FE8327C4FEE38807FEB72700F089
:1002900083A78700138507000324C102130101030C
:1002A00067800000130101FE232E1100232C810022
:1002B000130401022326A4FE6F0000028327C4FE5C
:1002C000138717002326E4FE83C7070093850700E2
:1002D000370501F0EFF0DFE08327C4FE83C7070096
:1002E000E39E07FC13000000130000008320C101FF
:1002F000032481011301010267800000130101FD45
:100300002326110223248102130401039307800092
:10031000232AF4FC232C04FC232E04FC9307500313
:100320002320F4FE930744FD93850700370501F071
:10033000EFF0DFDFB70700401385874AEFF09FF645
:10034000B70700401385474DEFF0DFF5B7070040D2
:1003500013850751EFF01FF5B70700401385C7530A
:10036000EFF05FF4B707004013850756EFF09FF3F7
:10037000B70700F01307F00023A4E700B70700F069
:100380001307100023A2E700B70700401385475763
:10039000EFF05FF1930740002326F4FEB7871E00BD
:1003A000938707482324F4FE232204FEB7E70100C5
:1003B0009385974013051000EFF05FE82322A4FE19
:1003C000B7C701009385A764B7170700138507C84F
:1003D000EFF0DFE62322A4FE9305A048B71707003D
:1003E000138507C8EFF09FE52322A4FEB73700006E
:1003F000938577D6B7170700138507C8EFF01FE47A
:100400002322A4FE13000000B72700F083A7C70033
:10041000E39C07FE93070000138507008320C102B9
:10042000032481021301010367800000130101FF0F
:100430002326810013040101130000000324C100DE
:080440001301010167800000B7
:10044800600000002003000070000000F0020000BF
:10045800020000000D0200000C000000EC0100008A
:1004680008000000460000001000000040000000E6
:100478000200000030000000080000002800000012
:1004880008000000B800000010000000B0000000E4
:100498000200000082000000060000007E0000004C
:1004A80057656C6C2C2068656C6C6F20746865727D
:1004B80065202120E38193E38293E381ABE381A16B
:1004C800E381AFE380820D0A00000000556E697673
:1004D800657273697479206F6620456C6563747200
:1004E8006F2D436F6D6D756E69636174696F6E739F
:1004F8002028554543292C20546F6B796F2C204AAE
:100508006170616E0D0A0000E99BBBE6B097E98057
:100518009AE4BFA1E5A4A7E5ADA6E38081E69DB175
:10052800E4BAACE983BDE38081E697A5E69CAC0D0F
:100538000A00000041455320416363656C657261A0
:10054800746F72202D20447579204C696E68204C98
:1005580065204B31380D0A00427269657920536F66
:1005680043206F6E20465047410D0A0068656C6C49
:0C0578006F2067636420776F726C640072
:040584000000000073
:0200000480007A
:100000006F00400B130000001300000013000000FD
:100010001300000013000000130000001300000094
:10002000232E11FE232C51FE232A61FE232871FE6C
:100030002326A1FE2324B1FE2322C1FE2320D1FECC
:10004000232EE1FC232CF1FC232A01FD232811FDA2
:100050002326C1FD2324D1FD2322E1FD2320F1FD30
:10006000130101FC970000C0E780803C8320C1039E
:100070008322810303234103832301030325C10258
:100080008325810203264102832601020327C10141
:10009000832781010328410183280101032EC10028
:1000A000832E8100032F4100832F010013010104DF
:1000B00073002030971100C0938141CD17110000CB
:1000C00013014188170500C01305454C93858180B5
:1000D0006308B50023200500130545006FF05FFF9E
:1000E000170500C01305454A1301C1FF970500C05D
:1000F00093858549630EB5008326050013054500E9
:100100002320A100E7800600032501006FF01FFEF9
:1001100013014100371500001305058873104530A1
:10012000372500001305858073100530970000C047
:08013000E780001D6F000000D4
:040000058000000077
:00000001FF
