:020000044000BA
:10000000130101FE232E8100130401022326A4FE06
:100010008327C4FE23A007008327C4FE23A4070070
:10002000130000000324C1011301010267800000D6
:10003000130101FE232E8100130401022326A4FED6
:10004000130000000324C1011301010267800000B6
:10005000130101FE232E8100130401022326A4FEB6
:100060008327C4FE23A207008327C4FE1307F0FFE3
:1000700023A0E700130000000324C10113010102C3
:1000800067800000130101FE232E8100130401028A
:100090002326A4FE8327C4FE83A7470093D7070126
:1000A00093F7F70F138507000324C1011301010221
:1000B00067800000130101FE232E8100130401025A
:1000C0002326A4FE8327C4FE83A7470093D7870176
:1000D000138507000324C10113010102678000009A
:1000E000130101FE232E1100232C810013040102B1
:1000F0002326A4FE2324B4FE130000000325C4FE1F
:10010000EFF05FF893070500E38A07FE8327C4FE3C
:10011000032784FE23A0E700130000008320C10111
:10012000032481011301010267800000130101FE15
:10013000232E8100130401022326A4FE2324B4FEEF
:10014000832784FE03A7C7008327C4FE23A4E700F8
:10015000832784FE83A707001387F7FF832784FE86
:1001600083A74700939787003367F700832784FEB0
:1001700083A78700939707013367F7008327C4FE9F
:1001800023A6E700130000000324C10113010102AC
:1001900067800000130101FE232E81001304010279
:1001A0002326A4FE8327C4FE83A7070093F7270016
:1001B000B337F00093F7F70F138507000324C1014D
:1001C0001301010267800000130101FE232E81004C
:1001D000130401022326A4FE8327C4FE1307100084
:1001E00023A0E700130000000324C1011301010252
:1001F00067800000130101FE232E1100232C8100D3
:10020000130401022326A4FE8327C4FE23A00700B3
:10021000130000000325C4FEEFF0DFF7930705008D
:10022000E39A07FE13000000130000008320C101C1
:10023000032481011301010267800000130101FE04
:10024000232E8100130401022326A4FE2324B4FEDE
:10025000B72700F0032784FE23A4E700B72700F0A8
:100260001307100023A2E700B72700F00327C4FEFE
:1002700023A6E700B72700F01307100023A0E7002C
:10028000B72700F023A00700130000000324C101DA
:100290001301010267800000130101FD2326810282
:1002A00013040103232EA4FCB72700F00327C4FD89
:1002B00023A4E700B72700F023A20700B72700F028
:1002C0001307100023A0E700B72700F083A707015A
:1002D0002326F4FEB72700F023A007008327C4FEDF
:1002E000138507000324C102130101036780000086
:1002F000130101FE232E1100232C8100232A9100DB
:10030000130401022326A4FE2324B4FE2322C4FEE8
:100310002320D4FE9305A0000325C4FEEFF01FF2B6
:10032000832744FE9387470083A7070093051002A5
:1003300013850700EFF09FF0832744FE83A7070093
:100340009305000213850700EFF05FEF832784FE1B
:100350009387C70083A70700930530011385070023
:10036000EFF0DFED832784FE9387870083A70700E4
:100370009305200113850700EFF05FEC832784FECF
:100380009387470083A70700930510011385070093
:10039000EFF0DFEA832784FE83A7070093050001BF
:1003A00013850700EFF09FE9930580001305100007
:1003B000EFF0DFE81300000013059000EFF0DFED31
:1003C00093070500E38A07FE832704FE9384470012
:1003D00013051003EFF05FEC9307050023A0F40072
:1003E00013050003EFF05FEB13070500832704FEFE
:1003F00023A0E7000327C4FE93071000631AF70049
:10040000B72700401385C7BBEF1080276F0000019E
:10041000B7270040138507C1EF108026B72700409B
:10042000138547C6EF10C025832544FEB72700403B
:10043000138587C6EF10404B832584FEB727004005
:10044000138507C8EF104051832504FEB7270040ED
:10045000138547C9EF104049130000008320C101F4
:1004600003248101832441011301010267800000FC
:10047000130101FE232E8100130401022326A4FE92
:100480008327C4FE23A007008327C4FE23A40700FC
:10049000130000000324C101130101026780000062
:1004A000130101FE232E8100130401022326A4FE62
:1004B000130000000324C101130101026780000042
:1004C000130101FE232E8100130401022326A4FE42
:1004D0008327C4FE23A207008327C4FE1307F0FF6F
:1004E00023A0E700130000000324C101130101024F
:1004F00067800000130101FE232E81001304010216
:100500002326A4FE8327C4FE83A7470093D70701B1
:1005100093F7F70F138507000324C10113010102AC
:1005200067800000130101FE232E810013040102E5
:100530002326A4FE8327C4FE83A7470093D7870101
:10054000138507000324C101130101026780000025
:10055000130101FE232E1100232C8100130401023C
:100560002326A4FE2324B4FE130000000325C4FEAA
:10057000EFF05FF893070500E38A07FE8327C4FEC8
:10058000032784FE23A0E700130000008320C1019D
:10059000032481011301010267800000130101FEA1
:1005A000232E8100130401022326A4FE2324B4FE7B
:1005B000832784FE03A7C7008327C4FE23A4E70084
:1005C000832784FE83A707001387F7FF832784FE12
:1005D00083A74700939787003367F700832784FE3C
:1005E00083A78700939707013367F7008327C4FE2B
:1005F00023A6E700130000000324C1011301010238
:1006000067800000130101FE232E81001304010204
:100610002326A4FE8327C4FE83A7070093F72700A1
:10062000B337F00093F7F70F138507000324C101D8
:100630001301010267800000130101FE232E8100D7
:10064000130401022326A4FE8327C4FE130710000F
:1006500023A0E700130000000324C10113010102DD
:1006600067800000130101FE232E1100232C81005E
:10067000130401022326A4FE8327C4FE23A007003F
:10068000130000000325C4FEEFF0DFF79307050019
:10069000E39A07FE13000000130000008320C1014D
:1006A000032481011301010267800000130101F797
:1006B00023261108232481081304010993078000CD
:1006C0002320F4FE232204FE232404FE9307500378
:1006D0002326F4FE930704FE93850700370501F0F7
:1006E000EFF0DFEBB7270040138587D0EF0050799C
:1006F000232804FC232A04FC232C04FC232E04FCC2
:10070000232404FC232604FC232004FC232204FCD1
:10071000B72700401385C7D5EF009076B747230170
:10072000938777562326F4FCB7D7AB899387F7DEF8
:100730002324F4FCB727110093873723232EF4FCDE
:10074000B767554493877767232CF4FCB7B799882C
:100750009387B7AB232AF4FCB7F7DDCC9387F7EF89
:100760002328F4FC930604FC130784FC930704FD80
:10077000130607009385070013051000EFF05FB71D
:10078000B7270040138507DBEF00906FB7B7DCD6C3
:10079000938777592326F4FCB757E78D9387E76E45
:1007A0002324F4FC930604FC130784FC930704FD44
:1007B000130607009385070013050000EFF05FB3F1
:1007C000B7270040138547E0EF00906BB7E7C46997
:1007D0009387870D2326F4FCB7077B6A938707432B
:1007E0002324F4FCB7B7CDD893870778232EF4FCE5
:1007F000B7C7B4709387A755232CF4FCB7678681DD
:100800009387A75A232AF4FCB7E7020D9387A7FD25
:100810002328F4FC930604FC130784FC930704FDCF
:10082000130607009385070013051000EFF05FAC77
:10083000B7270040138587E5EF009064B7B7C6433C
:10084000938767252326F4FCB7E79DD79387877E98
:100850002324F4FC930604FC130784FC930704FD93
:10086000130607009385070013050000EFF05FA84B
:10087000B72700401385C7EAEF009060232804FAE9
:10088000232A04FA232C04FA232E04FA232004FA40
:10089000232204FA232404FA232604FA232804F842
:1008A000232A04F8232C04F8232E04F8B727004049
:1008B000138507F0EF00D05CB73734339387675365
:1008C0002326F4FAB7373039938727132324F4FA11
:1008D000B7373635938787732322F4FAB737323127
:1008E000938747332320F4FAB73736379387475334
:1008F000232EF4FAB747303193878793232CF4FAE9
:10090000B737343593872733232AF4FAB737383982
:10091000938767732328F4FA930604F9130704FAFC
:10092000930704FB130607009385070013051000C7
:10093000EF008061B7270040138547F5EF00505462
:10094000B747E3A19387B7D02326F4FAB78777D0C8
:100950009387271B2324F4FAB7F7E5539387A74D12
:100960002322F4FAB7572F6F938727312320F4FA05
:10097000930604F9130704FA930704FB1306070010
:100980009385070013050000EF00005CB7270040C7
:10099000138587FAEF00D04EB71793739387A7722A
:1009A0002326F4FAB7873DE9938717E12324F4FA65
:1009B000B7A7402E938767F92322F4FAB7C7C16B14
:1009C000938727EE2320F4FAB757CF099387C7F30D
:1009D000232EF4FAB717F7AB93878758232CF4FA32
:1009E000B7D7AE289387672A232AF4FAB7177E2B46
:1009F000938767512328F4FA930604F9130704FA3E
:100A0000930704FB130607009385070013051000E6
:100A1000EF008053B72700401385C7FFEF00504613
:100A2000B7F76624938777F92326F4FAB7D79EA8F9
:100A3000938737AF2324F4FAB7377A0D9387076685
:100A40002322F4FAB787D73A938747BB2320F4FAD7
:100A5000930604F9130704FA930704FB130607002F
:100A60009385070013050000EF00004EB7270040F4
:100A700013850705EF00D040232804F6232A04F647
:100A8000232C04F6232E04F6232004F8232204F852
:100A9000232404F8232604F8B71793739387A772C7
:100AA0002326F4FAB7873DE9938717E12324F4FA64
:100AB000B7A7402E938767F92322F4FAB7C7C16B13
:100AC000938727EE2320F4FAB7E71409938747FFAB
:100AD0002326F4F8B717982D9387370A2324F4F8C0
:100AE000B717613B9387778D2322F4F8B737351F0B
:100AF000938777C02320F4F8B7777D85938717789D
:100B0000232EF4F6B7B7732B938707EF232CF4F655
:100B1000B777CA159387E71B232AF4F6B7F73D602A
:100B2000938707B12328F4F6930604F9130704FA10
:100B3000930704F7130607009385070013051000B9
:100B4000EF00C066B72700401385870BEF005033D6
:100B5000B787B13D9387871F2326F4FAB7674B0603
:100B60009387E7A72324F4FAB7A7D2B59387C703DF
:100B70002322F4FAB7D7EEF39387D71B2320F4FA96
:100B8000B7E71409938747FF2326F4F8B717982D82
:100B90009387370A2324F4F8B717613B9387778D3F
:100BA0002322F4F8B737351F938777C02320F4F852
:100BB000B7777D8593871778232EF4F6B7B7732B15
:100BC000938707EF232CF4F6B777CA159387E71BB3
:100BD000232AF4F6B7F73D60938707B12328F4F68C
:100BE000930604F9130704FA930704F713060700A2
:100BF0009385070013050000EF00405B930700009A
:100C0000138507008320C10803248108130101090B
:100C100067800000130101FF2326810013040101F6
:100C2000130000000324C1001301010167800000CC
:100C3000130101FE232E8100130401022326A4FECA
:100C40008327C4FE23A007008327C4FE23A4070034
:100C5000130000000324C10113010102678000009A
:100C6000130101FE232E8100130401022326A4FE9A
:100C7000130000000324C10113010102678000007A
:100C8000130101FE232E8100130401022326A4FE7A
:100C90008327C4FE23A207008327C4FE1307F0FFA7
:100CA00023A0E700130000000324C1011301010287
:100CB00067800000130101FE232E8100130401024E
:100CC0002326A4FE8327C4FE83A7470093D70701EA
:100CD00093F7F70F138507000324C10113010102E5
:100CE00067800000130101FE232E8100130401021E
:100CF0002326A4FE8327C4FE83A7470093D787013A
:100D0000138507000324C10113010102678000005D
:100D1000130101FE232E1100232C81001304010274
:100D20002326A4FE2324B4FE130000000325C4FEE2
:100D3000EFF05FF893070500E38A07FE8327C4FE00
:100D4000032784FE23A0E700130000008320C101D5
:100D5000032481011301010267800000130101FED9
:100D6000232E8100130401022326A4FE2324B4FEB3
:100D7000832784FE03A7C7008327C4FE23A4E700BC
:100D8000832784FE83A707001387F7FF832784FE4A
:100D900083A74700939787003367F700832784FE74
:100DA00083A78700939707013367F7008327C4FE63
:100DB00023A6E700130000000324C1011301010270
:100DC00067800000130101FE232E8100130401023D
:100DD0002326A4FE8327C4FE83A7070093F72700DA
:100DE000B337F00093F7F70F138507000324C10111
:100DF0001301010267800000130101FE232E810010
:100E0000130401022326A4FE8327C4FE1307100047
:100E100023A0E700130000000324C1011301010215
:100E200067800000130101FE232E1100232C810096
:100E3000130401022326A4FE8327C4FE23A0070077
:100E4000130000000325C4FEEFF0DFF79307050051
:100E5000E39A07FE13000000130000008320C10185
:100E6000032481011301010267800000130101FEC8
:100E7000232E8100130401022326A4FE2324B4FEA2
:100E8000B72700F093870740032784FE23A4E700D9
:100E9000B72700F0938707401307100023A2E7004D
:100EA000B72700F0938707400327C4FE23A6E70077
:100EB000B72700F0938707401307100023A0E7002F
:100EC000B72700F09387074023A007001300000016
:100ED0000324C1011301010267800000130101FD19
:100EE0002326810213040103232EA4FCB72700F05C
:100EF000938707400327C4FD23A4E700B72700F02A
:100F00009387074023A20700B72700F09387074085
:100F10001307100023A0E700B72700F093870740CE
:100F200083A707012326F4FEB72700F09387074025
:100F300023A007008327C4FE138507000324C102F2
:100F40001301010367800000130101FD2326110234
:100F50002324810223229102130401039307050035
:100F6000232CB4FC232AC4FC2328D4FCA30FF4FCB8
:100F70009305700113050000EFF05FEF930560012A
:100F800013050000EFF09FEE9305500113050000DC
:100F9000EFF0DFED9305400113050000EFF01FEDCA
:100FA000832784FD9387C70083A70700930530013B
:100FB00013850700EFF09FEB832784FD938787005D
:100FC00083A707009305200113850700EFF01FEAB0
:100FD000832784FD9387470083A7070093051001AB
:100FE00013850700EFF09FE8832784FD83A70700A0
:100FF0009305000113850700EFF05FE79305A0005C
:1010000013050000EFF09FE6930580001305100024
:10101000EFF0DFE51300000013059000EFF01FEC88
:1010200093070500E38A07FE832744FD9387C700E3
:1010300083A707009305300213850700EFF01FE335
:10104000832744FD9387870083A707009305200229
:1010500013850700EFF09FE1832744FD9387470046
:1010600083A707009305100213850700EFF01FE028
:10107000832744FD83A7070093050002138507001B
:10108000EFF0DFDEA30704FE0347F4FD9307100033
:101090006318F70093071000A307F4FE6F008000A9
:1010A000A30704FE8347F4FE9305A0001385070001
:1010B000EFF0DFDB9305800013052000EFF01FDB6E
:1010C0001300000013059000EFF05FE193070500A7
:1010D000E38A07FE832704FD9384C70013053003CA
:1010E000EFF0DFDF9307050023A0F400832704FD62
:1010F0009384870013052003EFF05FDE930705005C
:1011000023A0F400832704FD9384470013051003F4
:10111000EFF0DFDC9307050023A0F40013050003C4
:10112000EFF0DFDB13070500832704FD23A0E700B2
:101130000347F4FD93071000631AF700B727004038
:1011400013850718EF00C0536F000001B727004058
:101150001385471DEF00C052B72700401385872233
:10116000EF000052832544FDB72700401385C722B6
:10117000EF00807E832584FDB727004013858724F8
:10118000EF00807D832504FDB72700401385C72528
:10119000EF00807C130000008320C1020324810241
:1011A000832441021301010367800000130101FD44
:1011B0002326110223248102232291021304010316
:1011C00093070500232CB4FC232AC4FC2328D4FC59
:1011D000A30FF4FC832784FD9387C70183A707002F
:1011E0009305700113850700EFF05FC8832784FD26
:1011F0009387870183A70700930560011385070084
:10120000EFF0DFC6832784FD9387470183A707009C
:101210009305500113850700EFF05FC5832784FD18
:101220009387070183A707009305400113850700F3
:10123000EFF0DFC3832784FD9387C70083A70700F0
:101240009305300113850700EFF05FC2832784FD0B
:101250009387870083A70700930520011385070064
:10126000EFF0DFC0832784FD9387470083A7070043
:101270009305100113850700EFF05FBF832784FDFE
:1012800083A707009305000113850700EFF01FBE39
:101290009305A00013052000EFF05FBD93058000CB
:1012A00013051000EFF09FBC130000001305900021
:1012B000EFF0DFC293070500E38A07FE832744FDB2
:1012C0009387C70083A707009305300213850700A3
:1012D000EFF0DFB9832744FD9387870083A70700DA
:1012E0009305200213850700EFF05FB8832744FDC4
:1012F0009387470083A70700930510021385070013
:10130000EFF0DFB6832744FD83A7070093050002B3
:1013100013850700EFF09FB5A30704FE0347F4FD14
:10132000930710006318F70093073000A307F4FE3B
:101330006F00C00093072000A307F4FE8347F4FE6C
:101340009305A00013850700EFF05FB293058000BE
:1013500013052000EFF09FB113000000130590006B
:10136000EFF0DFB793070500E38A07FE832704FD4C
:101370009384C70013053003EFF05FB693070500B1
:1013800023A0F400832704FD938487001305200322
:10139000EFF0DFB49307050023A0F400832704FDDA
:1013A0009384470013051003EFF05FB39307050024
:1013B00023A0F40013050003EFF05FB2130705004C
:1013C000832704FD23A0E7000347F4FD93071000E3
:1013D000631AF700B727004013850727EF00402A5C
:1013E0006F000001B72700401385872DEF004029CB
:1013F000B727004013858722EF008028832544FD0E
:10140000B727004013850734EF000055832584FD7E
:10141000B727004013858735EF00C065832504FD9D
:10142000B72700401385C725EF00005313000000C5
:101430008320C1020324810283244102130101039A
:1014400067800000130101FE232E810013040102B6
:101450002326A4FE8327C4FE23A007008327C4FEFF
:1014600023A40700130000000324C101130101029B
:1014700067800000130101FE232E81001304010286
:101480002326A4FE130000000324C101130101025E
:1014900067800000130101FE232E81001304010266
:1014A0002326A4FE8327C4FE23A207008327C4FEAD
:1014B0001307F0FF23A0E700130000000324C1017D
:1014C0001301010267800000130101FE232E810039
:1014D000130401022326A4FE8327C4FE83A747002A
:1014E00093D7070193F7F70F138507000324C10172
:1014F0001301010267800000130101FE232E810009
:10150000130401022326A4FE8327C4FE83A74700F9
:1015100093D78701138507000324C101130101023A
:1015200067800000130101FE232E1100232C81008F
:10153000130401022326A4FE2324B4FE130000009A
:101540000325C4FEEFF05FF893070500E38A07FE6A
:101550008327C4FE032784FE23A0E70013000000B6
:101560008320C1010324810113010102678000006F
:10157000130101FE232E8100130401022326A4FE81
:101580002324B4FE832784FE03A7C7008327C4FE59
:1015900023A4E700832784FE83A707001387F7FFB0
:1015A000832784FE83A74700939787003367F7005C
:1015B000832784FE83A78700939707013367F7008B
:1015C0008327C4FE23A6E700130000000324C10103
:1015D0001301010267800000130101FE232E810028
:1015E000130401022326A4FE8327C4FE83A7070059
:1015F00093F72700B337F00093F7F70F1385070031
:101600000324C1011301010267800000130101FEE0
:10161000232E8100130401022326A4FE8327C4FE87
:101620001307100023A0E700130000000324C101EA
:101630001301010267800000130101FE232E110037
:10164000232C8100130401022326A4FE8327C4FE59
:1016500023A00700130000000325C4FEEFF0DFF70E
:1016600093070500E39A07FE130000001300000033
:101670008320C1010324810113010102678000005E
:10168000130101FE232E1100232C810013040102FB
:101690002326A4FE6F0000028327C4FE13871700D1
:1016A0002326E4FE83C7070093850700370501F072
:1016B000EFF05FE78327C4FE83C70700E39E07FCC4
:1016C00013000000130000008320C10103248101E6
:1016D0001301010267800000130101FC232E110297
:1016E000232C8102130401042326A4FC232604FED8
:1016F000232E04FC232004FE8327C4FC93F7F70069
:10170000372700401307073DB307F70003C707005B
:101710008327C4FE930604FFB387F6002386E7FE03
:101720008327C4FE938717002326F4FE8327C4FC77
:1017300093D747002326F4FC8327C4FCE39E07FAD3
:101740000327C4FE9307700063CEE702930770007F
:101750002324F4FE6F00400213070003832784FE56
:10176000930604FFB387F6002386E7FE832784FEF3
:101770009387F7FF2324F4FE032784FE8327C4FE08
:10178000E35CF7FC930730002322F4FE6F00C002F5
:10179000832744FE130704FFB307F70083C7C7FE80
:1017A00093850700370501F0EFF0DFD7832744FE6C
:1017B0009387F7FF2322F4FE832744FEE3DA07FC36
:1017C000B72700401385C73CEFF09FEB13000000E4
:1017D0008320C103032481031301010467800000F7
:1017E000130101FC232E1102232C81021304010496
:1017F0002326A4FC232604FE232E04FC232004FE1F
:101800008327C4FC93F7F700372700401307073DF1
:10181000B307F70003C707008327C4FE930604FF3E
:10182000B387F6002386E7FE8327C4FE938717005D
:101830002326F4FE8327C4FC93D747002326F4FC19
:101840008327C4FCE39E07FA0327C4FE93077000B6
:1018500063CEE702930770002324F4FE6F0040027A
:1018600013070003832784FE930604FFB387F60063
:101870002386E7FE832784FE9387F7FF2324F4FE65
:10188000032784FE8327C4FEE35CF7FC9307700004
:101890002322F4FE6F00C002832744FE130704FFD7
:1018A000B307F70083C7C7FE93850700370501F02C
:1018B000EFF05FC7832744FE9387F7FF2322F4FEF0
:1018C000832744FEE3DA07FCB72700401385C73CB3
:1018D000EFF01FDB130000008320C103032481030A
:1018E0001301010467800000130101FE232E110083
:1018F000232C8100130401022326A4FE2324B4FE1A
:10190000B72700401385473EEFF09FD70325C4FE5D
:10191000EFF01FD7832784FE9387470083A7070034
:1019200013850700EFF0DFEB832784FE83A7070012
:1019300013850700EFF0DFEAB72700401385873EE5
:10194000EFF01FD4130000008320C10103248101A4
:101950001301010267800000130101FE232E110014
:10196000232C8100130401022326A4FE2324B4FEA9
:10197000B72700401385473EEFF09FD00325C4FEF4
:10198000EFF01FD0832784FE9387C70083A707004B
:1019900013850700EFF0DFE4832784FE9387870039
:1019A00083A7070013850700EFF09FE3832784FEDA
:1019B0009387470083A7070013850700EFF05FE2D6
:1019C000832784FE83A7070013850700EFF05FE1FC
:1019D000B72700401385873EEFF09FCA1300000031
:1019E0008320C101032481011301010267800000EB
:1019F000130101FE232E1100232C81001304010288
:101A00002326A4FE2324B4FEB72700401385473EB7
:101A1000EFF01FC70325C4FEEFF09FC6832784FEA7
:101A20009387870083A7070013850700EFF05FDB2C
:101A3000832784FE9387470083A707001385070049
:101A4000EFF01FDA832784FE83A7070013850700C2
:101A5000EFF09FC8B72700401385873EEFF05FC2C5
:101A6000130000008320C10103248101130101023E
:101A700067800000130101FE232E1100232C81003A
:101A8000130401022326A4FE2324B4FEB72700403A
:101A90001385473EEFF0DFBE0325C4FEEFF05FBEC7
:101AA000832784FE9387C70183A707001385070058
:101AB000EFF01FD3832784FE9387870183A7070056
:101AC00013850700EFF0DFD1832784FE938747015A
:101AD00083A7070013850700EFF09FD0832784FEBC
:101AE0009387070183A7070013850700EFF05FCFF7
:101AF000832784FE9387C70083A707001385070009
:101B0000EFF01FCE832784FE9387870083A707000B
:101B100013850700EFF0DFCC832784FE938747000F
:101B200083A7070013850700EFF09FCB832784FE70
:101B300083A7070013850700EFF09FCAB72700406F
:101B40001385873EEFF0DFB3130000008320C1014F
:0C1B5000032481011301010267800000E2
:101B5C00600000002003000070000000F002000094
:101B6C00020000000D0200000C000000EC0100005F
:101B7C0008000000460000001000000040000000BB
:101B8C0002000000300000000800000028000000E7
:101B9C0008000000B800000010000000B0000000B9
:101BAC000200000082000000060000007E00000021
:101BBC000D093D3D3D3D3D3D3D3D3D3D3D3D3D3DAD
:101BCC003D3D3D3D3D3D3D3D3D3D3D3D3D3D3D5026
:101BDC0052494E434520454E435259505454494F57
:101BEC004E3D3D3D3D3D3D3D3D3D3D3D3D3D3D3D08
:101BFC003D3D3D3D3D3D3D3D3D3D3D3D3D3D0D0A6C
:101C0C00000000000D093D3D3D3D3D3D3D3D3D3D50
:101C1C003D3D3D3D3D3D3D3D3D3D3D3D3D3D3D3DE8
:101C2C003D3D3D5052494E43452044454352595049
:101C3C005454494F4E3D3D3D3D3D3D3D3D3D3D3D6B
:101C4C003D3D3D3D3D3D3D3D3D3D3D3D3D3D3D3DB8
:101C5C003D3D0D0A000000000D0A0000504C4149AA
:101C6C004E5F54455854202836342D62697429200F
:101C7C003A2000004B455920283132382D626974C6
:101C8C0029203A2000000000524553554C5420287E
:101C9C0036342D62697429203A200000600000005F
:101CAC002003000070000000F002000002000000A1
:101CBC000D0200000C000000EC0100000800000008
:101CCC004600000010000000400000000200000070
:101CDC003000000008000000280000000800000090
:101CEC00B800000010000000B0000000020000006E
:101CFC0082000000060000007E0000000D092A2A68
:101D0C002A2A2A2A2A2A2A2A2A2A2A2A2A2A2A2A27
:101D1C002A2A2A2A2A2A2A2A2A2A2A2A2A2A2A2A17
:101D2C005052494E434520544553542A2A2A2A2AB4
:101D3C002A2A2A2A2A2A2A2A2A2A2A2A2A2A2A2AF7
:101D4C002A2A2A2A2A2A2A2A2A2A0D0A00000000CC
:101D5C000D0A093D3D3D3D3D3D3D3D3D3D3D3D3D3E
:101D6C003D3D3D3D3D3D3D3D3D3D3D3D3D3D3D3D97
:101D7C003D3D3D3D3D3D5445535420313D3D3D3D64
:101D8C003D3D3D3D3D3D3D3D3D3D3D3D3D3D3D3D77
:101D9C003D3D3D3D3D3D3D3D3D3D3D3D3D3D3D0D97
:101DAC000A0000000D0A093D3D3D3D3D3D3D3D3DD8
:101DBC003D3D3D3D3D3D3D3D3D3D3D3D3D3D3D3D47
:101DCC003D3D3D3D3D3D3D3D3D3D54455354203213
:101DDC003D3D3D3D3D3D3D3D3D3D3D3D3D3D3D3D27
:101DEC003D3D3D3D3D3D3D3D3D3D3D3D3D3D3D3D17
:101DFC003D3D3D0D0A0000000D0A093D3D3D3D3DB8
:101E0C003D3D3D3D3D3D3D3D3D3D3D3D3D3D3D3DF6
:101E1C003D3D3D3D3D3D3D3D3D3D3D3D3D3D5445C7
:101E2C00535420333D3D3D3D3D3D3D3D3D3D3D3DD0
:101E3C003D3D3D3D3D3D3D3D3D3D3D3D3D3D3D3DC6
:101E4C003D3D3D3D3D3D3D0D0A0000000D0A093D67
:101E5C003D3D3D3D3D3D3D3D3D3D3D3D3D3D3D3DA6
:101E6C003D3D3D3D3D3D3D3D3D3D3D3D3D3D3D3D96
:101E7C003D3D5445535420343D3D3D3D3D3D3D3D60
:101E8C003D3D3D3D3D3D3D3D3D3D3D3D3D3D3D3D76
:101E9C003D3D3D3D3D3D3D3D3D3D3D0D0A00000080
:101EAC000D092A2A2A2A2A2A2A2A2A2A2A2A2A2AC4
:101EBC002A2A2A2A2A2A2A2A2A2A2A2A2A2A2A2A76
:101ECC002A2A2A41455320544553542A2A2A2A2A7D
:101EDC002A2A2A2A2A2A2A2A2A2A2A2A2A2A2A2A56
:101EEC002A2A2A2A2A2A2A2A2A2A2A2A2A2A0D0A83
:101EFC00000000000D0A093D3D3D3D3D3D3D3D3D91
:101F0C003D3D3D3D3D3D3D3D3D3D3D3D3D3D3D3DF5
:101F1C003D3D3D3D3D3D3D3D5445535420313D3DC2
:101F2C003D3D3D3D3D3D3D3D3D3D3D3D3D3D3D3DD5
:101F3C003D3D3D3D3D3D3D3D3D3D3D3D3D3D3D3DC5
:101F4C003D3D3D0D0A0000000D0A093D3D3D3D3D66
:101F5C003D3D3D3D3D3D3D3D3D3D3D3D3D3D3D3DA5
:101F6C003D3D3D3D3D3D3D3D3D3D3D3D5445535449
:101F7C0020323D3D3D3D3D3D3D3D3D3D3D3D3D3DAD
:101F8C003D3D3D3D3D3D3D3D3D3D3D3D3D3D3D3D75
:101F9C003D3D3D3D3D3D3D0D0A0000000D0A093D16
:101FAC003D3D3D3D3D3D3D3D3D3D3D3D3D3D3D3D55
:101FBC003D3D3D3D3D3D3D3D3D3D3D3D3D3D3D3D45
:101FCC005445535420333D3D3D3D3D3D3D3D3D3D10
:101FDC003D3D3D3D3D3D3D3D3D3D3D3D3D3D3D3D25
:101FEC003D3D3D3D3D3D3D3D3D3D3D0D0A0000002F
:101FFC000D0A093D3D3D3D3D3D3D3D3D3D3D3D3D9C
:10200C003D3D3D3D3D3D3D3D3D3D3D3D3D3D3D3DF4
:10201C003D3D3D3D5445535420343D3D3D3D3D3DBE
:10202C003D3D3D3D3D3D3D3D3D3D3D3D3D3D3D3DD4
:10203C003D3D3D3D3D3D3D3D3D3D3D3D3D3D3D0DF4
:10204C000A0000000D0A093D3D3D3D3D3D3D3D3D35
:10205C003D3D3D3D3D3D3D3D3D3D3D3D3D3D3D3DA4
:10206C003D3D3D3D3D3D3D3D3D3D3D3D3D3D3D547D
:10207C00455354203528414553323536293D3D3D95
:10208C003D3D3D3D3D3D3D3D3D3D3D3D3D3D3D3D74
:10209C003D3D3D3D3D3D3D3D3D3D3D3D3D3D3D3D64
:1020AC003D3D3D3D3D3D3D0D0A0000000D0A093D05
:1020BC003D3D3D3D3D3D3D3D3D3D3D3D3D3D3D3D44
:1020CC003D3D3D3D3D3D3D3D3D3D3D3D3D3D3D3D34
:1020DC003D3D3D3D3D3D3D54455354203628414505
:1020EC0053323536293D3D3D3D3D3D3D3D3D3D3D2C
:1020FC003D3D3D3D3D3D3D3D3D3D3D3D3D3D3D3D04
:10210C003D3D3D3D3D3D3D3D3D3D3D3D3D3D3D0D23
:10211C000A000000600000002003000070000000B6
:10212C00F0020000020000000D0200000C00000094
:10213C00EC01000008000000460000001000000048
:10214C004000000002000000300000000800000009
:10215C002800000008000000B8000000100000007B
:10216C00B000000002000000820000000600000029
:10217C007E0000000D093D3D3D3D3D3D3D3D3D3D5D
:10218C003D3D3D3D3D3D3D3D3D3D3D3D3D3D3D3D73
:10219C003D3D41455331323820454E435259505400
:1021AC0054494F4E3D3D3D3D3D3D3D3D3D3D3D3D0D
:1021BC003D3D3D3D3D3D3D3D3D3D3D3D3D3D3D3D43
:1021CC003D3D0D0A000000000D093D3D3D3D3D3DEE
:1021DC003D3D3D3D3D3D3D3D3D3D3D3D3D3D3D3D23
:1021EC003D3D3D3D3D3D4145533132382044454315
:1021FC005259505454494F4E3D3D3D3D3D3D3D3D62
:10220C003D3D3D3D3D3D3D3D3D3D3D3D3D3D3D3DF2
:10221C003D3D3D3D3D3D0D0A000000000D0A000016
:10222C000D09504C41494E5F5445585420283132C9
:10223C00382D62697429203A200000004B45592042
:10224C00283132382D62697429203A2000000000B0
:10225C00524553554C5420283132382D626974291B
:10226C00203A20000D093D3D3D3D3D3D3D3D3D3D70
:10227C003D3D3D3D3D3D3D3D3D3D3D3D3D3D3D3D82
:10228C003D3D3D3D3D3D3D3D3D3D3D3D414553325B
:10229C00353620454E435259505454494F4E3D3DCE
:1022AC003D3D3D3D3D3D3D3D3D3D3D3D3D3D3D3D52
:1022BC003D3D3D3D3D3D3D3D3D3D3D3D3D3D3D3D42
:1022CC003D3D3D3D3D3D0D0A000000000D093D3DED
:1022DC003D3D3D3D3D3D3D3D3D3D3D3D3D3D3D3D22
:1022EC003D3D3D3D3D3D3D3D3D3D3D3D3D3D3D3D12
:1022FC003D3D3D3D414553323536204445435259D1
:10230C00505454494F4E3D3D3D3D3D3D3D3D3D3D81
:10231C003D3D3D3D3D3D3D3D3D3D3D3D3D3D3D3DE1
:10232C003D3D3D3D3D3D3D3D3D3D3D3D3D3D0D0A34
:10233C0000000000504C41494E5F54455854202831
:10234C003132382D62697429203A20004B455920CE
:10235C00283235362D62697429203A20000000009D
:10236C00600000002003000070000000F00200007C
:10237C00020000000D0200000C000000EC01000047
:10238C0008000000460000001000000040000000A3
:10239C0002000000300000000800000028000000CF
:1023AC0008000000B800000010000000B0000000A1
:1023BC000200000082000000060000007E00000009
:1023CC002000000030313233343536373839616211
:0F23DC0063646566000000000D0900000D0A0033
:0423EC0000000000ED
:0200000480007A
:100000006F00400B130000001300000013000000FD
:100010001300000013000000130000001300000094
:10002000232E11FE232C51FE232A61FE232871FE6C
:100030002326A1FE2324B1FE2322C1FE2320D1FECC
:10004000232EE1FC232CF1FC232A01FD232811FDA2
:100050002326C1FD2324D1FD2322E1FD2320F1FD30
:10006000130101FC971000C0E78000BB8320C1038F
:100070008322810303234103832301030325C10258
:100080008325810203264102832601020327C10141
:10009000832781010328410183280101032EC10028
:1000A000832E8100032F4100832F010013010104DF
:1000B00073002030973100C09381C1B31711000045
:1000C00013014188172500C01305C532972500C0CC
:1000D000938545326308B5002320050013054500CC
:1000E0006FF05FFF172500C0130585301301C1FFB6
:1000F000972500C09385C52F630EB50083260500A4
:10010000130545002320A100E78006000325010018
:100110006FF01FFE1301410037150000130505881D
:1001200073104530372500001305858073100530A6
:0C013000970000C0E780C0576F0000007F
:040000058000000077
:00000001FF
